:020000040800F2
:1000000000200020D1350008E5110008E7110008A4
:1000100000000000000000000000000000000000E0
:10002000000000000000000000000000E9110008CE
:100030000000000000000000EB110008ED110008B6
:100040002136000800000000213600082136000893
:1000500021360008F51100082136000805120008B5
:100060000000000021360008213600082136000873
:100070002136000821360008213600080000000063
:100080002136000821360008000000002136000853
:1000900021360008213600082136000821360008E4
:1000A00021360008213600082136000821360008D4
:1000B00021360008000000000000000000000000E1
:1000C0000023C25C0133002AFBD1581E7047000098
:1000D00003B47146490840004900095E49008E4456
:1000E00003BC7047002243088B4274D303098B4240
:1000F0005FD3030A8B4244D3030B8B4228D3030CF8
:100100008B420DD3FF22090212BA030C8B4202D399
:100110001212090265D0030B8B4219D300E0090AC1
:10012000C30B8B4201D3CB03C01A5241830B8B42CA
:1001300001D38B03C01A5241430B8B4201D34B03B3
:10014000C01A5241030B8B4201D30B03C01A524118
:10015000C30A8B4201D3CB02C01A5241830A8B429D
:1001600001D38B02C01A5241430A8B4201D34B0286
:10017000C01A5241030A8B4201D30B02C01A5241EA
:10018000CDD2C3098B4201D3CB01C01A524183099E
:100190008B4201D38B01C01A524143098B4201D3D8
:1001A0004B01C01A524103098B4201D30B01C01A03
:1001B0005241C3088B4201D3CB00C01A524183087D
:1001C0008B4201D38B00C01A524143088B4201D3AA
:1001D0004B00C01A5241411A00D20146524110460A
:1001E0007047FFE701B5002000F0F0F802BDC046FF
:1001F0000029F7D076E7704703460B437FD40022EF
:1002000043088B4274D303098B425FD3030A8B42AA
:1002100044D3030B8B4228D3030C8B420DD3FF2214
:10022000090212BA030C8B4202D31212090265D0E2
:10023000030B8B4219D300E0090AC30B8B4201D395
:10024000CB03C01A5241830B8B4201D38B03C01ADC
:100250005241430B8B4201D34B03C01A5241030B53
:100260008B4201D30B03C01A5241C30A8B4201D304
:10027000CB02C01A5241830A8B4201D38B02C01AAF
:100280005241430A8B4201D34B02C01A5241030A26
:100290008B4201D30B02C01A5241CDD2C3098B420B
:1002A00001D3CB01C01A524183098B4201D38B0188
:1002B000C01A524143098B4201D34B01C01A52412B
:1002C00003098B4201D30B01C01A5241C3088B4270
:1002D00001D3CB00C01A524183088B4201D38B005B
:1002E000C01A524143088B4201D34B00C01A5241FD
:1002F000411A00D201465241104670475DE0CA0FD4
:1003000000D04942031000D34042534000229C4693
:1003100003098B422DD3030A8B4212D3FC2289019D
:1003200012BA030A8B420CD3890192118B4208D373
:10033000890192118B4204D389013AD0921100E0D5
:100340008909C3098B4201D3CB01C01A52418309E9
:100350008B4201D38B01C01A524143098B4201D316
:100360004B01C01A524103098B4201D30B01C01A41
:100370005241C3088B4201D3CB00C01A52418308BB
:100380008B4201D38B00C01A5241D9D243088B4211
:1003900001D34B00C01A5241411A00D201466346B4
:1003A00052415B10104601D34042002B00D5494218
:1003B000704763465B1000D3404201B5002000F057
:1003C00005F802BD0029F8D016E770477047C0460F
:1003D0008446100062468C461900634600E0C04621
:1003E0001FB505F00BFC002801D40021C8421FBD39
:1003F00010B505F04DFB4042013010BD10B505F0C1
:10040000FDFB002801DB002010BD012010BDC0460F
:1004100010B505F0F3FB002801DD002010BD012020
:1004200010BDC04610B505F079FB002801DC0020A6
:1004300010BD012010BDC04610B505F06FFB0028AF
:1004400001DA002010BD012010BDC0461C2101238F
:100450001B04984201D3000C10391B0A984201D3A7
:10046000000A08391B09984201D30009043902A285
:10047000105C40187047C0460403020201010101EC
:1004800000000000000000000448054B10B5834246
:1004900003D0044B002B00D0984710BD5C00002017
:1004A0005C0000200000000006480749091A8B1074
:1004B000C90FC91810B5491003D0044B002B00D048
:1004C000984710BD5C0000205C0000200000000088
:1004D00010B5074C2378002B09D1FFF7D5FF054B4A
:1004E000002B02D0044800E000BF0123237010BDA0
:1004F0005C00002000000000D85C0008054B10B52F
:10050000002B03D00449054800E000BFFFF7CCFFF3
:1005100010BDC0460000000060000020D85C00084C
:10052000F0B589B003AC14220021200003F0AEF82E
:100530002A4B5A698021C9030A435A615A690A4001
:100540000092009A5A69802189020A435A615A69C5
:100550000A400192019A5A698021C9020A435A61EC
:100560005B690B400293029B8027BF011C4D002258
:100570003900280002F0EBF90323039388235B037F
:1005800004930026059690202100C00502F014F97E
:10059000039701270497059606962100280002F08C
:1005A0000BF920230393C4239B0304930597210095
:1005B000280002F001F900220021052002F028FAAB
:1005C000052002F029FA00220021072002F020FA7B
:1005D000072002F021FA09B0F0BDC0460010024029
:1005E0000004004810B5202800D010BD00F08EFC9B
:1005F000FBE772B6FEE7000010B51248124B03602D
:10060000124B4360002383600122C2600361436197
:100610008361C361036201F0F1FC00280CD1094839
:10062000002102F073F8002808D10648002102F0EA
:1006300099F8002804D110BDFFF7DBFFFFF7D9FFC1
:10064000FFF7D7FF48010020005400402B1D200079
:1006500000B591B01C22002109A803F017F8202250
:10066000002101A803F012F82048214B0360002369
:10067000436083601F4AC26003614361836102F08B
:1006800019FB002829D1194802F040FB002826D187
:1006900009A96023099300234B608B60CB600B6139
:1006A0004B618B611148002202F09EFB002818D19B
:1006B00001A9002301934B608B60CB600B6180220A
:1006C00092014A61CB61094802F08EFC00280AD1F0
:1006D000064800F0FFFD11B000BDFFF78AFFFFF7ED
:1006E00088FFFFF786FFFFF784FFC0460001002068
:1006F00000440140FFFF000010B50B480B4B0360A6
:1007000096231B02436000238360C36003610C22B5
:1007100042618361C3610362436202F023FF0028E8
:1007200000D110BDFFF765FF7800002000380140C0
:1007300010B594B008AC30220021200002F0A6FFD2
:100740001022002104A802F0A1FF10220021684617
:1007500002F09CFF02230893013B0B930F330C9391
:10076000200000F015FE002817D104A807230493E9
:10077000002343608360C360002101F087F80028F4
:100780000DD168462123009300230293039301F0C7
:100790002DF9002805D114B010BDFFF72AFFFFF78F
:1007A00028FFFFF726FF0000F0B5CE46474680B58C
:1007B000C7B001F0D3F9FFF7BBFFFFF7B1FEFFF7BA
:1007C0001BFFFFF745FFFFF797FF642001F0E8F9F3
:1007D00000F088FC00F046FA00F094FC00F074FB96
:1007E00000F0FAFC012000F0AFFC54E1D04B00E037
:1007F000D04BD14A03ACF2211A20684402F012FF18
:100800002000FFF75DFC012382B2CC485B4221004F
:1008100002F0C7FD00222270C94A8021330049003E
:10082000200002F0FFFE330600D558E1C54BC64A52
:10083000EF211D20684402F0F5FE1130040003A8EA
:10084000001980214900091BB30700D449E1BF4BBF
:10085000BF4A02F0E7FE241803A8001980214900CE
:10086000091B730700D43EE1B84BBA4A02F0DAFE26
:10087000241803A8001980214900091B360700D459
:1008800033E1B24BB44A02F0CDFE03AC2000FFF7D7
:1008900017FC012382B2A9485B42210002F081FDCE
:1008A00000222270AD4A80213B004900200002F066
:1008B000B9FEFB0700D41AE1A44BA94AEE211E2081
:1008C000684402F0AFFE1230040003A80019802132
:1008D0004900091B7B0700D40BE19C4BA14A02F0A5
:1008E000A1FE241803A8001980214900091BBF0696
:1008F00000D400E1954B9C4A02F094FE03AC20002A
:10090000FFF7DEFB012382B28C485B42210002F03C
:1009100048FD00222270954A80212B0049002000CA
:1009200002F080FE6B0600D4E7E0884B904AEB2192
:100930002120684402F076FE1530040003A8001957
:1009400080214900091BAB0700D4D8E07F4B894ABE
:1009500002F068FE241803A8001980214900091B31
:100960006B0700D4CDE0794B834A02F05BFE24187C
:1009700003A8001980214900091B2D0700D4C2E0FB
:10098000724B7E4A02F04EFE03AC2000FFF798FB4C
:10099000012382B269485B42210002F002FD4398C4
:1009A000774903F02BFC03F07BFD07004498744962
:1009B00003F024FC03F074FD06004598704903F031
:1009C0001DFC03F06DFD0500002222706D4B22001E
:1009D00013CB13C203CB03C21B88138064213800DE
:1009E000FFF70AFC0400002F00DA8EE064213800D3
:1009F000FFF7E8FC644A00912300EB2121206844C2
:100A000002F010FE1530040003AF3F1880235B0096
:100A10001B1A984664213000FFF7EEFB8146002E3A
:100A200079DB64213000FFF7CDFC584A00914B463A
:100A30004146380002F0F6FD241803AE361980272F
:100A40007F003F1B64212800FFF7D6FB8046002D66
:100A500067DB64212800FFF7B5FC4D4A009143464F
:100A60003900300002F0DEFD201880214900091A0B
:100A7000484A03AD281802F0D5FD2800FFF720FBF7
:100A8000012382B22D485B42290002F08AFCFA2041
:100A9000400001F085F800F0CFF9040000F0DBF928
:100AA000060000F0E7F9070000F0F3F9050043A89D
:100AB00000F032F903AB00221A70374A802123007C
:100AC000490003A802F0AEFD03231A00224023428E
:100AD00000D18DE6012A00D188E6304B89E61B4B18
:100AE000A5E6184BB4E6174BBFE6164BCAE6154B06
:100AF000E3E6144BF2E6134BFDE6124B16E7114BFF
:100B000025E7104B30E70F4B3BE764213800FFF738
:100B100059FC49426EE764213000FFF753FC49421B
:100B200083E764212800FFF74DFC494295E7C04662
:100B3000005D0008F85C00082C5D000878000020CB
:100B40003C5D0008105D0008505D0008085D00086D
:100B5000745D0008885D00089C5D0008B05D0008B9
:100B6000C85D0008E05D0008FC5D0008105E00083C
:100B7000285E0008485E0008605E0008785E000895
:100B80000000C842905E0008A85E0008C45E00082D
:100B9000E05E0008FC5E0008185D0008F05C0008DC
:100BA00010B584B00200064C01235B42029302336D
:100BB000019300913821200001F0D8FC04B010BD51
:100BC0004801002010B584B0064C01235B4202931B
:100BD00001920091023302003821200001F0C6FC8E
:100BE00004B010BD4801002010B586B002001723E4
:100BF0006B441970064C0121494202910231019166
:100C0000009301233731200001F0E4FB06B010BD52
:100C10004801002000B583B06B46D91D2A20FFF79C
:100C2000BFFF002801D003B000BD6B460022DA717F
:100C300000212A30FFF7D8FFF5E700B583B06B46F7
:100C4000D91D2A20FFF7ACFF002801D003B000BD5A
:100C50006B46D97901221143C9B2D9712A30FFF705
:100C6000C3FFF3E700B583B06B46D91D0D20FFF736
:100C700097FF002805D16B4607331B781A2B02D04B
:100C8000012003B000BDFFF7C5FF0028F9D11821EE
:100C90002A30FFF7A9FF0028F3D11C212B30FFF7E2
:100CA000A3FF0028EDD15A212C30FFF79DFF00282B
:100CB000E7D184212D30FFF797FF0028E1D184216F
:100CC0002E30FFF791FF0028DBD100210E30FFF717
:100CD0008BFF0028D5D100210F30FFF785FF0028BA
:100CE000CFD1F8211530FFF77FFF0028C9D10C21A3
:100CF0001730FFF779FF0028C3D103211830FFF721
:100D000073FF0028BDD132212930FFF76DFF002885
:100D1000B7D1FFF792FFB4E7F0B5CE46474680B5AE
:100D200085B0051E78D00F2169442A20FFF738FFCF
:100D30000E2169440020FFF733FF041E6DD10E23FE
:100D40006B441B781B0700D46DE00D2169440E2015
:100D5000FFF726FF041E60D10D236B441A7803238E
:100D60001340012B50D0022B52D0002B5DD18B238E
:100D7000DB059846062201A90120FFF723FF041E88
:100D80004BD101AB19785A7809020A4312B290107C
:100D90009978DF7809020F433FB2BF1019795E7965
:100DA00009020E4336B2B610002A01DA204B18436E
:100DB000BB0401D51E4B1F43B30401D51C4B1E437E
:100DC00003F08EFB414603F003F98146380003F03F
:100DD00087FB414603F0FCF8071C300003F080FB62
:100DE000414603F0F5F8061C1249484603F006FA9E
:100DF00028601049381C03F001FA68600D49301C66
:100E000003F0FCF9A86008E08A23DB059846B1E707
:100E10008923DB059846ADE70124200005B0C0BC5E
:100E2000B946B046F0BD0224F7E70124F5E7C04615
:100E300000C0FFFF0AE81C4100B583B06B46D91D16
:100E40000B20FFF7ADFE002803D16B46D87903B025
:100E500000BDFF20FBE700B583B06B46D91D16200F
:100E6000FFF79EFE002803D16B46D87903B000BD82
:100E7000FF20FBE700B583B06B46D91D0C20FFF7C0
:100E80008FFE002803D16B46D87903B000BDFF2048
:100E9000FBE700B583B06B46D91D1E20FFF780FE2F
:100EA000002803D16B46D87903B000BDFF20FBE7D3
:100EB00010B52021034801F043FD43425841C0B220
:100EC00010BDC0460004004810B5FFF7F1FF084B05
:100ED0001870084A00231370074A1360074A13600A
:100EE000074A1370074A1370074A137010BDC046B3
:100EF000AD010020AC010020A8010020A4010020C9
:100F0000A2010020A1010020A001002010B520288E
:100F100000D010BDFFF7CCFF040000F03BFE134AE9
:100F20001268821A312AF4D9104A1060104A1278D5
:100F3000002A0ED1002C0CD00D4A012111700D4A4F
:100F400010600D4B00221A700C4A13780133137095
:100F5000DFE7074A1278002ADBD0002CD9D1044AF7
:100F600000211170064A1060D3E7C0469C010020A2
:100F7000AD010020A8010020A1010020A201002055
:100F8000A401002030B587B00D0014000F226A4480
:100F90001070184801235B4200930233B42101F022
:100FA0009BF8002801D007B030BD124801235B42F6
:100FB0000093023317226A44B42101F055F9002846
:100FC000F1D1EB435BB217226A4411782C400B40FD
:100FD0001C43147005AA0F236B441B7813705470C4
:100FE000044801235B4200930333B42101F074F8F9
:100FF000D9E7C0464801002010B5012805D00022DD
:1010000080211A20FFF7BEFF10BD8022F8E7000004
:1010100000B585B003AA1723137050700448183B1D
:1010200000930333B42101F057F805B000BDC0466A
:101030004801002010B5020001211D20FFF7A2FF8A
:1010400010BD000010B504F0F5FC094A094B03F08F
:10105000B5FD02000B000020074903F091FA02F0F1
:1010600099FF7F2202407F212020FFF78BFF10BDD8
:101070008AB97BEB89CF193F0000F03F00B585B0FE
:1010800003AA0123137050700448023B00930333FA
:10109000B42101F021F805B000BDC0464801002090
:1010A00010B58021012289010D4801F050FC00207B
:1010B000FFF7E4FF002800D010BD0130FFF79CFFD0
:1010C0000028F9D10130FFF7B5FF0028F4D1AA308C
:1010D000FFF7B8FF0028EFD17E30FFF799FFEBE76D
:1010E0000004004810B5002402E0642000F058FD20
:1010F000002C05D1FFF7D4FF0028F6D10124F4E736
:1011000010BD000010B50248002101F0F3FE10BD33
:101110000001002010B5642800D964200304181AC7
:101120006421FEF7DFFF034B1B680004000C5863CB
:1011300010BDC04600010020024B1B6800225A630C
:101140007047C0460001002070B5022826D0032851
:1011500032D001280FD070BD3220FFF7DBFFC8204E
:1011600000F01EFDFFF7E8FFC82000F019FD013474
:10117000022CF1DDEFE70024FAE75020FFF7CAFF69
:10118000C8256D00280000F00BFDFFF7D5FF2800F3
:1011900000F006FD0134012CEFDDDCE70024FAE766
:1011A0002000FFF7B7FF0A2000F0FAFC0134E4B298
:1011B000642CF5D9642409E00024F9E72000FFF746
:1011C000A9FF0A2000F0ECFC013CE4B2002CF5D1B0
:1011D000FFF7B2FFBFE70000014B06221A7070470D
:1011E000AE010020FEE7FEE77047704710B500F043
:1011F000C5FC10BD10B5012001F0B0FB022001F0CC
:10120000ADFB10BD10B5202001F0A8FB10BD000003
:1012100082B00A4B996901221143996199690A4088
:101220000092009ADA69802149050A43DA61DB6994
:101230000B400193019B02B07047C0460010024072
:1012400010B588B004001422002103A802F01EFA91
:101250002268124B9A4201D008B010BD104C63694D
:101260008022D20213436361636913400193019B9F
:1012700003A9C0230393AE3B4B600F3BCB60023B03
:101280000B61084801F098FAE36980229203134346
:10129000E361E36913400293029BDDE700540040E1
:1012A000001002400004004882B00268074B9A42D6
:1012B00001D002B07047064B9A69802189020A4327
:1012C0009A619B690B400193019BF2E70044014046
:1012D0000010024010B586B004001422002101A8BD
:1012E00002F0D4F922680D4B9A4201D006B010BD2D
:1012F0000B4B5A698021C9020A435A615B690B4052
:101300000093009B01A980235B000193FE3B4B608F
:101310000B61044801F050FAE8E7C0460044014080
:10132000001002400004004810B588B004001422E8
:10133000002103A802F0AAF92268134B9A4201D0B7
:1013400008B010BD114B9A698021C9010A439A6106
:101350009A690A400192019A5A69802189020A43D6
:101360005A615B690B400293029B03A9C023DB0017
:10137000039302234B600133CB60023B0B6190204F
:10138000C00501F019FADBE7003801400010024007
:1013900070B582B0041E00D12EE20368DB0726D5AB
:1013A000AE4B5A680C231340042B18D0AB4B5A6831
:1013B0000C231340082B0ED06368012B3CD0002B6C
:1013C00051D1A64B1A68A6490A401A601A68A54965
:1013D0000A401A6036E0A14B5B68DB03ECD59F4BFB
:1013E0001B689B0303D56368002B00D107E22368C9
:1013F0009B0772D5994B5B680C221A425DD0974BC4
:101400005A680C231340082B53D0E368002B00D1FB
:1014100085E0924A136801210B43136000F0BAFB88
:1014200005008E4B1B689B0770D400F0B3FB401B7C
:101430000228F6D90320E0E1884A116880235B0284
:101440000B4313606368002B25D000F0A3FB05005D
:10145000824B1B689B03CAD400F09CFB401B642892
:10146000F6D90320C9E1052B09D07C4B1A687C49C9
:101470000A401A601A687B490A401A60E2E7774B13
:1014800019688022D2020A431A6019688022520227
:101490000A431A60D6E700F07DFB05006F4B1B681E
:1014A0009B03A4D500F076FB401B6428F6D90320EB
:1014B000A3E16A4B5B68DB03A7D4684B1B689B07FF
:1014C00003D5E368012B00D09BE164490B68F82247
:1014D00093432269D20013430B6023681B0744D552
:1014E000E369002B2ED05D4A536A01210B435362FE
:1014F00000F050FB0500594B5B6A9B0735D400F0A8
:1015000049FB401B0228F6D9032076E153490B68BA
:10151000F82293432269D20013430B60DDE74F4A60
:10152000136801218B43136000F034FB05004B4B23
:101530001B689B07D1D500F02DFB401B0228F6D974
:1015400003205AE1454A536A01218B43536200F05C
:1015500021FB0500414B5B6A9B0706D500F01AFB97
:10156000401B0228F6D9032047E123685B0700D41B
:1015700080E03A4BDB69DB001DD4384BDA6980210F
:1015800049050A43DA61DB690B400193019B0125A0
:10159000354B1B68DB0510D5A368012B21D0002B30
:1015A00036D12E4B1A6A01218A431A621A6A033114
:1015B0008A431A621AE00025EAE72B4A1168802361
:1015C0005B000B43136000F0E5FA0600264B1B6836
:1015D000DB05E1D400F0DEFA801B6428F6D9032095
:1015E0000BE11E4A136A01210B431362A368002B0F
:1015F00024D000F0CFFA0600184B1B6A9B0737D4A3
:1016000000F0C8FA801B194B9842F5D90320F4E08A
:10161000052B09D0114B1A6A01218A431A621A6AF2
:1016200003318A431A62E1E70C4B1A6A04210A4328
:101630001A621A6A03390A431A62D7E700F0AAFA53
:101640000600064B1B6A9B0712D500F0A3FA801B0D
:10165000064B9842F5D90320CFE0C0460010024067
:10166000FFFFFEFFFFFFFBFF00700040881300003C
:10167000012D33D02368DB0610D56369012B33D0ED
:10168000053351D1654A536B04218B435363536B2C
:10169000F4318B43A169C9000B435363236A002BC8
:1016A00000D1B0E05D4A51680C220A40082A00D1FE
:1016B0008AE0022B4FD0594A136859490B401360F6
:1016C00000F068FA0400554B1B689B017AD500F0C6
:1016D00061FA001B0228F6D903208EE04F4AD36935
:1016E00050490B40D361C5E74C4B5A6B04210A4368
:1016F0005A635A6B03390A435A6300F04BFA0500E8
:10170000464B5B6B9B0706D400F044FA401B022853
:10171000F6D9032071E041494B6BF8229343A2694B
:10172000D20013434B63B9E73C4B5A6B04210A4385
:101730005A635A6B03398A435A6300F02BFA050047
:10174000364B5B6B9B07A9D500F024FA401B02289F
:10175000F6D9032051E0314A136831490B40136038
:1017600000F018FA05002D4B1B689B0106D500F010
:1017700011FA401B0228F6D903203EE0274BDA6A13
:101780000F218A43E16A0A43DA625A6826490A400D
:10179000A16A606A01430A435A60196880225204B0
:1017A0000A431A6000F0F6F904001C4B1B689B0109
:1017B00006D400F0EFF9001B0228F6D903201CE044
:1017C00000201AE0002018E0012B1ED0134B5A68AD
:1017D000D86A80235B021340616A8B4217D10F23C2
:1017E0000340E16A8B4214D1F0239B031A40A36AA1
:1017F0009A4210D1002000E0012002B070BD01200B
:10180000FBE70120F9E70020F7E70120F5E70120D9
:10181000F3E70120F1E70120EFE7C04600100240A6
:10182000FFFFFFFEFFFFFFEFFFFFC2FF10B5124BF0
:101830005A680C231340042B1AD0082B1AD1910C90
:10184000073319400D48445C0B49C96A0B400C49E9
:10185000C95CD20304D50B48FEF744FC604308E0A2
:101860006201121B93019B1ADB001B19180200E096
:10187000044810BD0448FCE700100240145F000853
:10188000045F00080024F40000127A0070B5040020
:101890000D00002800D17EE0434B1A68012313405D
:1018A0008B420AD240490B68012293432B430B60C1
:1018B0000B681A40AA4200D06FE023689A070ED541
:1018C0005B0705D5394A5168E023DB000B435360C1
:1018D000364A5368F0218B43A1680B435360236859
:1018E000DB072DD56368012B1ED0022B22D02F4A97
:1018F0001268920753D52D494A6803208243134347
:101900004B6000F047F90600284B5B680C221A4038
:1019100063689B009A4213D000F03CF9801B244B73
:101920009842F1D9032035E0204A12689203E2D4AC
:1019300001202FE01D4A12689201DCD4012029E029
:10194000194B1A6801231340AB4209D916490B6899
:10195000012293432B430B600B681A40AA4220D10B
:1019600023685B0706D5114A536812490B40E168AA
:101970000B435360FFF75AFF0C4B5A6812090F23B1
:1019800013400D4AD35CD8400C4B1860032000F084
:10199000BDF8002070BD0120FCE70120FAE701201E
:1019A000F8E70120F6E7C0460020024000100240A0
:1019B00088130000FFF8FFFF2C5F000808000020DC
:1019C000014B18687047C0460800002010B5FFF7AB
:1019D000F7FF044B5A68120A07231340024AD35CEC
:1019E000D84010BD00100240245F000870B582B0DE
:1019F00004000368DB0339D53E4BDB69DB004CD4C4
:101A00003C4BDA69802149050A43DA61DB690B4006
:101A10000193019B0125384B1B68DB053FD5354BF6
:101A20001A6AC0239B00110019401A4215D063683E
:101A3000C022920013408B420FD02E4B1A6A2F49BE
:101A400011401E6A8020400230431862186A2C4EF2
:101A5000304018621962D20735D4264A136A2749E2
:101A60000B4061680B431362012D3BD02368DB07F9
:101A700006D5204A136B03218B43A1680B431363E4
:101A800023689B0633D51B4A136B10218B43E168F7
:101A90000B431363002002B070BD0025BBE7164A5C
:101AA000116880235B000B43136000F073F806009D
:101AB000114B1B68DB05B2D400F06CF8801B642866
:101AC000F6D90320E7E700F065F80600094B1B6A2A
:101AD0009B07C2D400F05EF8801B0A4B9842F5D9F0
:101AE0000320D8E7D36908490B40D361BEE7002043
:101AF000D1E7C0460010024000700040FFFCFFFF2D
:101B0000FFFFFEFF88130000FFFFFFEF10B504008A
:101B10000F4B1978FA208000FEF7E4FA01000D4B14
:101B20001868FEF7DFFA00F083FF00280DD1032CC0
:101B300001D901200AE0013000222100404200F0DA
:101B400067FF054B1C60002000E0012010BDC0466F
:101B500000000020080000200400002010B5064A04
:101B6000136810210B4313600320FFF7CFFFFFF72B
:101B70004FFB002010BDC04600200240034A116800
:101B8000034B1B785B1813607047C046B001002000
:101B900000000020014B18687047C046B0010020CB
:101BA00070B50400FFF7F6FF0500631C02D0044B7C
:101BB0001B78E418FFF7EEFF401BA042FAD370BD7C
:101BC00000000020026893699B0701D500239362FF
:101BD00003689A69D20703D49A6901210A439A617A
:101BE0007047000010B58905890D1204114319438F
:101BF000029B194349004908046862685B0D802014
:101C0000C0000340034803439A4313000B4363603F
:101C100010BDC046FF63FF03F0B5C64600B5040023
:101C20000D00170001688B69102216001E401A4231
:101C300000D175E01023CB61002398460026206870
:101C400083699B0631D4002E2FD16B1CF7D0FFF790
:101C5000A1FFC01BA84201D8002DF0D121684B681C
:101C60008022D20113404222A25CD2B288690004D1
:101C700003D5002B01D1202A0ED123689B699B0636
:101C8000DDD4FFF787FFC01B1928F6D92023424671
:101C90001A4390460126D2E74A688023DB011343AA
:101CA0004B60FFF777FF0700E7E7002E01D1202305
:101CB000C3610426434633431E000125226893690D
:101CC000D90504D501210E43FF31D16101255A0503
:101CD00006D50822164322688021C900D16101255A
:101CE0009B051FD502231E43236880229200DA61E0
:101CF00001252000FFF766FF226853680B490B405F
:101D00005360636C3343636441232022E254002315
:101D10002232A354023AA354280080BCB846F0BD36
:101D20000025CBE7002DF7D0E3E7C04600E800FE32
:101D300070B504000D00160023689B699B0720D432
:101D4000320029002000FFF767FF00281BD16B1C21
:101D5000F2D0FFF71FFF801BA84201D8002DEBD166
:101D600023689B699B07E7D4636C20221343636459
:101D70004123E25400232232A354023AA354012007
:101D800000E0002070BD0120FCE7F0B5D6464F46CC
:101D900080B583B007000D00160099460A9B9A464D
:101DA0003B689C692C40641B63425C410196B442D1
:101DB00028D1524649463800FFF72EFF002827D188
:101DC0004B460133ECD0FFF7E5FE5346C01A4845B9
:101DD00002D84B46002BE3D13B689B692B405B1B31
:101DE0005A425341019A9342DAD17B6C2022134329
:101DF0007B644123FA5400232232BB54023ABB5481
:101E0000012000E0002003B0C0BCBA46B146F0BDDE
:101E10000120F8E770B582B0040015001E00802391
:101E2000F2B2194800905B042000FFF7DBFE079A2E
:101E300006992000FFF77CFF00281ED1012E0ED14D
:101E40002368EDB29D62079B0093069B00228021D0
:101E50002000FFF79AFF002813D102B070BD23685D
:101E60002A0A9A62079A06992000FFF761FF002864
:101E700005D12368EDB29D62E5E70120EDE7012081
:101E8000EBE70120E9E7C0460020008070B582B092
:101E9000040015001E00DAB2184B00930023FFF770
:101EA000A1FE079A06992000FFF742FF00281ED1E5
:101EB000012E0ED12368EDB29D62079B0093069B15
:101EC000002240212000FFF760FF002813D102B05C
:101ED00070BD23682A0A9A62079A06992000FFF7C4
:101EE00027FF002805D12368EDB29D62E5E70120B8
:101EF000EDE70120EBE70120E9E7C0460020008084
:101F000070B504000D00160003E023689B699B0672
:101F100012D523689B699B061BD432002900200040
:101F2000FFF77AFE002816D1FFF734FE801BA84287
:101F3000EBD8002DEDD1E8E7636C202213436364F6
:101F40004123E25400232232A354023AA354012035
:101F500000E0002070BD0120FCE70000F8B504009F
:101F60000E001700002518E000236364FFF712FE3F
:101F7000C01BB04201D8002E0FD1002D0DD1236817
:101F80009B695B0709D4636C20221343636441237C
:101F9000E254013B0022E254013523689B695B0750
:101FA00028D4002D26D13A0031002000FFF734FE5E
:101FB000002800D00125226893699B06D6D5002D04
:101FC000D4D193699369DB06CED51023D3610C3B42
:101FD000636423682022DA6121684B680648034065
:101FE0004B604123E25400232232A354023AA3540B
:101FF0000135BBE72800F8BD00E800FE10B5041E5F
:1020000060D04123C35C002B48D041232422E254FA
:102010002268136801218B431360636822682A4990
:102020000B4013612268936828490B409360E36872
:10203000012B39D0A168226884231B020B439360D3
:10204000E368022B37D02268536821490B40536064
:10205000226851681F4B0B4353602268D3681B49A9
:102060000B40D360236962691343A269120221689D
:102070001343CB60E369216A22680B431360226833
:10208000136801210B4313600023636441221F3155
:10209000A15423630132A354002010BD4033002219
:1020A000C254FFF7CDF8B0E7A168226880231B0275
:1020B0000B439360C4E72268516880231B010B43E4
:1020C0005360C5E70120E8E7FFFFFFF0FF7FFFFF58
:1020D000FFF7FFFF00800002F0B585B004000E009E
:1020E000029203930A9D4123C35C202B00D0AAE0F7
:1020F0002033C35C012B00D1A8E040230122C2544D
:10210000FFF748FD070080210090192301220902F2
:102110002000FFF73AFE002800D099E04123212259
:10212000E2540133113AE25400236364029A62627A
:10213000039A62856363638DFF2B1ED9FF2323857A
:1021400080235B04228D002A1CD022680299097822
:102150009162626A01326262628D013A92B2628574
:10216000228D013A92B222850132D2B23C490091CD
:1021700031002000FFF736FD18E0638D23858023B2
:102180009B04DFE7D2B23649009131002000FFF70F
:1021900029FD0BE0628D92B222858023D2B200210C
:1021A00000919B0431002000FFF71CFD638D002B84
:1021B00032D03A0029002000FFF7BAFD002849D1AB
:1021C000626A236812789A62636A01336362638D7C
:1021D000013B9BB26385238D013B9BB22385628DBE
:1021E000002AE3D0002BE1D100972B0000228021B0
:1021F0002000FFF7CAFD00282ED1638DFF2BC9D91F
:10220000FF2323857F3B002200925B04FF323100D5
:102210002000FFF7E7FCC9E73A0029002000FFF79C
:102220006FFE00281AD123682022DA6121684B68EA
:102230000C4D2B404B604123E25400232232A35427
:10224000023AA35400E0022005B0F0BD0220FBE7F3
:102250000120F9E70120F7E70120F5E70120F3E786
:102260000020008000E800FEF0B585B004000F00FB
:10227000029203930A9D4123C35C202B00D097E078
:102280002033C35C012B00D195E040230122C254CE
:10229000FFF780FC0600802100901923012209022B
:1022A0002000FFF772FD002800D086E041232222A3
:1022B000E2540133123AE25400236364029A6262E8
:1022C000039A62856363638DFF2B0BD901232385FA
:1022D0007F333E4A00925B04012239002000FFF761
:1022E00081FC18E0628D92B222858023D2B23749F8
:1022F00000919B0439002000FFF774FC0BE0628D15
:1023000092B222858023D2B2002100919B04390031
:102310002000FFF767FC638D002B32D032002900CC
:102320002000FFF71BFE002849D123685A6A636A20
:102330001A70636A01336362238D013B9BB223856C
:10234000628D013A92B26285628D002AE3D0002B41
:10235000E1D100962B00002280212000FFF715FD1F
:1023600000282ED1638DFF2BC9D9FF2323857F3B06
:10237000002200925B04FF3239002000FFF732FC9C
:10238000C9E7320029002000FFF7BAFD00281AD162
:1023900023682022DA6121684B680D4D2B404B6089
:1023A0004123E25400232232A354023AA35400E012
:1023B000022005B0F0BD0220FBE70120F9E7012073
:1023C000F7E70120F5E70120F3E7C046002400808D
:1023D00000E800FEF0B587B0040003910492059375
:1023E0000CAB20CB1F884123C35C202B00D0AFE077
:1023F000002D18D0002F16D04023C35C012B00D134
:10240000A9E040230122C254FFF7C4FB060080214B
:1024100000901923012209022000FFF7B6FC0028D2
:1024200006D0012095E080239B006364012090E0AA
:1024300041232122E25401331F32E254002363641A
:1024400065626785636301960E9B0093059B049A02
:1024500003992000FFF7DEFC00280ED1638DFF2BCF
:1024600010D9FF2323857F3B002200925B04FF32BB
:1024700003992000FFF7B6FB20E040230022E2543E
:10248000012066E0628D92B222858023D2B20021C3
:1024900000919B0403992000FFF7A4FB0EE0628DDE
:1024A00092B222858023D2B2002100919B0403992D
:1024B0002000FFF797FB638D002B32D032000E997E
:1024C0002000FFF735FC002847D1626A23681278A4
:1024D0009A62636A01336362638D013B9BB26385D9
:1024E000238D013B9BB22385628D002AE3D0002B14
:1024F000E1D100960E9B002280212000FFF745FCD1
:1025000000282CD1638DFF2BC9D9FF2323857F3B66
:10251000002200925B04FF3203992000FFF762FB68
:10252000C9E732000E992000FFF7EAFC002818D115
:1025300023682022DA6121684B680B4D2B404B60E9
:102540004123E25400232232A354023AA35400E070
:10255000022007B0F0BD0220FBE70120F9E70120CF
:10256000F7E70120F5E7C04600E800FEF0B587B0C8
:1025700004000391049205930CAB20CB1F884123E8
:10258000C35C202B00D0B1E0002D18D0002F16D056
:102590004023C35C012B00D1ABE040230122C25495
:1025A000FFF7F8FA060080210090192301220902A2
:1025B0002000FFF7EAFB002806D0012097E08023E7
:1025C0009B006364012092E041232222E254013304
:1025D0001E32E2540023636465626785636301967B
:1025E0000E9B0093059B049A03992000FFF74EFC75
:1025F00000280ED1638DFF2B10D9012323857F3353
:10260000404A00925B04012203992000FFF7EAFA96
:1026100020E040230022E254012068E0628D92B263
:1026200022858023D2B2374900919B040399200070
:10263000FFF7D8FA0EE0628D92B222858023D2B2E3
:10264000002100919B0403992000FFF7CBFA638DD2
:10265000002B34D000960E9B002204212000FFF7AF
:1026600094FB002847D123685A6A636A1A70636A28
:1026700001336362238D013B9BB22385628D013A56
:1026800092B26285628D002AE1D0002BDFD10096E4
:102690000E9B002280212000FFF777FB00282CD121
:1026A000638DFF2BC7D9012323857F33002200923E
:1026B0005B04013203992000FFF794FAC7E7320068
:1026C0000E992000FFF71CFC002818D12368202257
:1026D000DA6121684B680C4D2B404B604123E2547A
:1026E00000232232A354023AA35400E0022007B090
:1026F000F0BD0220FBE70120F9E70120F7E7012008
:10270000F5E7C0460024008000E800FEF0B5412354
:10271000C35C202B20D12033C35C012B1ED040246E
:10272000012202554125242343550668336893430B
:102730003360066833680A4F3B403360066833688D
:102740000B43336001680B6813430B602023435530
:10275000002303550020F0BD0220FCE70220FAE729
:10276000FFEFFFFFF0B54123C35C202B1ED12033C8
:10277000C35C012B1CD04024012202554125242397
:102780004355066833689343336006683368094FDE
:102790003B4009021943316001680B6813430B6029
:1027A00020234355002303550020F0BD0220FCE701
:1027B0000220FAE7FFF0FFFFF0B583B0002356E0F8
:1027C00086685F000324BC40A643CC68BC40344309
:1027D0008460446894434E683609012232409A402E
:1027E0002243426053E0DE080836B600375805320F
:1027F0001A4092000F249440A7430C699440220091
:102800003A43325056E0032600E00026A64034004A
:102810003C4302329200444E9451444A9768EA4342
:102820003E00AE434C68E40201D53E002E433F4CCF
:10283000A660E7683E0016404C68A40201D53E0041
:102840002E433A4CE66067683E0016404C68A4038D
:1028500001D53E002E43354C6660266832404C68F8
:10286000E40301D52A003243304C226001330C6866
:102870002200DA4056D001229A4025001540144229
:10288000F4D04E6803243440013C012C98D94C68A4
:1028900003222240032A08D0C4685E000322B2400B
:1028A00094438A68B2402243C2604C6803222240AB
:1028B000022A98D004685E0003221700B740BC4388
:1028C0004F683A40B240224302604C68C0229202F4
:1028D0001442CBD0164CA66901221643A661A46906
:1028E00022400192019A9A08941CA4000E4EA75906
:1028F00003241C40A4000F26A640B7439026F605EB
:10290000B04282D00B4EB04208D00B4EB04207D03E
:102910000A4EB04200D176E7052677E7012675E733
:10292000022673E703B0F0BD00000140000401403F
:10293000001002400004004800080048000C004855
:1029400003690B4201D0012070470020FCE7002AF8
:1029500001D0816170478162FCE7000010B5054B32
:102960005B69184200D110BD024B5861FDF73AFE79
:10297000F9E7C0460004014070B5002811DB830868
:10298000134DC0339B005C5903221040C000FC3241
:1029900016008640B44389010A40824022435A51BE
:1029A00070BD0F230340083B9B0806339B00094A78
:1029B000944663445C6803221040C000FC3215005A
:1029C0008540AC4389010A40824022435A60E7E7D0
:1029D00000E100E000ED00E0013880235B04984254
:1029E0000FD2094A50600948036A1B021B0AC02122
:1029F00009060B4303620023936007331360002032
:102A000070470120FCE7C04610E000E000ED00E068
:102A100010B5FFF7B1FF10BD002805DB1F220240F3
:102A200001239340014A13607047C04600E100E073
:102A300010B5FFF7D1FF10BD7047000010B50300BF
:102A40000C4A0D49521A0D490968002907D00B4953
:102A50000868C318934206D8084A136010BD074996
:102A600007480860F3E700F019FE0C23036001201B
:102A70004042F3E70020002000040000B4010020E1
:102A80000003002030B5056A036A01229343036204
:102A9000426883697324A3430C681C4302239D434B
:102AA0008B682B43154DA84208D0154DA84205D080
:102AB000144DA84202D0144DA84206D10825AB43BC
:102AC0001D00CB682B430425AB430C4DA84208D016
:102AD0000B4DA84205D00B4DA84202D00A4DA8428A
:102AE00005D10A4D2A404D6915438A692A4342603F
:102AF00084614A684263036230BDC046002C0140D5
:102B0000004001400044014000480140FFFCFFFF3D
:102B100030B5046A036A184A134003624268C36905
:102B20007325AB430D681D43144B1C408B681B027F
:102B30002343134CA04209D0124CA0420DD0124C9A
:102B4000A0420AD0114CA0420FD106E0104C1C400C
:102B5000CB681B0223430F4C23400F4C22404C698F
:102B6000240114438A69120122434260C5614A6804
:102B7000C263036230BDC046FFFEFFFFFFFDFFFFE3
:102B8000002C014000400140004401400048014049
:102B9000FFF7FFFFFFFBFFFFFFCFFFFF30B5046A2A
:102BA000036A134A134003624368C269114D2A4005
:102BB0000D682D021543104A14408A6812032243FF
:102BC0000E4CA04208D00E4CA04205D00D4CA042A5
:102BD00002D00D4CA04204D10C4C1C404B699B010F
:102BE00023434360C5614B680364026230BDC04645
:102BF000FFEFFFFFFF8CFFFFFFDFFFFF002C014017
:102C0000004001400044014000480140FFBFFFFF79
:102C1000704700000368204A904202D01F4A904249
:102C200003D1702293434A6813431B4A90420ED04B
:102C30001A4A90420BD01A4A904208D0194A904240
:102C400005D0194A904202D0184A904203D1184A3E
:102C50001A40CB681343802293434A6913430360AD
:102C60008B68C3620B6883620B4B984208D00D4B94
:102C7000984205D00C4B984202D00C4B984201D19F
:102C80000B690363012343610269134203D00369A3
:102C90000122934303617047002C0140000400406F
:102CA0000020004000400140004401400048014035
:102CB000FFFCFFFF70B5041E26D03D23C35C002B34
:102CC0001CD03D2502236355210001C9FFF7A2FF57
:102CD00001234622A354083AA3540132A3540132DB
:102CE000A3540132A3540132A3540132A35401323C
:102CF000A3540132A3546355002070BD3C3300221D
:102D0000C254FEF7D1FADCE70120F6E770B5041EE5
:102D100026D03D23C35C002B1CD03D2502236355E8
:102D2000210001C9FFF776FF01234622A354083A88
:102D3000A3540132A3540132A3540132A3540132EB
:102D4000A3540132A3540132A3540132A354635556
:102D5000002070BD3C330022C254FFF759FFDCE76E
:102D60000120F6E770B5026A036A1024A3430362E8
:102D700044688369164D2B400D682D021D432023A6
:102D80009A438B681B011343124A904209D0124A9E
:102D900090420ED0114A90420BD0114A904210D16D
:102DA00007E0802293431E00CB681B013343403A67
:102DB00093430C4A14404A69920022438C69A40050
:102DC0001443446085614A688263036270BDC046F3
:102DD000FF8CFFFF002C01400040014000440140F7
:102DE00000480140FFF3FFFF70B504000D003C23D5
:102DF000C35C012B00D16AE03C230121C154082AA5
:102E000050D01CD8002A35D0042A16D100682900D9
:102E1000FFF7A8FF2268916980231B010B43936190
:102E2000226893692B490B40936121688B692A6959
:102E3000120213438B61002030E001202EE00C2AA7
:102E400016D100682900FFF7A9FE2268D169802306
:102E50001B010B43D3612268D3691E490B40D36128
:102E60002168CB692A6912021343CB61002015E067
:102E7000012013E000682900FFF704FE226893692F
:102E800008210B4393612268936904398B43936152
:102E90002268936929690B43936100203C23002237
:102EA000E25470BD00682900FFF732FE2268D36942
:102EB00008210B43D3612268D36904398B43D36162
:102EC0002268D36929690B43D3610020E6E7022019
:102ED000E7E7C046FFFBFFFF10B51F2319400124A1
:102EE0008C40036AA3430362036A8A40134303626C
:102EF00010BD000010B50400002932D13E23C35C90
:102F0000013B5A1E9341DBB2002B5ED1002941D117
:102F10003E330222E25420680122FFF7DDFF2368DE
:102F20002C4A934208D02C4A934205D02B4A934214
:102F300002D02B4A934204D1596C802212020A43D8
:102F40005A642368234A934234D0264A934231D0AC
:102F5000214A93422ED01A6801210A431A600020A8
:102F600034E0042908D008290DD04123C35C013B7B
:102F70005A1E9341DBB2C7E73F23C35C013B5A1E95
:102F80009341DBB2C0E74023C35C013B5A1E93412F
:102F9000DBB2B9E7042905D0082907D04123022272
:102FA000E254B8E73F230222E254B4E7402302226E
:102FB000E254B0E7996807220A40062A07D01A6847
:102FC00001210A431A60002000E0012010BD00200A
:102FD000FCE7C046002C0140004001400044014095
:102FE000004801400004004010B53C23C35C012BA5
:102FF00021D03C2201238354CB68104C23408C68A1
:1030000023430F4C23404C6823430E4C23400C6851
:1030100023430D4C23400C6923430C4C23404C6943
:1030200023430B4C2340C9690B4301684B640023C5
:103030008354002010BD0220FCE7C046FFFCFFFFC8
:10304000FFFBFFFFFFF7FFFFFFEFFFFFFFDFFFFFCC
:10305000FFBFFFFF10B5EFF3108C012282F3108841
:1030600001680B68124C23400B608CF31088EFF35F
:10307000108C82F3108801688B6893438B608CF30B
:103080001088036E012B06D080232022C25000231B
:103090000366836610BDEFF3108183F31088026826
:1030A00013683234FF34A343136081F31088EBE7D5
:1030B000DFFEFFFF10B50400836802691343426915
:1030C0001343C269134301680A684E480240134320
:1030D0000B60226853684C490B40E1680B43536016
:1030E000A369226A1A4321688B6848480340134346
:1030F0008B602368464A934211D0464A93421FD0C0
:103100001023E06980221202904223D0042B6AD05F
:103110004ED8002B53D0022B48D13F4853E03F4BB1
:103120001A6B03231340022B0CD005D8002B0BD0B5
:10313000012B0BD10333E4E7032B09D1013BE0E77B
:103140000023DEE70823DCE70023DAE71023D8E7D3
:103150001023D6E7042B26D007D8002B09D0022B4A
:1031600001D12D4809E0012047E0082B05D00120BE
:1031700043E0FEF72BFC002838D0400061684B0884
:10318000C018FCF7AFFF0200103A254B9A422FD827
:1031900082B20F239A434008083B0340134322683E
:1031A000D360002029E0FEF741FBE4E7012024E0A2
:1031B000082B02D18020000205E001201DE0FEF76F
:1031C00005FC002816D061684B081818FCF78AFF28
:1031D0000200103A124B9A420ED823680004000CE9
:1031E000D860002009E0FEF721FBEAE7002004E0B8
:1031F000012002E0002000E001200023A366E36636
:1032000010BDC046F369FFFFFFCFFFFFFFF4FFFFD4
:10321000003801400044004000127A0000100240D3
:10322000EFFF0000436A1B0706D5026853682C496C
:103230000B40416B0B435360436ADB0706D50268C2
:10324000536828490B40816A0B435360436A9B07CC
:1032500006D50268536824490B40C16A0B4353608A
:10326000436A5B0706D50268536820490B40016B2F
:103270000B435360436ADB0606D5026893681C491A
:103280000B40816B0B439360436A9B0606D5026833
:10329000936818490B40C16B0B439360436A5B060C
:1032A0000BD50268536814490B40016C0B43536003
:1032B000026C80235B039A420AD0436A1B0606D540
:1032C000026853680D490B40816C0B435360704793
:1032D000026853680A490B40416C0B435360ECE7AA
:1032E000FF7FFFFFFFFFFDFFFFFFFEFFFFFFFBFF75
:1032F000FFEFFFFFFFDFFFFFFFFFEFFFFFFFF7FF26
:10330000FFFF9FFFF8B5CE46474680B506000D008B
:1033100017009946089B98463368DC692C40641B6B
:1033200063425C41BC4233D143460133F4D0FEF7E3
:1033300031FC4B46C01A40452FD84346002B2ED0B7
:10334000326813685B07E7D5802DE5D0402DE3D0C8
:10335000D3691B0710D4D3691B05DDD580231B015E
:1033600013623000FFF776FE84232022F2500C3BDC
:103370000022F25403200CE0082414623000FFF70E
:1033800069FE8423F4500C3B0022F254012000E03B
:103390000020C0BCB946B046F8BD0320F9E70320C1
:1033A000F7E7F0B5C64600B582B004000D009046C0
:1033B0001E00C36F202B61D1002964D0002A64D085
:1033C000826880235B019A4204D10369002B01D1FA
:1033D000CB075CD484230022E250633BE367FEF713
:1033E000D9FB070050234246E2520233E252A26860
:1033F00080235B019A4202D00023984617E023699C
:10340000002B28D00023984611E02023E3670320F7
:1034100035E043461B882268DB05DB0D138502235C
:103420009C46E0445223E25A013A92B2E2525223BD
:10343000E35A002B12D000963B000022802120008E
:10344000FFF760FF0028E0D1002DE2D02A78236842
:103450001A850135E6E7A8460025E8E700963B0017
:10346000002240212000FFF74DFF002802D1202339
:10347000E36704E02023E367032000E0022002B0BA
:1034800080BCB846F0BD0120F9E70120F7E7012034
:10349000F5E7000030B583B0040084230022C25059
:1034A000FEF778FB050023681B681B070FD4236811
:1034B0001B685B0729D42023E3678022A3500023E5
:1034C00023666366083AA354002003B030BD802110
:1034D000224B00930300002289032000FFF712FF14
:1034E0000028E4D0EFF31081012383F310882268D1
:1034F000136880208343136081F310882023E367DF
:1035000058330022E2547D38DFE78021134B0093CB
:103510002B000022C9032000FFF7F4FE0028CAD0C8
:10352000EFF31080012282F3108821680B680C4DA4
:103530002B400B6080F31088EFF3108082F310882B
:1035400021688B6893438B6080F3108880231F323F
:10355000E250083B0022E2540320B6E7FFFFFF01E0
:10356000DFFEFFFF10B5041E2ED0C36F002B21D04D
:103570002423E3672268136801218B431360636A85
:10358000002B1DD12000FFF795FD012811D02268E6
:1035900053680E490B4053602268936808218B439F
:1035A00093602268136807390B4313602000FFF70C
:1035B00071FF10BD78330022C254FDF7B5FED7E786
:1035C0002000FFF72FFEDDE70120F2E7FFF7FFFF06
:1035D0000D488546FFF730FA0C480D490D4A002387
:1035E00002E0D458C4500433C4188C42F9D30A4AB8
:1035F0000A4C002301E013600432A242FBD300F026
:1036000053F8FDF7D1F8FEE700200020000000206D
:103610005C000020346000085C00002000030020F3
:10362000FEE700000CB430B5174B0C001D689DB0D0
:10363000002908DA8B2301202B6040421DB030BCEA
:1036400008BC02B01847822302A99B008B8100238B
:1036500002904B6608619C4200D0631E8B604B61F8
:1036600001235B42CB81280021AB209A019300F01B
:10367000A5F8431C01DA8B232B60002CDED000223E
:10368000029B1A70DAE7C0460C0000200300821883
:10369000934200D1704719700133F9E7014B186864
:1036A0007047C0460C00002070B500260C4C0D4D34
:1036B000641BA410A64209D1002602F00DFB0A4C9F
:1036C0000A4D641BA410A64205D170BDB300EB588F
:1036D00098470136EEE7B300EB5898470136F2E71A
:1036E0002C6000082C600008306000082C60000886
:1036F00070477047F0B58E6885B01F000C0033002E
:1037000002900392BE4254D80C22885E9022D200CE
:1037100010422CD00322096923685B1A0193636964
:103720005343019ADD0FED187B1C6D109B182A0086
:10373000AB4201D91D001A00400527D5110002989F
:1037400000F062F9061E2AD0019A216900F0C7FB39
:10375000A289194B1A4080231343A381019B266140
:10376000F618266065613E00ED1A3B00A5601F005B
:103770003A000399206800F083FB0020A3689B1B9C
:10378000A3602368DB19236005B0F0BD029800F048
:1037900047FB061EE2D12169029800F0A9FB0C2329
:1037A0000120029A40421360A28934331343A3815B
:1037B000EAE73E00DCE7C0467FFBFFFFF0B59FB0C5
:1037C00002901C008B890E0015001B0611D50B6999
:1037D000002B0ED1402100F017F930603061002835
:1037E00005D10C23029A136001204042D4E040230B
:1037F00073610023292102AA52180B9320331370FE
:10380000013102AA10335218137005942C0023784A
:10381000002B01D0252B48D1671BAC420BD03B00BD
:103820002A0031000298FFF765FF013000D1AEE0B9
:103830000B9BDB190B932378002B00D1A7E001220F
:10384000532100235242079202AA5218651C069384
:103850000993089313701C93554F2978052238005B
:1038600000F032FB6C1C069906AB00281FD1CA067B
:1038700004D55327202202A8C01902700A0704D5D4
:1038800053272B2202A8C01902702A782A2A15D0A1
:103890002C0000200A27DA682178651C30390929B4
:1038A00050D9002811D009920FE00134AFE701236D
:1038B000C01B83400B4325000693CDE7059A101DDE
:1038C00012680590002A37DBDA6022782E2A0CD1A4
:1038D00062782A2A3BD1059A0234111D126805919B
:1038E000002A01DA012252425A60324D0322280096
:1038F000217800F0E9FA06AF002806D04023401BEB
:103900008340069A013413430693217806222A48FD
:10391000651C397600F0D8FA00283FD0274B002BE1
:1039200029D10722059B07339343083305930B9B4B
:1039300003995B180B9369E75242DA6002220A434B
:103940000692C2E77A432C0001205218A4E7002215
:103950000A205A601100130001342278651C303AA5
:10396000092A03D9002BC0D00791BEE741432C00A0
:1039700001238918F1E705AA009239003200104BA3
:10398000029800E000BF0390039B0133CFD1B389BD
:103990000B985B0600D527E71FB0F0BD05AA009283
:1039A00039003200064B029800F01EF9EBE7C046E2
:1039B0003C5F0008425F0008465F0008000000000E
:1039C000F536000870B50F4E0D003168040000296F
:1039D00002D100F067FA30602900200000F062FA9E
:1039E000431C03D101256D42280070BD0323C51C73
:1039F0009D43A842F8D0291A200000F053FA013064
:103A0000F2D1EFE7F4020020F7B50322CB1C934379
:103A1000083305001F000C2B34D20C27B94233D8D1
:103A2000280000F0EDF9374E33681C00002C2FD130
:103A300039002800FFF7C6FF0400431C5FD134683B
:103A40000094009B002B4AD1002C52D02368280000
:103A5000E3180099019300F025FA019B834248D1B5
:103A600023682800FF1A3900FFF7ACFF013040D06F
:103A70002368DB19236033685A68002A33D1009B1E
:103A8000336019E0002BC9DA0C232B600020FEBD47
:103A90002168C91B20D40B290AD9E2192760A34247
:103AA00004D1326063681160536005E05A60F9E741
:103AB0006268A3420ED13260280000F0A9F920000C
:103AC00007220B30231D9043C21A9842DFD01B1AE5
:103AD000A350DCE75A60EFE723006468A6E7009C88
:103AE00063680093ADE71A005B68A342FBD1002333
:103AF000DAE70C2328002B6000F08AF9C6E707609C
:103B0000DAE7C046F8020020F7B5160001938A688C
:103B10000B690C000090934200DA1300220033601E
:103B200043321278002A01D00133336023689B06A8
:103B300002D53368023333602268062315001D4026
:103B40001A4227D0230043331B785A1E9341226820
:103B5000920630D4220001990098089D4332A8476C
:103B6000013025D00622236800251340042B05D1FF
:103B70003368E568ED1AEB43DB171D40A368226943
:103B8000934201DD9B1AED180026B54220D100209A
:103B900010E00135E36832689B1AAB42D2DD2200A7
:103BA000012301990098089F1932B8470130F0D1DC
:103BB00001204042FEBD3020E11843310870210051
:103BC0005A1C45310978A218433202331170C1E7FB
:103BD0002200012301990098089F1A32B84701304A
:103BE000E6D00136D1E70000F0B58BB006920A00AE
:103BF00043320793059003920A7E0C00109B782AAB
:103C000009D8622A0BD8002A00D1BAE07A49049177
:103C1000582A00D18EE0250042352A7022E010009B
:103C200063381528F7D8FCF753FA16001F00F6FF83
:103C3000F6FFF6FFF6FF1F00F6FFF6FFF6FFF6FFB2
:103C40009F0036007E00F6FFF6FFB000F6FF36005C
:103C5000F6FFF6FF820025001A684235111D196033
:103C600013682B7001239EE018680968021D0D0679
:103C70000BD506681A60002E03DA2D23039A7642CC
:103C800013705D4B0A27049318E006681A60490612
:103C9000F1D536B2EFE70868196840C9050602D4C5
:103CA000400600D5B6B21960534B0A2704936F2A19
:103CB00000D1023F2300002243331A706368A360DF
:103CC000002B06DB04212268039D8A4322603343D4
:103CD0000CD0039D30003900FCF78AFA049B013DAB
:103CE0005B5C2B70330006009F42F3D9082F09D18B
:103CF0002368DB0706D5626823699A4202DC302319
:103D0000013D2B70039B5B1B2361079B21000093EC
:103D10000598069B09AAFFF7F7FE013048D101205C
:103D200040420BB0F0BD202209680A43226078228D
:103D300032490491210045310A701968226840C94E
:103D4000100602D4500600D5B6B21960D30702D5CA
:103D5000202313432360002E01D01027AAE720223E
:103D6000236893432360F8E71A680D68101D4969BA
:103D7000186013682E0601D5196002E06D06FBD5A8
:103D800019800023039D2361BFE71A68111D196084
:103D9000156800212800626800F096F8002801D01C
:103DA000401B6060636823610023039A1370ACE7D3
:103DB0002A00236906990598079DA8470130AED0CF
:103DC00023689B0715D4099BE0689842A9DA18007C
:103DD000A7E72200012306990598079E1932B047EC
:103DE00001309CD00135E368099A9B1AAB42F0DCA4
:103DF000E9E70025F7E7C0464D5F00085E5F000871
:103E000010B50248FFF774FC10BDC046F002002058
:103E100010B50248FFF76DFC10BDC046F00200204F
:103E2000F7B506000C001500002905D11100FFF7B9
:103E3000EBFD04002000FEBD002A03D100F058F87D
:103E40002C00F7E700F09EF80700854202D84308EF
:103E5000AB42EFD329003000FFF7D6FD01900028D8
:103E600001D1019CE6E72A00BD4200D93A002100B9
:103E7000019800F034F82100300000F039F8F0E744
:103E800010B5884202D98B18984208D300239A4271
:103E900007D0CC5CC4540133F9E78B5C8354013AFE
:103EA000FBD210BD002370B5064D040008002B6046
:103EB000FEF7C4FD431C03D12B68002B00D0236008
:103EC00070BDC046FC020020C9B28218904201D1E8
:103ED0000020704703788B42FBD00130F6E70023C7
:103EE00010B59A4200D110BDCC5CC4540133F8E740
:103EF00070B505000C1E10D0043C2368002B00DABE
:103F0000E4182800FFF77CFF1D4A1368002B05D139
:103F1000636014602800FFF77BFF70BDA34208D9DF
:103F2000206821188B42F3D119685B680918216059
:103F3000EEE71A005B68002B01D0A342F9D91168A3
:103F40005018A0420BD12068091850181160834204
:103F5000E0D118685B68411811605360DAE7A0424D
:103F600002D90C232B60D5E7206821188B4203D19E
:103F700019685B680918216063605460CAE7C0462D
:103F8000F80200200B1F1B68181F002B01DA0B58CA
:103F9000C018704770B500220C4B04000D00FCF7F0
:103FA0004BFA002804D12000290001F007FD70BD64
:103FB000064B00222000290001F0C8F801F0FEFCA9
:103FC00080231B069C466044F1E7C0460000E041A8
:103FD000F0B546464F46D6464502C0B5C30F47002A
:103FE00098460E1C6D0A3F0E5BD0FF2F21D0802318
:103FF000ED00DB041D43002399469A467F3F74027F
:104000007300640A1B0EF60F002B20D0FF2B43D049
:1040100080220020E400D20414437F3B4246FF1A72
:104020004B4672400F2B00D99DE071499B00CB5845
:104030009F46002D5AD108239946063B74029A46A2
:104040007300FF27640A1B0EF60F002BDED1002C35
:104050003BD1012342464946724019430E2918D8E4
:104060006448890041588F465346022B00D1B8E07E
:10407000032B6ED042462C00012B40D1002000249F
:10408000C0052043D2071043E0BCBA46B146A8465B
:10409000F0BDFF200024F3E7002C20D10223FF3FD6
:1040A000D8E7002D05D104239946033B00279A4603
:1040B000A5E72800FCF7CAF97627431F9D40002397
:1040C0007F4299469A463F1A99E72000FCF7BEF9CD
:1040D000431F9C4076235B421B1A00209EE703236C
:1040E0004A461A4391460320FC3397E70C2399462E
:1040F000093BFF279A4682E703282CD0320038007C
:104100007F30002847DD630704D00F232340042BB2
:1041100000D00434230103D53800374B80301C40D5
:10412000FE28B6DCA401640AC0B2A9E780240022FC
:10413000FF20E403A4E78023DB031D4201D01C42DF
:104140000BD08024E4032C4364024246FF20640A1F
:1041500096E746462C008023DB031C4364023200B2
:10416000FF20640A8CE76D01600185422DD21B237C
:104170000024013F0126290064006D00002901DBB5
:10418000854201D32D1A3443013B002BF3D16B1E22
:104190009D412C43B3E701231B1A1B2B00DD6DE768
:1041A00021009E37D940BC400B00611E8C41234347
:1041B000590704D00F211940042900D004335901B4
:1041C00013D49B0100205C0A5AE71A2301242D1AFC
:1041D000D0E7981E43425841404232000024C0B20A
:1041E0004EE74246FF2000244AE70120002447E72B
:1041F000705F0008B05F0008FFFFFFF7F0B54F46A3
:104200004646D6464502C0B546000F1C6D0A360E1E
:10421000C40F002E00D1CDE0FF2E72D08023ED0020
:10422000DB041D43002399469A467F3E7B025B0ACE
:1042300098467B001B0EFF0F002B72D0FF2B00D186
:10424000A9E07F3BF6184B460A2B00DD85E043468C
:104250008022DB00D2041A434B4690467C40002269
:10426000022B0FDD494601238B40A621C9000B42DA
:1042700000D072E0902189000B4200D0DAE0882162
:10428000194267D1280C42462D042D0C43462900C3
:1042900012041B0C120C51435D4342435843AD18AA
:1042A0000B0C5B199A4203D9802252029446604457
:1042B00009041A04090C52189501691E8D411B0C42
:1042C000920E1B1815439B011D431B0100D5CFE027
:1042D00030007F30002800DCB1E06B070BD00F23EB
:1042E00032002B40042B06D004352B0103D580323D
:1042F00010006A4B1D40FE2864DCAB015B0AC0B2B3
:104300001FE0002D00D08FE008239946063B9A4617
:104310007B025B0A98467B00FF261B0EFF0F002BDB
:104320008CD14346002B5CD14A4601331A43914657
:1043300013000A2A11DC01227C40022B92DC0020AF
:104340000023C0051843E4072043E0BCBA46B14649
:10435000A846F0BD3C00454692465346022B31D05C
:10436000032B11D0012BEAD030008030721C0028C2
:1043700066DD6B07B9D00F232B40042BB4D1B4E713
:104380000F2A7AD03C0045468023DB032B435B0297
:10439000FF205B0AD5E74346FF36002B34D14A465F
:1043A000023313430A2BD8DC7C40002A0AD09946FA
:1043B000022257E7002D08D104239946033B00262B
:1043C0009A4633E7FF200023BBE72800FCF73EF8BE
:1043D0007626431F9D400023764299469A46361A18
:1043E00024E74046FCF732F84B46361A763E0A2B55
:1043F000B3DC43460538834098464B4600227C4058
:10440000022B00DD2EE73DE703234A461A43130043
:104410000A2AB5DC01229A40882113007C4003223D
:10442000194200D12EE795E70C239946093BFF2658
:104430009A46FBE680230024FF20DB0381E732005D
:1044400001231B1A1B2B00DD79E79E3229009540C2
:10445000D9406A1E95410D436B0704D00F232B40B2
:10446000042B00D004356B0113D50120002368E72D
:1044700001236A081D40154376E78023DB031D42B4
:1044800082D042461A4200D07EE73C00FF20134310
:1044900057E7AB0100205B0A53E7C046FFFFFFF779
:1044A00041024200C30F490A0020120E7E2A03DD9A
:1044B0009D2A02DD094A98187047802000040143B4
:1044C000952A07DC9620821AD1404842002BF3D16E
:1044D0000800F1E7963A9140F7E7C046FFFFFF7FFB
:1044E00070B5002812D0C317C5185D40C40F28004E
:1044F000FBF7ACFF9E231B1A962B0FDC082838D045
:10450000083885406D026D0AD8B202E00024002010
:104510000025C0052843E407204370BD992B14DC17
:10452000421F95402A001549114055071CD00F2500
:104530002A40042A18D00431CA08490115D59F23FE
:104540005202181A550AC0B2E3E7020029001B32D2
:1045500091404A1E91410522121AD5402A000A4371
:10456000064911405507E2D1CA085202550AD8B28D
:10457000CFE76D026D0A8E30CBE7C046FFFFFFFB31
:10458000F0B5DE46454657464E46E0B587B0009248
:1045900001930B031B0B9B46CA0F4B000400804684
:1045A0005B0D029200D1BFE08F4A934238D059464A
:1045B000420FC9000A43802109041143C2009046FA
:1045C0008A4A894692469A44002300240393009E17
:1045D000019F3B031B0B7A0030009B46520DFD0FE1
:1045E000002A00D17FE0804B9A426ED05946730F6B
:1045F000C9000B438021090419438B467B49F30012
:104600008C46514662448A1A92460021029E6E40B0
:10461000F6B20F2C00D9F9E0754AA400125997465A
:104620005A460243914600D0B6E09A46022390468D
:1046300008240393CBE72E000021002300228846A4
:104640001B051343F60733434046190007B0F0BC7F
:10465000BB46B246A946A046F0BDCB464346029DA6
:104660000399022900D1FAE1032900D1A1E001292F
:10467000E1D0604A524490464446002C00DC00E2FF
:104680005A0704D00F221A40042A00D07FE22E00DD
:10469000DA085B46DB0106D55946574B80241940A2
:1046A0008B46E4005444554B9C4209DC5B465B0757
:1046B000134398465B4664055A02120B630DBFE72D
:1046C000002100228846484BBAE75B46009A134314
:1046D0004B4A9446E244002B59D102221443002253
:1046E0000221934692E75B46009A134349D05B460A
:1046F000002B00D1A4E15846FBF7A8FE03000200FE
:104700000B3B1D27009EFB1A11005846DE4008395E
:104710008840330003439B46009B8B4039495244F9
:104720008A460021924471E75B460343994621D0B3
:104730005B46002B00D171E15846FBF787FE0B2347
:104740005B429C460200844466461D239B1B260058
:1047500011005846DE40083988403300034399462B
:1047600023008B409846284B00249B1A9A4600232E
:1047700003932CE7002398469A46013304240393BD
:1047800025E7012214430022012193463EE703233B
:1047900003211C43330039E79A460323D9460C24EE
:1047A000039314E700238022984600260E4B120341
:1047B00046E78022594612030A43120398462E0008
:1047C000094B120B3CE7802249461203114202D0EA
:1047D00059461142F0D080224B4612031A4312036D
:1047E000029E014B120B2BE7FF07000001FCFFFFAD
:1047F000EC5F0008FF030000FFFFFFFEFE07000064
:1048000001F8FFFFF30300000DFCFFFFCB4500D2D2
:10481000FAE000D1F5E001225242944600224446DB
:1048200048469046E2445A461F0E12021B0202936B
:10483000130C994617433B041B0C49460093FBF7A6
:10484000D7FC009A0B044243210C050019438A420D
:1048500007D9C919013D8F4203D88A4201D9851E63
:10486000C919881A4946FBF7C3FC009A240442433D
:104870000904240C03000C43A24204D9E419013BAF
:10488000A74200D8F7E00299A01A2D040C0C0904E5
:104890001D43090C2A0C2B04AB460D001B0C5D4379
:1048A000059163435143049462435B182C0CE31855
:1048B000994203D9802149028C466244190C2D0487
:1048C0001B042D0C8A185D19904200D287E000D19C
:1048D00082E043465D1BA8459B41801A5B42C01A9B
:1048E000B14B534498461C00874200D10CE1494625
:1048F000FBF77EFC0200009B03905A430B04290C3B
:1049000019438A420AD90300C919013B03938F4214
:1049100004D88A4202D9831E0393C919881A4946CA
:10492000FBF766FC0A00120494462A0465460099C7
:10493000120C414303002A43914207D9D21901388E
:10494000974203D8914201D9981ED219039B521A5B
:104950001B0403430598190C05008C461904090C27
:104960004D438946614600956546484304994D4349
:10497000AC464D464D432918009D2D0CA94649448F
:10498000884203D9802040028146CC44009D080C17
:104990002D0409042D0C60444D1982420FD30BD015
:1049A00001221343814A92456CDB1A1D9A429B41B6
:1049B0005B42D2089B446CE6002D00D193E0591E67
:1049C000BA188C46BA4200D285E0824200D2C7E0D3
:1049D00000D1D5E00B00E3E7A84500D379E75B46BB
:1049E000591E029B9C46E0441C0098459B415B423B
:1049F000DB19C018874238D2824278D875D08B46EE
:104A000067E7434500D906E74A46D40750084246BF
:104A1000520814434246D207904604E7FBF716FDBE
:104A200015239C4684440200634620321C2B00DC84
:104A30008AE623000838834099460023984692E688
:104A4000FBF704FD03000200153320321C2B00DCB1
:104A500057E600990838814000238B465EE6002126
:104A60002E0000228846524BEAE58742C7D14445D2
:104A7000C2D98B462DE7A24200D804E7831EE41971
:104A800001E72E0001224146521A382A00DDD3E503
:104A90001F2A3FDC47481C00504459468340814050
:104AA000D440581E834121430B435946D1400A004C
:104AB000590709D00F211940042905D0191D994221
:104AC0009B415B42D2180B00110268D500210123E3
:104AD00000228846B4E50B00824200D060E7029ACB
:104AE000954200D05CE73500C6E5454587D90223ED
:104AF0005B429C46029BE3449C46E04498459B41B4
:104B00005B42DB19C018E4E6002B36DD01230022EE
:104B10009B44BEE51F2140464942091A5846C840F9
:104B20000100202A04D05846234A524490400343AF
:104B30005A1E934107200B430100002219401842DE
:104B400009D00F21194004291FD0181D984289410E
:104B5000030049424907DB080B43984600236FE5F1
:104B60000299023B49008C4602998C458941494291
:104B7000C919521861460291AEE701235B4281E7F1
:104B80000299A942ECD36346A9E70021E3E71A1D85
:104B90009A429B415B422E00D2089B4479E5510723
:104BA0005202120BD7E7C046FF03000002FCFFFFD2
:104BB000FF0700001E0400003E040000F0B5574649
:104BC0004E464546DE46E0B51F000B031B0B1600A4
:104BD0009846CA0F4B000400924685B05B0D00D189
:104BE000C2E1CC4A934200D128E14146420FC900BC
:104BF0000A43802109041143C2009146C64A8846EF
:104C000093469B440023002501933C037A00FB0F4D
:104C10003000240B520D009300D185E1BD4B9A4228
:104C200000D160E1BC4B9C46624493440A2D00DDF8
:104C300014E1730FE4001C4380231B042343F000A2
:104C40005246009900264A409246022D11DD01226B
:104C5000AA40A6211400C9000C400A4200D0FDE081
:104C6000902189000A4200D0D4E18821114200D06D
:104C7000EFE049464A460904140C090C020C0F00E7
:104C800015000004000C654347430195B9462F0009
:104C90000D0006005543AC464D4666432D0CB4440A
:104CA0006544AE4205D93E0080277F02BC4666447B
:104CB00001964F463F043F0C2E0C2D04ED19029532
:104CC0001D0C1B041B0C00951D001F0065434F436A
:104CD000AC46009D69436C433D0CA9466144494480
:104CE0008C4503D980256D02AC4664443F040D0C0D
:104CF0003F0C0904C919AC467518039545462E04A6
:104D0000360C2F0C35004543784380463800644408
:104D1000AC462D0CA9465043724342444A44904548
:104D200003D980256D02A8464044150CA846654667
:104D30002D042D0CAC4635005D4312046244AC4694
:104D40007B43009D404498462B006E4365467B4361
:104D500046442D0CAD191F000093A84504D98023AB
:104D60005B02984647440097039B019E98462B049C
:104D70004644984663468E4289411B041B0C4344BB
:104D8000B61849421B195F1896429241BC465242DE
:104D9000804691468C458941A3429B41E044C144F1
:104DA00049425B42914592410B43804589412D0C1C
:104DB000494252420A435B199B18009A0299944651
:104DC0004A4663445B02D20D1A43904672020A437C
:104DD000511E8A41F60D16434A4652021643B14609
:104DE000DB0154D44D4A5A44002A00DC18E1330058
:104DF0005B0715D00F215B463140042910D049468E
:104E0000081D484589418146494288444146C901B7
:104E100006D54146424A114080228846D2009A185F
:104E2000404B9A4200DD2BE141464B464C07DB08E4
:104E30001C4352054B021B0B520D1AE04246024323
:104E4000914600D0E0E09B4602239046082501935E
:104E5000DBE6009A9846924681460196019B022B1A
:104E600000D10DE1032B35D0012B1BD100220023F3
:104E7000002412051A435346DB071A432000110091
:104E800005B0F0BCBB46B246A946A046F0BD012223
:104E90007308324013434246D207134399464346B0
:104EA0005B08984680225B46D2005A440133002AB0
:104EB00000DCB6E049464907A8D00F21484601402A
:104EC00004299CD1A2E70F2D00D1FDE0009BA04654
:104ED0009A46B146802342461B0313431B034C46AC
:104EE0000C4A1B0BC5E70B4933008C462343E344B4
:104EF000002B77D1022129430A29AFDC5046009CC0
:104F000060408246002D00D10EE10D0000200226F7
:104F10009DE6C046FF07000001FCFFFFFF03000005
:104F2000FFFFFFFEFE070000230033434BD0002CA1
:104F300000D1BBE02000FBF789FA030002000B3B25
:104F40001D20C31A3000D84011000300300008397A
:104F50008C408840234359468A1A78498B469344AB
:104F60000A2D00DC6CE679E743460343994623D0DB
:104F70004346002B00D187E04046FBF767FA0B233E
:104F80005B429C4602008444110040460839884038
:104F90001D23804660461B1A2000D840030040466F
:104FA0000343984623008B409946644B00259B1A87
:104FB0009B460023019328E6002398469B46013335
:104FC0000425019321E6012215430A2D00DD45E762
:104FD000524600994A409246022D00DC46E70020E6
:104FE000012634E603231D430A2D00DD6BE75346FB
:104FF000009A882153400122AA409A4603262300A2
:10500000114200D135E624E79B46032381460C2557
:105010000193FAE500239A468023494A1B0328E7B7
:105020005B460121891A382900DD1FE71F295ADD57
:105030001F204042821A4046D040202908D0414AD1
:105040009446424663449A4013004A461A439146A6
:105050004A460721531E9A410C0002430023144084
:10506000114209D008311140042960D0111D91422C
:10507000A4410A0064426407D20814430022F8E6FF
:10508000002300242E4AF4E6FBF7E0F915239C46A2
:1050900084440200634620321C2B00DC74E70023AA
:1050A000994623000838834098467EE7FBF7CEF9FF
:1050B00003000200153320321C2B00DC40E73300D4
:1050C00008388340002046E7802342461B031A42EB
:1050D00000D1FFE61C4200D0FCE6009A2343924632
:1050E0003400174AC5E6184A404694464A46634487
:1050F0009840CA4010434A469A40531E9A4143463C
:105100000243CB40510709D00F211140042905D09B
:10511000111D9142924152429B180A00190208D572
:10512000012200230024A4E600230024A1E6002499
:10513000A2E75C075B021B0B9EE7C0460DFCFFFF6E
:10514000FF0700003E0400001E040000F0B54E46BC
:105150004546DE465746E0B583B0009001910D0309
:105160004E000199760DCC0F690A009D6D0F0D431D
:10517000009900920193C8001903019BCB4A5B0080
:105180005B0D9946019B8346DB0F98464B0A0099BD
:10519000490F1943009BDB009C469A46914500D17C
:1051A00073E0012347465F404B46B846F31ABC42C2
:1051B00016D0002B00DC9AE24F46002F00D082E090
:1051C00067460F4300D13AE15F1E012B00D1A4E2F4
:1051D000934200D12EE1382F00DD43E23B003EE157
:1051E000002B00DCD7E24F46002F00D0F8E06746E6
:1051F0000F4300D123E15F1E012B00D157E2934200
:1052000000D117E1382F00DC04E38022120415429C
:1052100000D1AAE31E0015000027A44B01369E42D0
:1052200000D103E10122A24B3A401D40790811430D
:10523000EA070A436D08530709D00F231340042BD4
:1052400005D017003A1DBA42BF417F42ED192B022B
:1052500000D477E3954901368E4200D1E6E09449C7
:1052600073050D405B0D6907D2086D020A432D0BD3
:105270001B052B43E40723431000190003B0F0BCC7
:10528000BB46B246A946A046F0BD8A4BF21863461B
:105290000B434CD0444550D0002A6CD0002E00D196
:1052A0007DE1634644464F07DA081743C8083A00D1
:1052B000024300D1CDE080252D0305432D033A00A4
:1052C0007A4B2D0BD4E7964200D1B3E0382B00DCAB
:1052D000C2E0471EB842804140422D1A2B02B1D590
:1052E0000127754D7F422800FBF7B0F808382023CE
:1052F00039001A1A8540D14087402943B04200DA6C
:1053000045E1801B01301B1A3D009F40C5407A1EBD
:1053100097410A009A402F433A43C14013000D00C1
:1053200000260B4300D086E700220025A0E7474671
:1053300001235F40B8464445AED1002A00D1EFE0DA
:10534000002E00D088E14B462A00024300D1A0E2A3
:105350005A1E012B00D1B7E2544EB34200D17BE17B
:10536000382A00DC12E380252D04294200D112E303
:105370001E00002751E7514A731C134200D0F4E08D
:1053800062462B000A430343002E00D074E1002B39
:1053900000D123E2002A00D1E0E06346C71AB842F8
:1053A000924180266B1A52429B1A3604334200D136
:1053B000C1E26346181A844592414D1B5242AD1A10
:1053C0000124020043462A431C40002A00D1DBE0AE
:1053D000354200D1E9E2364B02001D40012342E78D
:1053E000964227D0382B00DD11E1802212041143B0
:1053F0001F2B00DDA1E120220F00D21A9146974019
:105400006246DA401743B84662464F46BA40D94032
:10541000571EBA4147466D1817433F1887428041CF
:1054200040422D182B0200D5F7E634E0330000256A
:1054300000221DE7C0086F070743E80837E7C708E1
:105440006A071743194AE808934200D12FE73A0048
:10545000D8E0164B00250BE78022120411431F2BC6
:1054600000DDB7E020220F00D21A91469740624635
:10547000DA401743B84662464F46BA40D940571EF5
:10548000BA4147466D1A1743C71BB8428041404294
:105490002D1A2B0216D47B0700D179E20F233B4053
:1054A000042B00D0CEE63300FF08C9E7FF07000059
:1054B000FFFF7FFF01F8FFFFFFFF7F00FE070000F7
:1054C000444601266D026D0A002D00D00BE738001E
:1054D000FAF7BCFF030018301F2800DC07E739008B
:1054E000083B9940864200DD87E0831B581C1F283B
:1054F00000DC14E20A001F3BDA40202805D04023DC
:105500001B1A99404B1E99410A43002A3CD00026A1
:10551000530700D091E6170035003300FF088FE7EE
:10552000CA4A731C13427AD12B000343002E00D0C9
:1055300092E162460A43002B00D1F4E1002A0DD02B
:105540006346C718874280416D1840422D182B02D0
:1055500000D512E23A00BB462A4315D05B466A07E3
:10556000DF083A430023E8084CE06346C71AB84214
:1055700092416B1A52429B1A1A0200D587E03A00F8
:105580001D001A43A0D100240023002570E6B04D71
:10559000361A0D407B0700D080E7330084E74B4686
:1055A0002A0002437ED05A1E012B00D11FE1A94CD4
:1055B000A34200D198E1382A00DC9CE16246571EE4
:1055C000BC45924152428D1A44461E002A0200D523
:1055D00086E637E61A000F00203AD740B846202B5F
:1055E00005D04022D31A994063460B439A4657464A
:1055F0007B1E9F4143461F4346E7954A331A11409D
:105600004A07C80805035B052D0B5B0D30E68023B8
:105610001B041D4200D1FBE01D000027FDE58D4A63
:10562000934200D103E762468218824280416918A2
:1056300040420818C707520817434508520700D4CC
:10564000AEE10F221E003A40042A00D0FAE5FF081E
:105650006A073A430009D5E763464F07DA0817435C
:10566000C80824E6471EB842804140422D1A1E0059
:105670002A0200D534E6E5E5002B00D00DE1002A32
:1056800000D069E180250024724B2D03F0E56346CC
:105690001F1ABC459241012443464D1B5242AD1A8C
:1056A0001C4011E7624644460D00D708C8E6634631
:1056B000C618864280416918404209180B0200D47E
:1056C0000CE1634B70081940CB0703434A084007BD
:1056D00000D43BE10F201840042800D136E11F1D03
:1056E0009F42AD416D420223AD18FF08A8E6002B92
:1056F00000D140E64B469B1B002E00D150E7382BD3
:105700002EDD63465F1EBC45924152428D1A4446CF
:105710004E462B0200D5E3E594E56346C71AB8422E
:1057200080416D1A40422D1A2B0200D5C9E66A0746
:10573000FF0801233A43E80864E71A000F00203A03
:10574000D740B846202B05D04022D31A9940634653
:105750000B439A4657467B1E9F4143461F435CE6D8
:1057600080223C00120415431F2B26DC20222F0030
:10577000D21A060090409740DE40421E9041DD4024
:1057800037430743491B6346DF1BBC4592415242E6
:105790004E468D1A7DE6002B00D1C1E64B469B1B81
:1057A000002E00D1D0E5382B36DD80252D0429428E
:1057B00000D1DDE04E4600272FE51A002E00203AEA
:1057C000D640202B05D04022D31A9D402F000743FE
:1057D000BB465F467B1E9F413743D4E7002A00D17A
:1057E000D1E6012443460D00E3461C40B6E663467D
:1057F0001F1ABC4592414D1B5242AD1A2B0200D5D7
:105800005EE66A07FF08444601233A43E808F9E6E2
:10581000471C17E53B00EBE58022120415431F2BC4
:105820006CDC20222F00D21A060090409740DE4008
:10583000421E9041DD40374307434919674467459D
:10584000924152424E465518ECE5C046FE07000014
:10585000FFFF7FFFFF070000002B00D1FCE6C70819
:105860006B071F436346E8080B4300D11FE5802305
:105870001B03184207D0CA081A4204D1634610001D
:10588000DF0849070F437B0FFF00FF085B071F433B
:105890000DE562460D00D708D2E5C7086B071F4328
:1058A000E808002A00D102E580231B031842EAD051
:1058B000CA081A42E7D163460124DF084346490774
:1058C00010000F431C40DEE76044604592416918B8
:1058D0005242891806000B0200D5F2E64A07F60884
:1058E00001233243C8088DE66346DF084B07444670
:1058F0001F43C808DBE44446130035E71A002E00B6
:10590000203AD640202B05D04022D31A9D402F00AC
:105910000743BB465F467B1E9F4137438EE72023EC
:1059200000271B1AF5E40023002A00D192E5674600
:105930000D00FF0884E53A001A4300D123E61D005C
:10594000BB460BE617003300FF0879E5DB0852077A
:105950001A430809022355E663460124DA08434640
:105960004F071743C8081C40A1E41E00471C69E408
:1059700067460D004E46013764E40F4BFF081D409B
:105980006A076D0201233A432D0B71E4130046E7C9
:105990003300FF0854E567460D001E00013751E44F
:1059A0006A07FF083A4300092CE6C0086A07024369
:1059B0000023E80826E6C046FFFF7FFF0B00020039
:1059C00070B5164D0C0382B049000020009201937F
:1059D000240B490DDE0FA94204DD1148814203DD8D
:1059E000104BF01802B070BD8020400320430E4CD5
:1059F000641A1F2C08DD0D4B5B1AD8400300584277
:105A0000002EEFD11800EDE7094B009A9C460300E9
:105A100061448B40E2401343F1E7C046FE030000BF
:105A20001D040000FFFFFF7F33040000130400008B
:105A3000EDFBFFFF70B5002816D0C317C5185D40F9
:105A4000C40F2800FAF702FD104B1B1A5B055B0D13
:105A50000A2814DC02002E00153296400B22121A7E
:105A6000D5402D032D0B03E0002400230025002644
:105A70001B052B43E40723433000190070BD0B388E
:105A800085402D0300262D0BF2E7C0461E040000C2
:105A9000F0B55746DE464E464546E0B50D000400DB
:105AA000E80F83460903D80F090B82461A488C4633
:105AB0001F0369005E00490D3F0B760D81421AD02D
:105AC000864211D00120B1420FD1BC450DD1A24276
:105AD0000BD1D3451ED0002907D1614611430A00DE
