:020000040800F2
:1000000000200020111C00080B0500080D05000849
:1000100000000000000000000000000000000000E0
:100020000000000000000000000000000F050008B4
:100030000000000000000000110500081305000882
:10004000611C000800000000611C0008611C000821
:10005000611C00081B050008611C00082B05000836
:1000600000000000611C0008611C0008611C000801
:10007000611C0008611C0008611C000800000000F1
:10008000611C0008611C000800000000611C0008E1
:10009000611C0008611C0008611C0008611C00084C
:1000A000611C0008611C0008611C0008611C00083C
:1000B000611C0008000000000000000000000000BB
:1000C000002243088B4274D303098B425FD3030A97
:1000D0008B4244D3030B8B4228D3030C8B420DD3AA
:1000E000FF22090212BA030C8B4202D31212090238
:1000F00065D0030B8B4219D300E0090AC30B8B4276
:1001000001D3CB03C01A5241830B8B4201D38B0323
:10011000C01A5241430B8B4201D34B03C01A5241C8
:10012000030B8B4201D30B03C01A5241C30A8B420B
:1001300001D3CB02C01A5241830A8B4201D38B02F6
:10014000C01A5241430A8B4201D34B02C01A52419A
:10015000030A8B4201D30B02C01A5241CDD2C3090C
:100160008B4201D3CB01C01A524183098B4201D388
:100170008B01C01A524143098B4201D34B01C01A73
:10018000524103098B4201D30B01C01A5241C308EB
:100190008B4201D3CB00C01A524183088B4201D35A
:1001A0008B00C01A524143088B4201D34B00C01A46
:1001B0005241411A00D20146524110467047FFE7B2
:1001C00001B5002000F006F802BDC0460029F7D0B6
:1001D00076E770477047C0460448054B10B5834228
:1001E00003D0044B002B00D0984710BD0C0000201A
:1001F0000C0000200000000006480749091A8B1077
:10020000C90FC91810B5491003D0044B002B00D0FA
:10021000984710BD0C0000200C00002000000000DA
:1002200010B5074C2378002B09D1FFF7D5FF054BFC
:10023000002B02D0044800E000BF0123237010BD52
:100240000C00002000000000BC1C0008054B10B58D
:10025000002B03D00449054800E000BFFFF7CCFFA6
:1002600010BDC0460000000010000020BC1C0008AB
:10027000F0B5C64600B588B003AC142200212000BA
:1002800001F0EFFC2B4B5A698021C9030A435A61E4
:100290005A690A400092009A5A69802189020A43E9
:1002A0005A615A690A400192019A5A698021C90229
:1002B0000A435A615B690B400293029B80239B01B6
:1002C00098461D4E00221900300000F083FF0323E2
:1002D000039388277F03049700250595902021002C
:1002E000C00500F0B3FE4346039301230493059534
:1002F00006952100300000F0A9FE20230393049707
:1003000005952100300000F0A1FE0022002105200B
:1003100000F0C2FF052000F0C3FF002200210720EB
:1003200000F0BAFF072000F0BBFF08B080BCB84661
:10033000F0BDC046001002400004004872B6FEE75F
:1003400010B51248124B0360124B436000238360C8
:100350000122C260036143618361C361036200F0F3
:10036000B1FD00280CD10948002100F019FE002839
:1003700008D10648002100F03FFE002804D110BD3E
:10038000FFF7DCFFFFF7DAFFFFF7D8FFF8000020E8
:10039000005400402B1D200000B591B01C2200210C
:1003A00009A801F05EFC2022002101A801F059FCFF
:1003B0002048214B03600023436083601F4AC260D2
:1003C00003614361836101F095F8002829D1194840
:1003D00001F0BCF8002826D109A960230993002365
:1003E0004B608B60CB600B614B618B6111480022CD
:1003F00001F01AF9002818D101A9002301934B60DC
:100400008B60CB600B61802292014A61CB6109480D
:1004100001F082F900280AD1064800F0EDF811B089
:1004200000BDFFF78BFFFFF789FFFFF787FFFFF79F
:1004300085FFC046B000002000440140FFFF0000DF
:1004400010B50B480B4B036096231B02436000233F
:100450008360C36003610C2242618361C3610362F4
:10046000436201F09FFB002800D110BDFFF766FF3B
:10047000280000200038014010B594B008AC3022AC
:100480000021200001F0EDFB1022002104A801F062
:10049000E8FB10220021684601F0E3FB02230893E9
:1004A000013B0B930F330C93200000F003F900285D
:1004B00017D104A807230493002343608360C3601B
:1004C000002100F075FB00280DD168462123009320
:1004D00000230293039300F01BFC002805D114B005
:1004E00010BDFFF72BFFFFF729FFFFF727FF10B520
:1004F00000F0C6FCFFF7C0FFFFF7BAFEFFF720FFD2
:10050000FFF74AFFFFF79CFFFEE7FEE7FEE77047B5
:10051000704710B500F0C4FC10BD10B5012000F00C
:1005200061FE022000F05EFE10BD10B5202000F03C
:1005300059FE10BD82B00A4B99690122114399619D
:1005400099690A400092009ADA69802149050A43B4
:10055000DA61DB690B400193019B02B07047C04632
:100560000010024010B588B004001422002103A836
:1005700001F077FB2268124B9A4201D008B010BDFF
:10058000104C63698022D202134363616369134094
:100590000193019B03A9C0230393AE3B4B600F3B28
:1005A000CB60023B0B61084800F050FDE3698022FC
:1005B00092031343E361E36913400293029BDDE777
:1005C00000540040001002400004004882B002685D
:1005D000074B9A4201D002B07047064B9A698021BE
:1005E00089020A439A619B690B400193019BF2E7E0
:1005F000004401400010024010B586B004001422EF
:10060000002101A801F02DFB22680D4B9A4201D078
:1006100006B010BD0B4B5A698021C9020A435A61CA
:100620005B690B400093009B01A980235B00019351
:10063000FE3B4B600B61044800F008FDE8E7C04654
:1006400000440140001002400004004810B588B08A
:1006500004001422002103A801F003FB2268134BBD
:100660009A4201D008B010BD114B9A698021C9018E
:100670000A439A619A690A400192019A5A69802153
:1006800089020A435A615B690B400293029B03A9EA
:10069000C023DB00039302234B600133CB60023B9A
:1006A0000B619020C00500F0D1FCDBE70038014071
:1006B0000010024070B582B0041E00D12EE2036823
:1006C000DB0726D5AE4B5A680C231340042B18D0F9
:1006D000AB4B5A680C231340082B0ED06368012BD8
:1006E0003CD0002B51D1A64B1A68A6490A401A608B
:1006F0001A68A5490A401A6036E0A14B5B68DB0323
:10070000ECD59F4B1B689B0303D56368002B00D17E
:1007100007E223689B0772D5994B5B680C221A424B
:100720005DD0974B5A680C231340082B53D0E368D5
:10073000002B00D185E0924A136801210B4313601E
:1007400000F0BAFB05008E4B1B689B0770D400F0CD
:10075000B3FB401B0228F6D90320E0E1884A116868
:1007600080235B020B4313606368002B25D000F0ED
:10077000A3FB0500824B1B689B03CAD400F09CFBC3
:10078000401B6428F6D90320C9E1052B09D07C4B16
:100790001A687C490A401A601A687B490A401A6044
:1007A000E2E7774B19688022D2020A431A6019687F
:1007B000802252020A431A60D6E700F07DFB050052
:1007C0006F4B1B689B03A4D500F076FB401B64288D
:1007D000F6D90320A3E16A4B5B68DB03A7D4684B1F
:1007E0001B689B0703D5E368012B00D09BE164499C
:1007F0000B68F82293432269D20013430B602368ED
:100800001B0744D5E369002B2ED05D4A536A0121B2
:100810000B43536200F050FB0500594B5B6A9B078A
:1008200035D400F049FB401B0228F6D9032076E1BD
:1008300053490B68F82293432269D20013430B609B
:10084000DDE74F4A136801218B43136000F034FB4E
:1008500005004B4B1B689B07D1D500F02DFB401BBF
:100860000228F6D903205AE1454A536A01218B43F5
:10087000536200F021FB0500414B5B6A9B0706D5E4
:1008800000F01AFB401B0228F6D9032047E1236839
:100890005B0700D480E03A4BDB69DB001DD4384BAA
:1008A000DA69802149050A43DA61DB690B4001936B
:1008B000019B0125354B1B68DB0510D5A368012B77
:1008C00021D0002B36D12E4B1A6A01218A431A629D
:1008D0001A6A03318A431A621AE00025EAE72B4AB2
:1008E000116880235B000B43136000F0E5FA0600FB
:1008F000264B1B68DB05E1D400F0DEFA801B642880
:10090000F6D903200BE11E4A136A01210B4313623F
:10091000A368002B24D000F0CFFA0600184B1B6A06
:100920009B0737D400F0C8FA801B194B9842F5D9C1
:100930000320F4E0052B09D0114B1A6A01218A43E8
:100940001A621A6A03318A431A62E1E70C4B1A6A87
:1009500004210A431A621A6A03390A431A62D7E762
:1009600000F0AAFA0600064B1B6A9B0712D500F09E
:10097000A3FA801B064B9842F5D90320CFE0C0466E
:1009800000100240FFFFFEFFFFFFFBFF0070004072
:1009900088130000012D33D02368DB0610D563696E
:1009A000012B33D0053351D1654A536B04218B435E
:1009B0005363536BF4318B43A169C9000B435363F9
:1009C000236A002B00D1B0E05D4A51680C220A4036
:1009D000082A00D18AE0022B4FD0594A136859499E
:1009E0000B40136000F068FA0400554B1B689B0134
:1009F0007AD500F061FA001B0228F6D903208EE0B8
:100A00004F4AD36950490B40D361C5E74C4B5A6BF1
:100A100004210A435A635A6B03390A435A6300F0AC
:100A20004BFA0500464B5B6B9B0706D400F044FA7B
:100A3000401B0228F6D9032071E041494B6BF82294
:100A40009343A269D20013434B63B9E73C4B5A6B03
:100A500004210A435A635A6B03398A435A6300F0EC
:100A60002BFA0500364B5B6B9B07A9D500F024FAE7
:100A7000401B0228F6D9032051E0314A136831495E
:100A80000B40136000F018FA05002D4B1B689B010A
:100A900006D500F011FA401B0228F6D903203EE0EB
:100AA000274BDA6A0F218A43E16A0A43DA625A68FD
:100AB00026490A40A16A606A01430A435A601968DC
:100AC000802252040A431A6000F0F6F904001C4B1D
:100AD0001B689B0106D400F0EFF9001B0228F6D931
:100AE00003201CE000201AE0002018E0012B1ED09B
:100AF000134B5A68D86A80235B021340616A8B42A9
:100B000017D10F230340E16A8B4214D1F0239B03DA
:100B10001A40A36A9A4210D1002000E0012002B0DE
:100B200070BD0120FBE70120F9E70020F7E7012075
:100B3000F5E70120F3E70120F1E70120EFE7C046E8
:100B400000100240FFFFFFFEFFFFFFEFFFFFC2FFAD
:100B500010B5124B5A680C231340042B1AD0082BE3
:100B60001AD1910C073319400D48445C0B49C96AEE
:100B70000B400C49C95CD20304D50B48FFF7A0FA1F
:100B8000604308E06201121B93019B1ADB001B19F2
:100B9000180200E0044810BD0448FCE700100240C1
:100BA000E41C0008D41C00080024F40000127A00A1
:100BB00070B504000D00002800D17EE0434B1A6898
:100BC000012313408B420AD240490B680122934310
:100BD0002B430B600B681A40AA4200D06FE02368D9
:100BE0009A070ED55B0705D5394A5168E023DB002B
:100BF0000B435360364A5368F0218B43A1680B4383
:100C000053602368DB072DD56368012B1ED0022BB0
:100C100022D02F4A1268920753D52D494A680320E3
:100C2000824313434B6000F047F90600284B5B6892
:100C30000C221A4063689B009A4213D000F03CF9E2
:100C4000801B244B9842F1D9032035E0204A1268DA
:100C50009203E2D401202FE01D4A12689201DCD4F5
:100C6000012029E0194B1A6801231340AB4209D92E
:100C700016490B68012293432B430B600B681A4003
:100C8000AA4220D123685B0706D5114A536812494E
:100C90000B40E1680B435360FFF75AFF0C4B5A6857
:100CA00012090F2313400D4AD35CD8400C4B186037
:100CB000032000F0BDF8002070BD0120FCE70120FA
:100CC000FAE70120F8E70120F6E7C04600200240DD
:100CD0000010024088130000FFF8FFFFFC1C000812
:100CE00008000020014B18687047C046080000202B
:100CF00010B5FFF7F7FF044B5A68120A0723134099
:100D0000024AD35CD84010BD00100240F41C000819
:100D100070B582B004000368DB0339D53E4BDB6954
:100D2000DB004CD43C4BDA69802149050A43DA6187
:100D3000DB690B400193019B0125384B1B68DB05E8
:100D40003FD5354B1A6AC0239B00110019401A4247
:100D500015D06368C022920013408B420FD02E4BF7
:100D60001A6A2F4911401E6A8020400230431862DF
:100D7000186A2C4E304018621962D20735D4264AC0
:100D8000136A27490B4061680B431362012D3BD066
:100D90002368DB0706D5204A136B03218B43A16828
:100DA0000B43136323689B0633D51B4A136B102137
:100DB0008B43E1680B431363002002B070BD002534
:100DC000BBE7164A116880235B000B43136000F0F9
:100DD00073F80600114B1B68DB05B2D400F06CF809
:100DE000801B6428F6D90320E7E700F065F80600C9
:100DF000094B1B6A9B07C2D400F05EF8801B0A4BAC
:100E00009842F5D90320D8E7D36908490B40D3614C
:100E1000BEE70020D1E7C04600100240007000404D
:100E2000FFFCFFFFFFFFFEFF88130000FFFFFFEF47
:100E300010B504000F4B1978FA208000FFF740F935
:100E400001000D4B1868FFF73BF900F035FA002858
:100E50000DD1032C01D901200AE00130002221002C
:100E6000404200F019FA054B1C60002000E0012010
:100E700010BDC04600000020080000200400002033
:100E800010B5064A136810210B4313600320FFF7C7
:100E9000CFFFFFF74FFB002010BDC04600200240EF
:100EA000034A1168034B1B785B1813607047C046F8
:100EB0004C01002000000020014B18687047C0461C
:100EC0004C01002010B5041E60D04123C35C002BF0
:100ED00048D041232422E2542268136801218B4325
:100EE0001360636822682A490B4013612268936883
:100EF00028490B409360E368012B39D0A168226830
:100F000084231B020B439360E368022B37D02268D3
:100F1000536821490B405360226851681F4B0B43B3
:100F200053602268D3681B490B40D3602369626910
:100F30001343A269120221681343CB60E369216A5B
:100F400022680B4313602268136801210B4313606E
:100F50000023636441221F31A15423630132A3544F
:100F6000002010BD40330022C254FFF7FBFAB0E767
:100F7000A168226880231B020B439360C4E72268A8
:100F8000516880231B010B435360C5E70120E8E74C
:100F9000FFFFFFF0FF7FFFFFFFF7FFFF0080000272
:100FA000F0B54123C35C202B20D12033C35C012B3F
:100FB0001ED04024012202554125242343550668B2
:100FC000336893433360066833680A4F3B403360AD
:100FD000066833680B43336001680B6813430B608A
:100FE00020234355002303550020F0BD0220FCE7D9
:100FF0000220FAE7FFEFFFFFF0B54123C35C202B8F
:101000001ED12033C35C012B1CD040240122025589
:1010100041252423435506683368934333600668AB
:101020003368094F3B4009021943316001680B687E
:1010300013430B6020234355002303550020F0BDCC
:101040000220FCE70220FAE7FFF0FFFFF0B583B0D3
:10105000002356E086685F000324BC40A643CC68AA
:10106000BC4034438460446894434E68360901228E
:1010700032409A402243426053E0DE080836B60010
:10108000375805321A4092000F249440A7430C6948
:10109000944022003A43325056E0032600E00026F6
:1010A000A64034003C4302329200444E9451444ADC
:1010B0009768EA433E00AE434C68E40201D53E0027
:1010C0002E433F4CA660E7683E0016404C68A402E1
:1010D00001D53E002E433A4CE66067683E0016405C
:1010E0004C68A40301D53E002E43354C666026684B
:1010F00032404C68E40301D52A003243304C226070
:1011000001330C682200DA4056D001229A402500B3
:1011100015401442F4D04E6803243440013C012CA5
:1011200098D94C6803222240032A08D0C4685E0084
:101130000322B24094438A68B2402243C2604C68A2
:1011400003222240022A98D004685E00032217007E
:10115000B740BC434F683A40B240224302604C68FB
:10116000C02292021442CBD0164CA669012216432B
:10117000A661A46922400192019A9A08941CA400D5
:101180000E4EA75903241C40A4000F26A640B743C7
:101190009026F605B04282D00B4EB04208D00B4EDE
:1011A000B04207D00A4EB04200D176E7052677E775
:1011B000012675E7022673E703B0F0BD0000014089
:1011C00000040140001002400004004800080048EC
:1011D000000C0048002A01D0816170478162FCE761
:1011E0007047000010B5054B5B69184200D110BD77
:1011F000024B5861FFF7F4FFF9E7C04600040140D5
:1012000070B5002811DB8308134DC0339B005C5977
:1012100003221040C000FC3216008640B44389010E
:101220000A40824022435A5170BD0F230340083BBD
:101230009B0806339B00094A944663445C6803227A
:101240001040C000FC3215008540AC4389010A40C3
:10125000824022435A60E7E700E100E000ED00E051
:10126000013880235B0498420FD2094A5060094834
:10127000036A1B021B0AC02109060B4303620023F9
:10128000936007331360002070470120FCE7C046DD
:1012900010E000E000ED00E010B5FFF7B1FF10BD79
:1012A000002805DB1F22024001239340014A1360FE
:1012B0007047C04600E100E010B5FFF7D1FF10BD58
:1012C0007047000030B5056A036A01229343036248
:1012D000426883697324A3430C681C4302239D4323
:1012E0008B682B43154DA84208D0154DA84205D058
:1012F000144DA84202D0144DA84206D10825AB4394
:101300001D00CB682B430425AB430C4DA84208D0ED
:101310000B4DA84205D00B4DA84202D00A4DA84261
:1013200005D10A4D2A404D6915438A692A43426016
:1013300084614A684263036230BDC046002C0140AC
:10134000004001400044014000480140FFFCFFFF15
:1013500030B5046A036A184A134003624268C369DD
:101360007325AB430D681D43144B1C408B681B0257
:101370002343134CA04209D0124CA0420DD0124C72
:10138000A0420AD0114CA0420FD106E0104C1C40E4
:10139000CB681B0223430F4C23400F4C22404C6967
:1013A000240114438A69120122434260C5614A68DC
:1013B000C263036230BDC046FFFEFFFFFFFDFFFFBB
:1013C000002C014000400140004401400048014021
:1013D000FFF7FFFFFFFBFFFFFFCFFFFF30B5046A02
:1013E000036A134A134003624368C269114D2A40DD
:1013F0000D682D021543104A14408A6812032243D7
:101400000E4CA04208D00E4CA04205D00D4CA0427C
:1014100002D00D4CA04204D10C4C1C404B699B01E6
:1014200023434360C5614B680364026230BDC0461C
:10143000FFEFFFFFFF8CFFFFFFDFFFFF002C0140EE
:10144000004001400044014000480140FFBFFFFF51
:10145000704700000368204A904202D01F4A904221
:1014600003D1702293434A6813431B4A90420ED023
:101470001A4A90420BD01A4A904208D0194A904218
:1014800005D0194A904202D0184A904203D1184A16
:101490001A40CB681343802293434A691343036085
:1014A0008B68C3620B6883620B4B984208D00D4B6C
:1014B000984205D00C4B984202D00C4B984201D177
:1014C0000B690363012343610269134203D003697B
:1014D0000122934303617047002C01400004004047
:1014E000002000400040014000440140004801400D
:1014F000FFFCFFFF70B5041E26D03D23C35C002B0C
:101500001CD03D2502236355210001C9FFF7A2FF2E
:1015100001234622A354083AA3540132A3540132B2
:10152000A3540132A3540132A3540132A354013213
:10153000A3540132A3546355002070BD3C330022F4
:10154000C254FFF743F8DCE70120F6E770B5041E4C
:1015500026D03D23C35C002B1CD03D2502236355C0
:10156000210001C9FFF776FF01234622A354083A60
:10157000A3540132A3540132A3540132A3540132C3
:10158000A3540132A3540132A3540132A35463552E
:10159000002070BD3C330022C254FFF759FFDCE746
:1015A0000120F6E770B5026A036A1024A3430362C0
:1015B00044688369164D2B400D682D021D4320237E
:1015C0009A438B681B011343124A904209D0124A76
:1015D00090420ED0114A90420BD0114A904210D145
:1015E00007E0802293431E00CB681B013343403A3F
:1015F00093430C4A14404A69920022438C69A40028
:101600001443446085614A688263036270BDC046CA
:10161000FF8CFFFF002C01400040014000440140CE
:1016200000480140FFF3FFFF70B504000D003C23AC
:10163000C35C012B00D16AE03C230121C154082A7C
:1016400050D01CD8002A35D0042A16D100682900B1
:10165000FFF7A8FF2268916980231B010B43936168
:10166000226893692B490B40936121688B692A6931
:10167000120213438B61002030E001202EE00C2A7F
:1016800016D100682900FFF7A9FE2268D1698023DE
:101690001B010B43D3612268D3691E490B40D36100
:1016A0002168CB692A6912021343CB61002015E03F
:1016B000012013E000682900FFF704FE2268936907
:1016C00008210B4393612268936904398B4393612A
:1016D0002268936929690B43936100203C2300220F
:1016E000E25470BD00682900FFF732FE2268D3691A
:1016F00008210B43D3612268D36904398B43D3613A
:101700002268D36929690B43D3610020E6E70220F0
:10171000E7E7C046FFFBFFFF10B53C23C35C012B8E
:1017200021D03C2201238354CB68104C23408C6889
:1017300023430F4C23404C6823430E4C23400C683A
:1017400023430D4C23400C6923430C4C23404C692C
:1017500023430B4C2340C9690B4301684B640023AE
:101760008354002010BD0220FCE7C046FFFCFFFFB1
:10177000FFFBFFFFFFF7FFFFFFEFFFFFFFDFFFFFB5
:10178000FFBFFFFF10B5EFF3108C012282F310882A
:1017900001680B68124C23400B608CF31088EFF348
:1017A000108C82F3108801688B6893438B608CF3F4
:1017B0001088036E012B06D080232022C250002304
:1017C0000366836610BDEFF3108183F3108802680F
:1017D00013683234FF34A343136081F31088EBE7BE
:1017E000DFFEFFFF10B504008368026913434269FE
:1017F0001343C269134301680A684E480240134309
:101800000B60226853684C490B40E1680B435360FE
:10181000A369226A1A4321688B684848034013432E
:101820008B602368464A934211D0464A93421FD0A8
:101830001023E06980221202904223D0042B6AD048
:101840004ED8002B53D0022B48D13F4853E03F4B9A
:101850001A6B03231340022B0CD005D8002B0BD09E
:10186000012B0BD10333E4E7032B09D1013BE0E764
:101870000023DEE70823DCE70023DAE71023D8E7BC
:101880001023D6E7042B26D007D8002B09D0022B33
:1018900001D12D4809E0012047E0082B05D00120A7
:1018A00043E0FFF725FA002838D0400061684B0874
:1018B000C018FEF705FC0200103A254B9A422FD8BB
:1018C00082B20F239A434008083B03401343226827
:1018D000D360002029E0FFF73BF9E4E7012024E092
:1018E000082B02D18020000205E001201DE0FFF757
:1018F000FFF9002816D061684B081818FEF7E0FBC6
:101900000200103A124B9A420ED823680004000CD1
:10191000D860002009E0FFF71BF9EAE7002004E0A7
:10192000012002E0002000E001200023A366E3661E
:1019300010BDC046F369FFFFFFCFFFFFFFF4FFFFBD
:10194000003801400044004000127A0000100240BC
:10195000EFFF0000436A1B0706D5026853682C4955
:101960000B40416B0B435360436ADB0706D50268AB
:10197000536828490B40816A0B435360436A9B07B5
:1019800006D50268536824490B40C16A0B43536073
:10199000436A5B0706D50268536820490B40016B18
:1019A0000B435360436ADB0606D5026893681C4903
:1019B0000B40816B0B439360436A9B0606D502681C
:1019C000936818490B40C16B0B439360436A5B06F5
:1019D0000BD50268536814490B40016C0B435360EC
:1019E000026C80235B039A420AD0436A1B0606D529
:1019F000026853680D490B40816C0B43536070477C
:101A0000026853680A490B40416C0B435360ECE792
:101A1000FF7FFFFFFFFFFDFFFFFFFEFFFFFFFBFF5D
:101A2000FFEFFFFFFFDFFFFFFFFFEFFFFFFFF7FF0E
:101A3000FFFF9FFFF8B5CE46474680B506000D0074
:101A400017009946089B98463368DC692C40641B54
:101A500063425C41BC4233D143460133F4D0FFF7CB
:101A60002BFA4B46C01A40452FD84346002B2ED0A8
:101A7000326813685B07E7D5802DE5D0402DE3D0B1
:101A8000D3691B0710D4D3691B05DDD580231B0147
:101A900013623000FFF776FE84232022F2500C3BC5
:101AA0000022F25403200CE0082414623000FFF7F7
:101AB00069FE8423F4500C3B0022F254012000E024
:101AC0000020C0BCB946B046F8BD0320F9E70320AA
:101AD000F7E7000030B583B0040084230022C25031
:101AE000FFF7EAF9050023681B681B070FD423687A
:101AF0001B685B0729D42023E3678022A3500023BF
:101B000023666366083AA354002003B030BD8021E9
:101B1000224B00930300002289032000FFF78AFF75
:101B20000028E4D0EFF31081012383F310882268AA
:101B3000136880208343136081F310882023E367B8
:101B400058330022E2547D38DFE78021134B0093A5
:101B50002B000022C9032000FFF76CFF0028CAD029
:101B6000EFF31080012282F3108821680B680C4D7E
:101B70002B400B6080F31088EFF3108082F3108805
:101B800021688B6893438B6080F3108880231F3219
:101B9000E250083B0022E2540320B6E7FFFFFF01BA
:101BA000DFFEFFFF10B5041E2ED0C36F002B21D027
:101BB0002423E3672268136801218B431360636A5F
:101BC000002B1DD12000FFF70DFE012811D0226847
:101BD00053680E490B4053602268936808218B4379
:101BE00093602268136807390B4313602000FFF7E6
:101BF00071FF10BD78330022C254FEF727FDD7E7EE
:101C00002000FFF7A7FEDDE70120F2E7FFF7FFFF67
:101C10000D488546FFF754FB0C480D490D4A00233B
:101C200002E0D458C4500433C4188C42F9D30A4A91
:101C30000A4C002301E013600432A242FBD300F0FF
:101C400019F8FEF754FCFEE70020002000000020F9
:101C50000C000020141D00080C0000205001002082
:101C6000FEE703008218934200D1704719700133D8
:101C7000F9E7000070B500260C4C0D4D641BA41054
:101C8000A64209D1002600F019F80A4C0A4D641B3F
:101C9000A410A64205D170BDB300EB589847013699
:101CA000EEE7B300EB5898470136F2E70C1D000849
:101CB0000C1D0008101D00080C1D0008F8B5C046DA
:101CC000F8BC08BC9E467047F8B5C046F8BC08BCD6
:041CD0009E46704775
:101CD4000102030405060708090A0B0C0D0E0F1078
:101CE40002030405060708090A0B0C0D0E0F101059
:101CF40000000000010203040000000000000000D6
:081D04000102030406070809AF
:041D0C004D0200087C
:041D100021020008A4
:0C1D1400010000000400000000127A0032
:0400000508001C11C2
:00000001FF
