:020000040800F2
:1000000000200020413C00084D1900084F1900084D
:1000100000000000000000000000000000000000E0
:10002000000000000000000000000000511900085E
:1000300000000000000000005319000855190008D6
:10004000913C000800000000913C0008913C000831
:10005000913C00085D190008913C00086D190008EA
:1000600000000000913C0008913C0008913C000811
:10007000913C0008913C0008913C00080000000001
:10008000913C0008913C000800000000913C0008F1
:10009000913C0008913C0008913C0008913C00080C
:1000A000913C0008913C0008913C0008913C0008FC
:1000B000913C00080000000000000000000000006B
:1000C000002243088B4274D303098B425FD3030A97
:1000D0008B4244D3030B8B4228D3030C8B420DD3AA
:1000E000FF22090212BA030C8B4202D31212090238
:1000F00065D0030B8B4219D300E0090AC30B8B4276
:1001000001D3CB03C01A5241830B8B4201D38B0323
:10011000C01A5241430B8B4201D34B03C01A5241C8
:10012000030B8B4201D30B03C01A5241C30A8B420B
:1001300001D3CB02C01A5241830A8B4201D38B02F6
:10014000C01A5241430A8B4201D34B02C01A52419A
:10015000030A8B4201D30B02C01A5241CDD2C3090C
:100160008B4201D3CB01C01A524183098B4201D388
:100170008B01C01A524143098B4201D34B01C01A73
:10018000524103098B4201D30B01C01A5241C308EB
:100190008B4201D3CB00C01A524183088B4201D35A
:1001A0008B00C01A524143088B4201D34B00C01A46
:1001B0005241411A00D20146524110467047FFE7B2
:1001C00001B5002000F0F0F802BDC0460029F7D0CC
:1001D00076E7704703460B437FD4002243088B42E7
:1001E00074D303098B425FD3030A8B4244D3030BBE
:1001F0008B4228D3030C8B420DD3FF22090212BA83
:10020000030C8B4202D31212090265D0030B8B42FE
:1002100019D300E0090AC30B8B4201D3CB03C01AE8
:100220005241830B8B4201D38B03C01A5241430BC3
:100230008B4201D34B03C01A5241030B8B4201D3B3
:100240000B03C01A5241C30A8B4201D3CB02C01A1E
:100250005241830A8B4201D38B02C01A5241430A96
:100260008B4201D34B02C01A5241030A8B4201D385
:100270000B02C01A5241CDD2C3098B4201D3CB012C
:10028000C01A524183098B4201D38B01C01A5241DB
:1002900043098B4201D34B01C01A524103098B42DF
:1002A00001D30B01C01A5241C3088B4201D3CB00CA
:1002B000C01A524183088B4201D38B00C01A5241AD
:1002C00043088B4201D34B00C01A5241411A00D25D
:1002D00001465241104670475DE0CA0F00D04942C6
:1002E000031000D34042534000229C4603098B4236
:1002F0002DD3030A8B4212D3FC22890112BA030ABE
:100300008B420CD3890192118B4208D3890192113F
:100310008B4204D389013AD0921100E08909C309C4
:100320008B4201D3CB01C01A524183098B4201D3C6
:100330008B01C01A524143098B4201D34B01C01AB1
:10034000524103098B4201D30B01C01A5241C30829
:100350008B4201D3CB00C01A524183088B4201D398
:100360008B00C01A5241D9D243088B4201D34B00B3
:10037000C01A5241411A00D20146634652415B10F5
:10038000104601D34042002B00D5494270476346D6
:100390005B1000D3404201B5002000F005F802BD1B
:1003A0000029F8D016E770477047C0468446100011
:1003B00062468C461900634600E0C0461FB505F052
:1003C00081FA002801D40021C8421FBD10B505F0F4
:1003D000C3F94042013010BD10B505F073FA002892
:1003E00001DB002010BD012010BDC04610B505F096
:1003F00069FA002801DD002010BD012010BDC046B3
:1004000010B505F0EFF9002801DC002010BD012037
:1004100010BDC04610B505F0E5F9002801DA00204E
:1004200010BD012010BDC046844608006146FFE7AC
:100430001FB504F031FA002801D40021C8421FBDC5
:1004400010B504F0B9F94042013010BD10B504F008
:1004500023FA002801DB002010BD012010BDC0469A
:1004600010B504F019FA002801DD002010BD0120AC
:1004700010BDC04610B504F0C7F9002801DC00200B
:1004800010BD012010BDC04610B504F0BDF9002814
:1004900001DA002010BD012010BDC0461C2101233F
:1004A0001B04984201D3000C10391B0A984201D357
:1004B000000A08391B09984201D30009043902A235
:1004C000105C40187047C04604030202010101019C
:1004D00000000000000000000448054B10B58342F6
:1004E00003D0044B002B00D0984710BD64000020BF
:1004F000640000200000000006480749091A8B101C
:10050000C90FC91810B5491003D0044B002B00D0F7
:10051000984710BD64000020640000200000000027
:1005200010B5074C2378002B09D1FFF7D5FF054BF9
:10053000002B02D0044800E000BF0123237010BD4F
:10054000640000200000000004690008054B10B59D
:10055000002B03D00449054800E000BFFFF7CCFFA3
:1005600010BDC046000000006800002004690008BB
:10057000F0B589B003AC14220021200003F089FB00
:100580002A4B5A698021C9030A435A615A690A40B1
:100590000092009A5A69802189020A435A615A6975
:1005A0000A400192019A5A698021C9020A435A619C
:1005B0005B690B400293029B8027BF011C4D002208
:1005C0003900280002F087FD0323039388235B038F
:1005D00004930026059690202100C00502F0B0FC8F
:1005E000039701270497059606962100280002F03C
:1005F000A7FC20230393C4239B03049305972100A6
:10060000280002F09DFC00220021052002F0C4FD1C
:10061000052002F0C5FD00220021072002F0BCFDEC
:10062000072002F0BDFD09B0F0BDC0460010024039
:100630000004004810B5012802D0022803D010BDE4
:1006400000F098FEFBE700F08FFEF8E772B6FEE7D9
:1006500010B51248124B0360124B436000238360B5
:100660000122C260036143618361C361036202F0DE
:1006700089F800280CD10948002102F00BFC002861
:1006800008D10648002102F031FC002804D110BD39
:10069000FFF7DCFFFFF7DAFFFFF7D8FF600100206C
:1006A000005400402B1D200000B591B01C220021F9
:1006B00009A803F0EEFA2022002101A803F0E9FACC
:1006C0002048214B03600023436083601F4AC260BF
:1006D00003614361836102F09DFE002829D119481E
:1006E00002F0C4FE002826D109A960230993002343
:1006F0004B608B60CB600B614B618B6111480022BA
:1007000002F022FF002818D101A9002301934B60B9
:100710008B60CB600B61802292014A61CB610948FA
:1007200003F012F800280AD1064801F087F911B049
:1007300000BDFFF78BFFFFF789FFFFF787FFFFF78C
:1007400085FFC0461801002000440140FFFF000063
:1007500010B50B480B4B036096231B02436000232C
:100760008360C36003610C2242618361C3610362E1
:10077000436203F02FFA002800D110BDFFF766FF97
:10078000900000200038014010B594B008AC302231
:100790000021200003F07DFA1022002104A803F0BC
:1007A00078FA10220021684603F073FA02230893B6
:1007B000013B0B930F330C93200001F09DF90028AF
:1007C00017D104A807230493002343608360C36008
:1007D000002101F00FFC00280DD168462123009371
:1007E00000230293039301F0B5FC002805D114B057
:1007F00010BDFFF72BFFFFF729FFFFF727FF0000D2
:1008000010B501F05FFDFFF7BFFFFFF7B1FEFFF787
:100810001FFFFFF749FFFFF79BFF642001F074FD06
:1008200000F0F3FA00F03AFF00F0B2FF00F0CEFD66
:10083000012000F0CBFF0EE0154B1B68E31A092BDB
:1008400016D8144B1B68E31A092B16D8124B1B68D9
:10085000E31A132B16D801F051FD04000F4B1B684F
:10086000C31A132BE8D900F0C7FB0C4B1C60E3E75D
:1008700000F0C2FF064B1C60E3E700F0C5FD054B2E
:100880001C60E3E700F0F0F8034B1C60E3E7C046B0
:100890008800002084000020800000208C000020C0
:1008A00010B501F02BFD064B1B68C31A054A934295
:1008B00000D810BD024B1860012000F011FFF8E7CE
:1008C0003C020020B80B000010B5012000F07EFFB4
:1008D000022000F005FF10BD044A1168044B1960A6
:1008E0005168596092689A607047C046540200206F
:1008F00048020020F0B5C64600B584B0002301933D
:10090000029303931A4B1B78002B04D1194B1B68DD
:100910009846002512E00A239846FAE701AFA600A0
:10092000F059154A6B005B191B199B00995803F08D
:100930001FFCB8510134022CF0DD0135454501DAC8
:100940000024F8E700240CE0A50001ABEE58404677
:1009500004F094FB011C301C03F018FE074B5851A7
:100960000134022CF0DD04B080BCB846F0BDC046B6
:10097000B8010020BC010020C00100204802002076
:1009800070B500220AE00D4B1C6893001D580C49FD
:1009900063001B199B189B005D500132022AF2DD97
:1009A000064C206801300A21FFF7FAFC216000297B
:1009B00002D1044B01221A7070BDC046BC01002058
:1009C000C0010020B801002010B501F097FC0F4BCA
:1009D0001B68C01A0E4B984200D810BD00F0DEFC18
:1009E0000028FAD000F0E0FC05F044FF094A0A4B69
:1009F000FFF706FD0028F0D10848FFF7C1FFFFF719
:100A000079FF074B01221A70E7E7C0464402002035
:100A100087130000B81E85EB51B8AE3F540200208A
:100A20003802002010B50C4A002313600B4A1360F3
:100A30000B4A137000200AE00A4943001B189B1858
:100A40009B0000245C500132022AF5DD01300928A8
:100A500001DC0022F8E710BDB4010020BC01002039
:100A6000B8010020C001002030B585B001F046FC7F
:100A7000050000F08DFC040000F044FD042850D077
:100A8000002C56D0022C59D001AC200000F078FC8C
:100A9000019A4D4B1A60029A5A60039A9A604B4B26
:100AA0001B78002B03D14A4B1B68002B4AD04949C5
:100AB000454800F0F9F8041C4749FFF7DBFC002823
:100AC00061D100F07DFE454B1868211CFFF7D2FC78
:100AD00000285CD0424B1D60414B1B68414A1268A4
:100AE000934208D9991AFA208000814203D93E49DD
:100AF000097800294ED0934207D2D31A3B498B4242
:100B000003D9394B1B78002B4DD1374B1B78002B69
:100B100003D0374A1278002A4FD0002B50D005B0AE
:100B200030BDFFF7D9FEFFF7CFFE314B01221A701F
:100B3000F5E7FFF777FF00F0E9FEA3E7642000F098
:100B40003BFEECE700F030FC2A49FFF77FFC002871
:100B500003D1294B00221A60A9E701F0CFFB264BF5
:100B60001B68002B02D1244B1860A0E7C01A234B4E
:100B700098429CD91448FFF703FFFFF7BBFE1E4BBA
:100B800000221A6093E7642000F016FEC7E7154BB9
:100B90001D60A1E7144B01221A70154B00221A7038
:100BA000FFF792FEBBE7104B00211970AD1A144BF2
:100BB0009D42B4D9FFF736FFB1E7FFF705FFAEE777
:100BC000FFF76EFEABE7C04654020020B8010020DC
:100BD000BC01002048020020A6619C3F04000020C8
:100BE000400200204402002000000020B80B00005A
:100BF00038020020CDCCCC3DB40100200F270000EE
:100C000020BF020070B505000C000068096803F001
:100C10008BFE061C6868616803F086FE011C301CB0
:100C200003F0A6FA061CA868A16803F07DFE011C6B
:100C3000301C03F09DFA70BDF0B5C64600B5040047
:100C400003689846191C181C03F06EFE051C6768A3
:100C5000391C381C03F068FE011C281C03F088FABC
:100C6000051CA668311C301C03F05EFE011C281C0C
:100C700003F07EFA03F060F8051C0021FFF7FAFB91
:100C800000280ED0291C404603F080FC2060291C5F
:100C9000381C03F07BFC6060291C301C03F076FCE0
:100CA000A06080BCB846F0BD30B587B0036803AC27
:100CB000039343680493836805930B6800934B6820
:100CC00001938B6802932000FFF7B6FF6846FFF799
:100CD000B3FF69462000FFF795FF041CFE2189053C
:100CE000FFF7C8FB002806D0FE24A405201C03F053
:100CF00003F807B030BD0449201CFFF7A7FB00280C
:100D0000F4D0014CF2E7C046000080BF70B504008B
:100D10000068011C03F008FE051C6068011C03F05C
:100D200003FE011C281C03F023FA051CA068011C0B
:100D300003F0FAFD011C281C03F01AFA02F0FCFF74
:100D400070BD000010B584B00200064C01235B4268
:100D500002930233019300913821200001F0CAFF71
:100D600004B010BD6001002010B584B0064C012312
:100D70005B4202930192009102330200382120006D
:100D800001F0B8FF04B010BD6001002010B586B0BE
:100D9000020017236B441970064C0121494202914D
:100DA00002310191009301233731200001F0D6FE7A
:100DB00006B010BD6001002000B583B06B46D91DA0
:100DC0002A20FFF7BFFF002801D003B000BD6B460B
:100DD000D97901229143D9712A30FFF7D7FFF4E77F
:100DE00000B583B06B46D91D2A20FFF7ABFF002862
:100DF00001D003B000BD6B46D97901221143C9B2BD
:100E0000D9712A30FFF7C2FFF3E700B583B06B4614
:100E1000D91D0D20FFF796FF002805D16B4607333B
:100E20001B781A2B02D0012003B000BDFFF7C4FFCE
:100E30000028F9D15C212A30FFF7A8FF0028F3D160
:100E40001C212B30FFF7A2FF0028EDD17A212C3096
:100E5000FFF79CFF0028E7D13C212D30FFF796FFDC
:100E60000028E1D13C212E30FFF790FF0028DBD194
:100E700000210E30FFF78AFF0028D5D100210F3066
:100E8000FFF784FF0028CFD1F8211530FFF77EFF50
:100E90000028C9D112211730FFF778FF0028C3D1ED
:100EA00001211830FFF772FF0028BDD1FF21293042
:100EB000FFF76CFF0028B7D10E211D30FFF766FF4A
:100EC00002211F20FFF762FF01212020FFF75EFFB4
:100ED000FFF786FFA8E70000F0B5CE46474680B58D
:100EE00085B0051E78D00F2169442A20FFF72AFF1C
:100EF0000E2169440020FFF725FF041E6DD10E234B
:100F00006B441B781B0700D46DE00D2169440E2053
:100F1000FFF718FF041E60D10D236B441A780323DA
:100F20001340012B50D0022B52D0002B5DD18B23CC
:100F3000DB059846062201A90120FFF715FF041ED4
:100F40004BD101AB19785A7809020A4312B29010BA
:100F50009978DF7809020F433FB2BF1019795E79A3
:100F600009020E4336B2B610002A01DA204B1843AC
:100F7000BB0401D51E4B1F43B30401D51C4B1E43BC
:100F800004F07CF8414603F001FB8146380004F090
:100F900075F8414603F0FAFA071C300004F06EF8C9
:100FA000414603F0F3FA061C1249484603F0BCFC24
:100FB00028601049381C03F0B7FC68600D49301CEC
:100FC00003F0B2FCA86008E08A23DB059846B1E78D
:100FD0008923DB059846ADE70124200005B0C0BC9D
:100FE000B946B046F0BD0224F7E70124F5E7C04654
:100FF00000C0FFFF0AE81C41F0B5D646474680B561
:1010000087B001F07BF9019000F082FB002804D04A
:1010100007B0C0BCBA46B046F0BD03A8FFF75CFFFE
:101020000028F5D19D4B03A90A0070CA70C39C4CDF
:101030002068039D9B4B420012189200D5502068F7
:10104000049D4200121892009A1855602068059974
:101050004200121892009B189960206801301421F8
:10106000FFF79EF921602368002B02D18E4B0122ED
:101070001A700027002398461FE08A4C7E00F3195F
:101080009B001959894D286803F072F82860F619F9
:10109000B600A4196168686803F06AF86860A1681E
:1010A000A86803F065F8A8602000FFF72FFE011C78
:1010B000404603F05DF880460137132FDDDD7B4CA1
:1010C00020687B4903F062FA20606068784903F089
:1010D0005DFA6060A068764903F058FAA060744930
:1010E000404603F053FA82466F4B1B78002B47D1E2
:1010F000704B1B78DAB2002B4DD0022A64D06E4BB5
:101100001B78002B00D090E06C4B18686C49FFF7FF
:101110009DF9002800D188E06A4B18686A49FFF7FA
:1011200095F9002800D180E0684B1B68002B73D133
:10113000664B019A1A607BE00135132D25DC6C00AB
:101140006419A400574BE41858492000FFF7ACFD80
:10115000061C011C381CFFF779F9002800D0371C49
:101160002000FFF7D3FD514603F030FD4400640832
:10117000211C4046FFF76AF90028DDD0A046DBE7D6
:101180000025002398461F1CD7E74E4B42461A60A5
:101190004A4B1F60ACE7484B1B78002B0DD1474BE7
:1011A00018684749FFF770F9002806D1454B1868C1
:1011B0004549FFF769F9002802D03E4B01221A7019
:1011C0003D4B00221A7023E73C4B1868FE2189052D
:1011D000FFF746F9002803D13D4B00221A60EFE7E4
:1011E000384B1868FF218905FFF73AF90028F3D03A
:1011F000374B1B68002B03D1354B019A1A60DFE790
:10120000019AD31A334A9342DAD92A4B01221A702F
:101210002F4B00221A60D3E7019AD31A2E4A934229
:1012200006D9244B00221A7002E0284B00221A60D3
:10123000224B1868FE218905FFF71CF900280AD007
:10124000264B1B68002B16D1244B019A1A60244BA5
:1012500000221A60B4E71B4B1868FF218905FFF7CD
:1012600009F90028ECD11E4B1B68002B0CD11C4B3C
:10127000019A1A60A4E7019AD31A164A9342E6D952
:101280000C4B02221A70E2E7019AD71A154B9F42C3
:1012900096D9124B00221A6092E7C0467C030020C8
:1012A000880200208C0200208402002070020020AE
:1012B0000000A041080000208903002080020020D7
:1012C0008FC2F53C7C020020CDCCCC3D6C020020CE
:1012D000600200200F270000DF9304006802002056
:1012E00064020020B70B000000B583B06B46D91D27
:1012F0000C20FFF727FD002818D16B4607331B7819
:101300005B0715D46B4607331B789B0617D46B46D7
:1013100007331B78DB0617D46B4607331B781B0794
:1013200017D46B4607331B78DB0717D403B000BD17
:1013300069461630FFF706FD0028E3D0F6E7694658
:101340001E20FFF7FFFCE2E769461020FFF7FAFCDA
:10135000E2E769462220FFF7F5FCE2E7062269464C
:101360000120FFF701FDE1E7014B01221A707047F0
:1013700089030020014B01221A7070478803002066
:1013800030B5024B020032CB32C230BD7C030020AC
:10139000014B1878C0B2704708000020014B187844
:1013A000C0B2704784020020014B18687047C046E5
:1013B0008002002010B52021034801F085FE434241
:1013C0005841C0B210BDC0460004004810B5FFF738
:1013D000F1FF074B1870074A00231360064A136099
:1013E000064A1370064A1370064A137010BDC046B1
:1013F0009803002094030020900300208C03002019
:101400008B0300208A03002070B500F077FF0600F0
:10141000354D2C78E4B2FFF7CDFF28702B78A3422E
:1014200039D1002C3FD0304B1B78002B48D02E4BAD
:101430001B78002B12D02D4B1B78002B0ED12C4B80
:101440001B68F31A2B4A934208D9284B01221A70C1
:10145000294B03321A70294B00221A70224B1B7839
:10146000002B1FD1254B1B78002B1BD0244A126860
:10147000B61AFA225200964214D3022B28D0032B1C
:101480002AD0012B2CD11C4BF43AFF3A1A701B4B7B
:1014900000221A7006E000F031FF154B1B68C01ADD
:1014A0003128BED870BD104B1B78002BBFD000F088
:1014B00025FF0F4B1860114A137801331370B6E7FC
:1014C00000F01CFF0E4B1860084B00221A70AEE7AC
:1014D000094B02221A70DAE7074B03221A70D6E78B
:1014E000054B03221A70D2E7980300208B030020DB
:1014F00094030020B70B00008A0300208C03002017
:1015000090030020024B1878C0B200221A70704776
:101510008A03002030B587B00D0014000F226A4402
:101520001070184801235B4200930233B42101F08C
:1015300097F9002801D007B030BD124801235B4263
:101540000093023317226A44B42101F051FA0028B3
:10155000F1D1EB435BB217226A4411782C400B4067
:101560001C43147005AA0F236B441B78137054702E
:10157000044801235B4200930333B42101F070F966
:10158000D9E7C0466001002010B580210122890101
:10159000014801F0A0FD10BD0004004810B58021F5
:1015A00000228901014801F096FD10BD00040048A9
:1015B00010B5012805D0002280211A20FFF7AAFFCC
:1015C00010BD8022F8E7000000B585B003AA1723FC
:1015D000137050700448183B00930333B42101F09A
:1015E0003FF905B000BDC0466001002010B5020003
:1015F00001211D20FFF78EFF10BD000010B505F082
:101600000BF9094A094B04F0CBF902000B0000204A
:10161000074903F083FD02F08DFD7F2202407F2108
:101620002020FFF777FF10BD8AB97BEB89CF193FE8
:101630000000F03F00B585B003AA0123137050707D
:101640000448023B00930333B42101F009F905B0CB
:1016500000BDC0466001002010B580210122890133
:101660000D4801F038FD0020FFF7E4FF002800D00E
:1016700010BD0130FFF79CFF0028F9D10130FFF7C2
:10168000B5FF0028F4D1AA30FFF7B8FF0028EFD14A
:101690007E30FFF799FFEBE70004004810B5002407
:1016A00002E0642000F030FE002C05D1FFF7D4FFEB
:1016B0000028F6D10124F4E710BD000000B585B084
:1016C00003AA86235B00138004480E3BFF3B009374
:1016D0000333B42101F0C4F805B000BD600100205F
:1016E00010B584B003AA0423137050700748053B5B
:1016F00000930333B42101F0B3F8041E02D020009C
:1017000004B010BDFFF7DAFFF9E7C0466001002022
:1017100000B585B00F226A440C23137002336B446A
:1017200000211970104801235B4200930233B43149
:1017300001F096F8002802D0002005B000BD0A484C
:1017400001235B42009302330E226A44B42101F06C
:101750004FF9002805D10E236B441B780130184047
:10176000EBE70020E9E7C0466001002010B56428DF
:1017700000D964200304181A6421FEF7A1FC034B6E
:101780001B680004000C586310BDC04618010020FF
:1017900010B50748002101F05DFF064B00221A70CA
:1017A0005A705A601A725A729A720132DA7210BD05
:1017B000180100209C03002010B5FFF7D7FF10BDD3
:1017C00010B50020FFF7D2FF10BD000010B5094B87
:1017D000187001225A7000221A725A72032804D01B
:1017E00000F08CFD034B586010BD9A720132DA7222
:1017F000F6E7C0469C03002070B5434B5B78002B96
:1018000003D0414B1B78002B00D170BD00F076FD5A
:1018100004003D4B1B78022B27D0032B4BD0012B10
:10182000F3D1394B5B688342EFD8374B5B7A002B9F
:1018300008D13220FFF79AFFC834334B5C60012295
:101840005A72E2E70020FFF791FFC8342E4A546035
:1018500000235372137A0133DBB21372022BD4D9F3
:10186000130000221A705A70CFE7274B5B6883423F
:10187000CBD8254B5B7A002B09D15020FFF776FFA0
:101880009134FF34204B5C6001225A72BDE7002086
:10189000FFF76CFF9134FF341B4A546000235372EE
:1018A000137A0133DBB21372012BAED9130000227D
:1018B0001A705A70A9E7144B5B688342A5D8124D81
:1018C000A87AFFF753FF0A346C60AB7A0B21695694
:1018D000EA7A9B18DBB2AB72632B07D9002905DDCE
:1018E000094B64229A729B32DA728EE7002B00D089
:1018F0008BE7002900DB88E70020FFF737FF024B6A
:1019000000221A705A7080E79C03002010B5FFF780
:10191000EBFC90200221C00501F0D6FB012812D07B
:10192000FFF73CFE084C0123237000F0FFFC01216F
:10193000002001F045FC00F001FDFFF725FEFFF758
:10194000ADFE0023237010BDA8030020FEE7FEE7D4
:101950007047704710B500F0C5FC10BD10B50120F0
:1019600001F0C0FB022001F0BDFB10BD10B520202E
:1019700001F0B8FB10BD000082B00A4B996901224A
:101980001143996199690A400092009ADA698021AD
:1019900049050A43DA61DB690B400193019B02B000
:1019A0007047C0460010024010B588B004001422F1
:1019B000002103A802F06DF92268124B9A4201D06F
:1019C00008B010BD104C63698022D20213436361DA
:1019D000636913400193019B03A9C0230393AE3BAA
:1019E0004B600F3BCB60023B0B61084801F0A8FA4B
:1019F000E369802292031343E361E3691340029396
:101A0000029BDDE700540040001002400004004843
:101A100082B00268074B9A4201D002B07047064B71
:101A20009A69802189020A439A619B690B4001935C
:101A3000019BF2E7004401400010024010B586B05F
:101A400004001422002101A802F023F922680D4BA2
:101A50009A4201D006B010BD0B4B5A698021C902D1
:101A60000A435A615B690B400093009B01A98023E4
:101A70005B000193FE3B4B600B61044801F060FA90
:101A8000E8E7C0460044014000100240000400485E
:101A900010B588B004001422002103A802F0F9F860
:101AA0002268134B9A4201D008B010BD114B9A69BD
:101AB0008021C9010A439A619A690A400192019AF8
:101AC0005A69802189020A435A615B690B4002937B
:101AD000029B03A9C023DB00039302234B60013365
:101AE000CB60023B0B619020C00501F029FADBE7D7
:101AF000003801400010024070B582B0041E00D1D1
:101B00002EE20368DB0726D5AE4B5A680C23134040
:101B1000042B18D0AB4B5A680C231340082B0ED063
:101B20006368012B3CD0002B51D1A64B1A68A64903
:101B30000A401A601A68A5490A401A6036E0A14BAB
:101B40005B68DB03ECD59F4B1B689B0303D5636885
:101B5000002B00D107E223689B0772D5994B5B6885
:101B60000C221A425DD0974B5A680C231340082B65
:101B700053D0E368002B00D185E0924A136801211D
:101B80000B43136000F0BAFB05008E4B1B689B07EC
:101B900070D400F0B3FB401B0228F6D90320E0E12B
:101BA000884A116880235B020B4313606368002B33
:101BB00025D000F0A3FB0500824B1B689B03CAD411
:101BC00000F09CFB401B6428F6D90320C9E1052BDB
:101BD00009D07C4B1A687C490A401A601A687B4914
:101BE0000A401A60E2E7774B19688022D2020A4362
:101BF0001A601968802252020A431A60D6E700F080
:101C00007DFB05006F4B1B689B03A4D500F076FBA2
:101C1000401B6428F6D90320A3E16A4B5B68DB0311
:101C2000A7D4684B1B689B0703D5E368012B00D042
:101C30009BE164490B68F82293432269D200134365
:101C40000B6023681B0744D5E369002B2ED05D4A47
:101C5000536A01210B43536200F050FB0500594BBE
:101C60005B6A9B0735D400F049FB401B0228F6D97C
:101C7000032076E153490B68F82293432269D2008E
:101C800013430B60DDE74F4A136801218B43136058
:101C900000F034FB05004B4B1B689B07D1D500F0CF
:101CA0002DFB401B0228F6D903205AE1454A536A0E
:101CB00001218B43536200F021FB0500414B5B6A1D
:101CC0009B0706D500F01AFB401B0228F6D903201B
:101CD00047E123685B0700D480E03A4BDB69DB0017
:101CE0001DD4384BDA69802149050A43DA61DB6982
:101CF0000B400193019B0125354B1B68DB0510D57B
:101D0000A368012B21D0002B36D12E4B1A6A01215A
:101D10008A431A621A6A03318A431A621AE000255A
:101D2000EAE72B4A116880235B000B43136000F045
:101D3000E5FA0600264B1B68DB05E1D400F0DEFA6D
:101D4000801B6428F6D903200BE11E4A136A012187
:101D50000B431362A368002B24D000F0CFFA0600D7
:101D6000184B1B6A9B0737D400F0C8FA801B194B2D
:101D70009842F5D90320F4E0052B09D0114B1A6ADB
:101D800001218A431A621A6A03318A431A62E1E71F
:101D90000C4B1A6A04210A431A621A6A03390A436D
:101DA0001A62D7E700F0AAFA0600064B1B6A9B07E7
:101DB00012D500F0A3FA801B064B9842F5D90320F8
:101DC000CFE0C04600100240FFFFFEFFFFFFFBFF19
:101DD0000070004088130000012D33D02368DB061B
:101DE00010D56369012B33D0053351D1654A536B4C
:101DF00004218B435363536BF4318B43A169C900B6
:101E00000B435363236A002B00D1B0E05D4A516855
:101E10000C220A40082A00D18AE0022B4FD0594AEE
:101E2000136859490B40136000F068FA0400554BE1
:101E30001B689B017AD500F061FA001B0228F6D9D5
:101E400003208EE04F4AD36950490B40D361C5E768
:101E50004C4B5A6B04210A435A635A6B03390A43A9
:101E60005A6300F04BFA0500464B5B6B9B0706D4A8
:101E700000F044FA401B0228F6D9032071E04149E2
:101E80004B6BF8229343A269D20013434B63B9E72B
:101E90003C4B5A6B04210A435A635A6B03398A43F9
:101EA0005A6300F02BFA0500364B5B6B9B07A9D5F4
:101EB00000F024FA401B0228F6D9032051E0314AF1
:101EC000136831490B40136000F018FA05002D4BE0
:101ED0001B689B0106D500F011FA401B0228F6D9B9
:101EE00003203EE0274BDA6A0F218A43E16A0A4366
:101EF000DA625A6826490A40A16A606A01430A43C5
:101F00005A601968802252040A431A6000F0F6F9F8
:101F100004001C4B1B689B0106D400F0EFF9001B6A
:101F20000228F6D903201CE000201AE0002018E067
:101F3000012B1ED0134B5A68D86A80235B021340D2
:101F4000616A8B4217D10F230340E16A8B4214D19F
:101F5000F0239B031A40A36A9A4210D1002000E0AC
:101F6000012002B070BD0120FBE70120F9E700204D
:101F7000F7E70120F5E70120F3E70120F1E7012071
:101F8000EFE7C04600100240FFFFFFFEFFFFFFEF3C
:101F9000FFFFC2FF10B5124B5A680C231340042BED
:101FA0001AD0082B1AD1910C073319400D48445C04
:101FB0000B49C96A0B400C49C95CD20304D50B48D4
:101FC000FEF77EF8604308E06201121B93019B1A42
:101FD000DB001B19180200E0044810BD0448FCE7B0
:101FE000001002402C6900081C6900080024F4005D
:101FF00000127A0070B504000D00002800D17EE0C8
:10200000434B1A68012313408B420AD240490B68A4
:10201000012293432B430B600B681A40AA4200D065
:102020006FE023689A070ED55B0705D5394A5168DA
:10203000E023DB000B435360364A5368F0218B43A7
:10204000A1680B4353602368DB072DD56368012B20
:102050001ED0022B22D02F4A1268920753D52D4949
:102060004A680320824313434B6000F047F906009F
:10207000284B5B680C221A4063689B009A4213D07D
:1020800000F03CF9801B244B9842F1D9032035E045
:10209000204A12689203E2D401202FE01D4A126800
:1020A0009201DCD4012029E0194B1A680123134066
:1020B000AB4209D916490B68012293432B430B60AD
:1020C0000B681A40AA4220D123685B0706D5114A43
:1020D000536812490B40E1680B435360FFF75AFF06
:1020E0000C4B5A6812090F2313400D4AD35CD84099
:1020F0000C4B1860032000F0BDF8002070BD0120DB
:10210000FCE70120FAE70120F8E70120F6E7C046E6
:10211000002002400010024088130000FFF8FFFF7B
:102120004469000810000020014B18687047C04641
:102130001000002010B5FFF7F7FF044B5A68120A91
:1021400007231340024AD35CD84010BD0010024060
:102150003C69000870B582B004000368DB0339D520
:102160003E4BDB69DB004CD43C4BDA6980214905EE
:102170000A43DA61DB690B400193019B0125384B6F
:102180001B68DB053FD5354B1A6AC0239B00110045
:1021900019401A4215D06368C022920013408B4246
:1021A0000FD02E4B1A6A2F4911401E6A8020400220
:1021B00030431862186A2C4E304018621962D207F8
:1021C00035D4264A136A27490B4061680B431362D2
:1021D000012D3BD02368DB0706D5204A136B032172
:1021E0008B43A1680B43136323689B0633D51B4ABB
:1021F000136B10218B43E1680B431363002002B083
:1022000070BD0025BBE7164A116880235B000B43B5
:10221000136000F073F80600114B1B68DB05B2D4A5
:1022200000F06CF8801B6428F6D90320E7E700F083
:1022300065F80600094B1B6A9B07C2D400F05EF8E4
:10224000801B0A4B9842F5D90320D8E7D369084987
:102250000B40D361BEE70020D1E7C046001002402A
:1022600000700040FFFCFFFFFFFFFEFF881300002F
:10227000FFFFFFEF10B504000F4B1978FA20800024
:10228000FDF71EFF01000D4B1868FDF719FF00F068
:1022900093FF00280DD1032C01D901200AE0013061
:1022A00000222100404200F077FF054B1C60002017
:1022B00000E0012010BDC0460900002010000020F1
:1022C0000C00002010B5064A136810210B43136060
:1022D0000320FFF7CFFFFFF74FFB002010BDC046E4
:1022E00000200240034A1168034B1B785B181360FF
:1022F0007047C046AC03002009000020014B18685D
:102300007047C046AC03002070B50400FFF7F6FF2D
:102310000500631C02D0044B1B78E418FFF7EEFFA6
:10232000401BA042FAD370BD09000020024A136886
:1023300002218B431360704710E000E0024A1368EB
:1023400002210B431360704710E000E002689369BC
:102350009B0701D50023936203689A69D20703D4CF
:102360009A6901210A439A617047000010B58905F6
:10237000890D120411431943029B1943490049086E
:10238000046862685B0D8020C0000340034803437B
:102390009A4313000B43636010BDC046FF63FF0305
:1023A000F0B5C64600B504000D00170001688B6942
:1023B000102216001E401A4200D175E01023CB6196
:1023C000002398460026206883699B0631D4002E9E
:1023D0002FD16B1CF7D0FFF791FFC01BA84201D88B
:1023E000002DF0D121684B688022D2011340422297
:1023F000A25CD2B28869000403D5002B01D1202A47
:102400000ED123689B699B06DDD4FFF777FFC01BC5
:102410001928F6D9202342461A4390460126D2E7CE
:102420004A688023DB0113434B60FFF767FF070017
:10243000E7E7002E01D12023C3610426434633433E
:102440001E00012522689369D90504D501210E4398
:10245000FF31D16101255A0506D5082216432268AD
:102460008021C900D16101259B051FD502231E4390
:10247000236880229200DA6101252000FFF766FFC1
:10248000226853680B490B405360636C33436364A9
:1024900041232022E25400232232A354023AA354BF
:1024A000280080BCB846F0BD0025CBE7002DF7D052
:1024B000E3E7C04600E800FE70B504000D0016001A
:1024C00023689B699B0720D4320029002000FFF776
:1024D00067FF00281BD16B1CF2D0FFF70FFF801B9A
:1024E000A84201D8002DEBD123689B699B07E7D454
:1024F000636C2022134363644123E254002322329D
:10250000A354023AA354012000E0002070BD012032
:10251000FCE7F0B5D6464F4680B583B007000D0006
:10252000160099460A9B9A463B689C692C40641B9E
:1025300063425C410196B44228D152464946380074
:10254000FFF72EFF002827D14B460133ECD0FFF7D1
:10255000D5FE5346C01A484502D84B46002BE3D15E
:102560003B689B692B405B1B5A425341019A934243
:10257000DAD17B6C202213437B644123FA5400237D
:102580002232BB54023ABB54012000E0002003B0C9
:10259000C0BCBA46B146F0BD0120F8E770B582B0C4
:1025A000040015001E008023F2B2194800905B045D
:1025B0002000FFF7DBFE079A06992000FFF77CFF5B
:1025C00000281ED1012E0ED12368EDB29D62079B1B
:1025D0000093069B002280212000FFF79AFF00282D
:1025E00013D102B070BD23682A0A9A62079A06992D
:1025F0002000FFF761FF002805D12368EDB29D623E
:10260000E5E70120EDE70120EBE70120E9E7C0461F
:102610000020008070B582B0040015001E00DAB200
:10262000184B00930023FFF7A1FE079A069920009C
:10263000FFF742FF00281ED1012E0ED12368EDB214
:102640009D62079B0093069B002240212000FFF71C
:1026500060FF002813D102B070BD23682A0A9A6275
:10266000079A06992000FFF727FF002805D1236865
:10267000EDB29D62E5E70120EDE70120EBE70120E7
:10268000E9E7C0460020008070B504000D00160088
:1026900003E023689B699B0612D523689B699B0610
:1026A0001BD4320029002000FFF77AFE002816D143
:1026B000FFF724FE801BA842EBD8002DEDD1E8E700
:1026C000636C2022134363644123E25400232232CB
:1026D000A354023AA354012000E0002070BD012061
:1026E000FCE70000F8B504000E001700002518E014
:1026F00000236364FFF702FEC01BB04201D8002E26
:102700000FD1002D0DD123689B695B0709D4636C41
:102710002022134363644123E254013B0022E2542C
:10272000013523689B695B0728D4002D26D13A0028
:1027300031002000FFF734FE002800D00125226878
:1027400093699B06D6D5002DD4D193699369DB0696
:10275000CED51023D3610C3B636423682022DA6159
:1027600021684B68064803404B604123E254002334
:102770002232A354023AA3540135BBE72800F8BD26
:1027800000E800FE10B5041E60D04123C35C002B9E
:1027900048D041232422E2542268136801218B434C
:1027A0001360636822682A490B40136122689368AA
:1027B00028490B409360E368012B39D0A168226857
:1027C00084231B020B439360E368022B37D02268FB
:1027D000536821490B405360226851681F4B0B43DB
:1027E00053602268D3681B490B40D3602369626938
:1027F0001343A269120221681343CB60E369216A83
:1028000022680B4313602268136801210B43136095
:102810000023636441221F31A15423630132A35476
:10282000002010BD40330022C254FFF7BDF8B0E7CE
:10283000A168226880231B020B439360C4E72268CF
:10284000516880231B010B435360C5E70120E8E773
:10285000FFFFFFF0FF7FFFFFFFF7FFFF0080000299
:10286000F0B585B004000E00029203930A9D412347
:10287000C35C202B00D0AAE02033C35C012B00D125
:10288000A8E040230122C254FFF738FD0700802151
:1028900000901923012209022000FFF73AFE0028C8
:1028A00000D099E041232122E2540133113AE2544D
:1028B00000236364029A6262039A62856363638D94
:1028C000FF2B1ED9FF23238580235B04228D002A42
:1028D0001CD02268029909789162626A01326262B0
:1028E000628D013A92B26285228D013A92B22285BE
:1028F0000132D2B23C49009131002000FFF736FD91
:1029000018E0638D238580239B04DFE7D2B236492C
:10291000009131002000FFF729FD0BE0628D92B29B
:1029200022858023D2B2002100919B043100200037
:10293000FFF71CFD638D002B32D03A0029002000E8
:10294000FFF7BAFD002849D1626A236812789A62BB
:10295000636A01336362638D013B9BB26385238DA0
:10296000013B9BB22385628D002AE3D0002BE1D18D
:1029700000972B00002280212000FFF7CAFD0028CD
:102980002ED1638DFF2BC9D9FF2323857F3B0022E6
:1029900000925B04FF3231002000FFF7E7FCC9E73B
:1029A0003A0029002000FFF76FFE00281AD12368A3
:1029B0002022DA6121684B680C4D2B404B6041238B
:1029C000E25400232232A354023AA35400E002202E
:1029D00005B0F0BD0220FBE70120F9E70120F7E791
:1029E0000120F5E70120F3E70020008000E800FE69
:1029F000F0B585B004000F00029203930A9D4123B5
:102A0000C35C202B00D097E02033C35C012B00D1A6
:102A100095E040230122C254FFF770FC060080219C
:102A200000901923012209022000FFF772FD0028FF
:102A300000D086E041232222E2540133123AE254CC
:102A400000236364029A6262039A62856363638D02
:102A5000FF2B0BD9012323857F333E4A00925B0471
:102A6000012239002000FFF781FC18E0628D92B24C
:102A700022858023D2B2374900919B04390020007F
:102A8000FFF774FC0BE0628D92B222858023D2B2F4
:102A9000002100919B0439002000FFF767FC638D43
:102AA000002B32D0320029002000FFF71BFE002847
:102AB00049D123685A6A636A1A70636A0133636290
:102AC000238D013B9BB22385628D013A92B26285D0
:102AD000628D002AE3D0002BE1D100962B0000226A
:102AE00080212000FFF715FD00282ED1638DFF2BDC
:102AF000C9D9FF2323857F3B002200925B04FF326C
:102B000039002000FFF732FCC9E73200290020001D
:102B1000FFF7BAFD00281AD123682022DA61216864
:102B20004B680D4D2B404B604123E2540023223271
:102B3000A354023AA35400E0022005B0F0BD0220E5
:102B4000FBE70120F9E70120F7E70120F5E7012085
:102B5000F3E7C0460024008000E800FEF0B587B02F
:102B600004000391049205930CAB20CB1F884123F2
:102B7000C35C202B00D0AFE0002D18D0002F16D062
:102B80004023C35C012B00D1A9E040230122C254A1
:102B9000FFF7B4FB060080210090192301220902EF
:102BA0002000FFF7B6FC002806D0012095E0802326
:102BB0009B006364012090E041232122E254013311
:102BC0001F32E25400236364656267856363019684
:102BD0000E9B0093059B049A03992000FFF7DEFCEF
:102BE00000280ED1638DFF2B10D9FF2323857F3B57
:102BF000002200925B04FF3203992000FFF7B6FB2E
:102C000020E040230022E254012066E0628D92B26F
:102C100022858023D2B2002100919B0403992000D9
:102C2000FFF7A4FB0EE0628D92B222858023D2B220
:102C3000002100919B0403992000FFF797FB638D0F
:102C4000002B32D032000E992000FFF735FC00280F
:102C500047D1626A236812789A62636A01336362B9
:102C6000638D013B9BB26385238D013B9BB2238522
:102C7000628D002AE3D0002BE1D100960E9B00224A
:102C800080212000FFF745FC00282CD1638DFF2B0D
:102C9000C9D9FF2323857F3B002200925B04FF32CA
:102CA00003992000FFF762FBC9E732000E9920006C
:102CB000FFF7EAFC002818D123682022DA61216896
:102CC0004B680B4D2B404B604123E25400232232D2
:102CD000A354023AA35400E0022007B0F0BD022042
:102CE000FBE70120F9E70120F7E70120F5E7C046FF
:102CF00000E800FEF0B587B004000391049205934C
:102D00000CAB20CB1F884123C35C202B00D0B1E04B
:102D1000002D18D0002F16D04023C35C012B00D10A
:102D2000ABE040230122C254FFF7E8FA06008021FD
:102D300000901923012209022000FFF7EAFB002876
:102D400006D0012097E080239B006364012092E07D
:102D500041232222E25401331E32E25400236364F1
:102D600065626785636301960E9B0093059B049AD9
:102D700003992000FFF74EFC00280ED1638DFF2B36
:102D800010D9012323857F33404A00925B0401223E
:102D900003992000FFF7EAFA20E040230022E254E2
:102DA000012068E0628D92B222858023D2B2374939
:102DB00000919B0403992000FFF7D8FA0EE0628D82
:102DC00092B222858023D2B2002100919B04039904
:102DD0002000FFF7CBFA638D002B34D000960E9BBA
:102DE000002204212000FFF794FB002847D123682C
:102DF0005A6A636A1A70636A01336362238D013B06
:102E00009BB22385628D013A92B26285628D002A5F
:102E1000E1D0002BDFD100960E9B00228021200004
:102E2000FFF777FB00282CD1638DFF2BC7D9012337
:102E300023857F33002200925B0401320399200036
:102E4000FFF794FAC7E732000E992000FFF71CFC49
:102E5000002818D123682022DA6121684B680C4DC4
:102E60002B404B604123E25400232232A354023A08
:102E7000A35400E0022007B0F0BD0220FBE70120D0
:102E8000F9E70120F7E70120F5E7C04600240080BC
:102E900000E800FEF0B54123C35C202B20D1203395
:102EA000C35C012B1ED0402401220255412524235E
:102EB00043550668336893433360066833680A4FA6
:102EC0003B403360066833680B43336001680B682E
:102ED00013430B6020234355002303550020F0BD0E
:102EE0000220FCE70220FAE7FFEFFFFFF0B54123E5
:102EF000C35C202B1ED12033C35C012B1CD040248B
:102F00000122025541252423435506683368934323
:102F1000336006683368094F3B400902194331604A
:102F200001680B6813430B602023435500230355AE
:102F30000020F0BD0220FCE70220FAE7FFF0FFFFCF
:102F4000F0B583B0002356E086685F000324BC40E0
:102F5000A643CC68BC4034438460446894434E68C4
:102F60003609012232409A402243426053E0DE0893
:102F70000836B600375805321A4092000F249440A4
:102F8000A7430C69944022003A43325056E003268E
:102F900000E00026A64034003C4302329200444E3A
:102FA0009451444A9768EA433E00AE434C68E402B9
:102FB00001D53E002E433F4CA660E7683E00164018
:102FC0004C68A40201D53E002E433A4CE660676887
:102FD0003E0016404C68A40301D53E002E43354CFC
:102FE0006660266832404C68E40301D52A0032430B
:102FF000304C226001330C682200DA4056D00122A6
:103000009A40250015401442F4D04E680324344001
:10301000013C012C98D94C6803222240032A08D095
:10302000C4685E000322B24094438A68B2402243DF
:10303000C2604C6803222240022A98D004685E00D5
:1030400003221700B740BC434F683A40B2402243C6
:1030500002604C68C02292021442CBD0164CA66982
:1030600001221643A661A46922400192019A9A089E
:10307000941CA4000E4EA75903241C40A4000F2644
:10308000A640B7439026F605B04282D00B4EB04220
:1030900008D00B4EB04207D00A4EB04200D176E7BE
:1030A000052677E7012675E7022673E703B0F0BD32
:1030B00000000140000401400010024000040048EC
:1030C00000080048000C004803690B4201D00120B1
:1030D00070470020FCE7002A01D0816170478162BF
:1030E000FCE7000010B5054B5B69184200D110BD2C
:1030F000024B5861FDF79EFAF9E7C0460004014013
:1031000070B5002811DB8308134DC0339B005C5958
:1031100003221040C000FC3216008640B4438901EF
:103120000A40824022435A5170BD0F230340083B9E
:103130009B0806339B00094A944663445C6803225B
:103140001040C000FC3215008540AC4389010A40A4
:10315000824022435A60E7E700E100E000ED00E032
:10316000013880235B0498420FD2094A5060094815
:10317000036A1B021B0AC02109060B4303620023DA
:10318000936007331360002070470120FCE7C046BE
:1031900010E000E000ED00E010B5FFF7B1FF10BD5A
:1031A000002805DB1F22024001239340014A1360DF
:1031B0007047C04600E100E010B5FFF7D1FF10BD39
:1031C000064A1369042083431361012903D040BFD9
:1031D00020BF20BF704730BFFCE7C04600ED00E0D5
:1031E0007047000030B5056A036A01229343036209
:1031F000426883697324A3430C681C4302239D43E4
:103200008B682B43154DA84208D0154DA84205D018
:10321000144DA84202D0144DA84206D10825AB4354
:103220001D00CB682B430425AB430C4DA84208D0AE
:103230000B4DA84205D00B4DA84202D00A4DA84222
:1032400005D10A4D2A404D6915438A692A434260D7
:1032500084614A684263036230BDC046002C01406D
:10326000004001400044014000480140FFFCFFFFD6
:1032700030B5046A036A184A134003624268C3699E
:103280007325AB430D681D43144B1C408B681B0218
:103290002343134CA04209D0124CA0420DD0124C33
:1032A000A0420AD0114CA0420FD106E0104C1C40A5
:1032B000CB681B0223430F4C23400F4C22404C6928
:1032C000240114438A69120122434260C5614A689D
:1032D000C263036230BDC046FFFEFFFFFFFDFFFF7C
:1032E000002C0140004001400044014000480140E2
:1032F000FFF7FFFFFFFBFFFFFFCFFFFF30B5046AC3
:10330000036A134A134003624368C269114D2A409D
:103310000D682D021543104A14408A681203224397
:103320000E4CA04208D00E4CA04205D00D4CA0423D
:1033300002D00D4CA04204D10C4C1C404B699B01A7
:1033400023434360C5614B680364026230BDC046DD
:10335000FFEFFFFFFF8CFFFFFFDFFFFF002C0140AF
:10336000004001400044014000480140FFBFFFFF12
:10337000704700000368204A904202D01F4A9042E2
:1033800003D1702293434A6813431B4A90420ED0E4
:103390001A4A90420BD01A4A904208D0194A9042D9
:1033A00005D0194A904202D0184A904203D1184AD7
:1033B0001A40CB681343802293434A691343036046
:1033C0008B68C3620B6883620B4B984208D00D4B2D
:1033D000984205D00C4B984202D00C4B984201D138
:1033E0000B690363012343610269134203D003693C
:1033F0000122934303617047002C01400004004008
:1034000000200040004001400044014000480140CD
:10341000FFFCFFFF70B5041E26D03D23C35C002BCC
:103420001CD03D2502236355210001C9FFF7A2FFEF
:1034300001234622A354083AA3540132A354013273
:10344000A3540132A3540132A3540132A3540132D4
:10345000A3540132A3546355002070BD3C330022B5
:10346000C254FEF7D5FADCE70120F6E770B5041E7A
:1034700026D03D23C35C002B1CD03D250223635581
:10348000210001C9FFF776FF01234622A354083A21
:10349000A3540132A3540132A3540132A354013284
:1034A000A3540132A3540132A3540132A3546355EF
:1034B000002070BD3C330022C254FFF759FFDCE707
:1034C0000120F6E770B5026A036A1024A343036281
:1034D00044688369164D2B400D682D021D4320233F
:1034E0009A438B681B011343124A904209D0124A37
:1034F00090420ED0114A90420BD0114A904210D106
:1035000007E0802293431E00CB681B013343403AFF
:1035100093430C4A14404A69920022438C69A400E8
:103520001443446085614A688263036270BDC0468B
:10353000FF8CFFFF002C014000400140004401408F
:1035400000480140FFF3FFFF70B504000D003C236D
:10355000C35C012B00D16AE03C230121C154082A3D
:1035600050D01CD8002A35D0042A16D10068290072
:10357000FFF7A8FF2268916980231B010B43936129
:10358000226893692B490B40936121688B692A69F2
:10359000120213438B61002030E001202EE00C2A40
:1035A00016D100682900FFF7A9FE2268D16980239F
:1035B0001B010B43D3612268D3691E490B40D361C1
:1035C0002168CB692A6912021343CB61002015E000
:1035D000012013E000682900FFF704FE22689369C8
:1035E00008210B4393612268936904398B439361EB
:1035F0002268936929690B43936100203C230022D0
:10360000E25470BD00682900FFF732FE2268D369DA
:1036100008210B43D3612268D36904398B43D361FA
:103620002268D36929690B43D3610020E6E70220B1
:10363000E7E7C046FFFBFFFF10B51F231940012439
:103640008C40036AA3430362036A8A401343036204
:1036500010BD000010B50400002932D13E23C35C28
:10366000013B5A1E9341DBB2002B5ED1002941D1B0
:103670003E330222E25420680122FFF7DDFF236877
:103680002C4A934208D02C4A934205D02B4A9342AD
:1036900002D02B4A934204D1596C802212020A4371
:1036A0005A642368234A934234D0264A934231D045
:1036B000214A93422ED01A6801210A431A60002041
:1036C00034E0042908D008290DD04123C35C013B14
:1036D0005A1E9341DBB2C7E73F23C35C013B5A1E2E
:1036E0009341DBB2C0E74023C35C013B5A1E9341C8
:1036F000DBB2B9E7042905D0082907D0412302220B
:10370000E254B8E73F230222E254B4E74023022206
:10371000E254B0E7996807220A40062A07D01A68DF
:1037200001210A431A60002000E0012010BD0020A2
:10373000FCE7C046002C014000400140004401402D
:10374000004801400004004010B53C23C35C012B3D
:1037500021D03C2201238354CB68104C23408C6839
:1037600023430F4C23404C6823430E4C23400C68EA
:1037700023430D4C23400C6923430C4C23404C69DC
:1037800023430B4C2340C9690B4301684B6400235E
:103790008354002010BD0220FCE7C046FFFCFFFF61
:1037A000FFFBFFFFFFF7FFFFFFEFFFFFFFDFFFFF65
:1037B000FFBFFFFF10B5EFF3108C012282F31088DA
:1037C00001680B68124C23400B608CF31088EFF3F8
:1037D000108C82F3108801688B6893438B608CF3A4
:1037E0001088036E012B06D080232022C2500023B4
:1037F0000366836610BDEFF3108183F310880268BF
:1038000013683234FF34A343136081F31088EBE76D
:10381000DFFEFFFF10B504008368026913434269AD
:103820001343C269134301680A684E4802401343B8
:103830000B60226853684C490B40E1680B435360AE
:10384000A369226A1A4321688B68484803401343DE
:103850008B602368464A934211D0464A93421FD058
:103860001023E06980221202904223D0042B6AD0F8
:103870004ED8002B53D0022B48D13F4853E03F4B4A
:103880001A6B03231340022B0CD005D8002B0BD04E
:10389000012B0BD10333E4E7032B09D1013BE0E714
:1038A0000023DEE70823DCE70023DAE71023D8E76C
:1038B0001023D6E7042B26D007D8002B09D0022BE3
:1038C00001D12D4809E0012047E0082B05D0012057
:1038D00043E0FEF72FFC002838D0400061684B0819
:1038E000C018FCF7EDFB0200103A254B9A422FD886
:1038F00082B20F239A434008083B034013432268D7
:10390000D360002029E0FEF745FBE4E7012024E036
:10391000082B02D18020000205E001201DE0FEF707
:1039200009FC002816D061684B081818FCF7C8FB82
:103930000200103A124B9A420ED823680004000C81
:10394000D860002009E0FEF725FBEAE7002004E04C
:10395000012002E0002000E001200023A366E366CE
:1039600010BDC046F369FFFFFFCFFFFFFFF4FFFF6D
:10397000003801400044004000127A00001002406C
:10398000EFFF0000436A1B0706D5026853682C4905
:103990000B40416B0B435360436ADB0706D502685B
:1039A000536828490B40816A0B435360436A9B0765
:1039B00006D50268536824490B40C16A0B43536023
:1039C000436A5B0706D50268536820490B40016BC8
:1039D0000B435360436ADB0606D5026893681C49B3
:1039E0000B40816B0B439360436A9B0606D50268CC
:1039F000936818490B40C16B0B439360436A5B06A5
:103A00000BD50268536814490B40016C0B4353609B
:103A1000026C80235B039A420AD0436A1B0606D5D8
:103A2000026853680D490B40816C0B43536070472B
:103A3000026853680A490B40416C0B435360ECE742
:103A4000FF7FFFFFFFFFFDFFFFFFFEFFFFFFFBFF0D
:103A5000FFEFFFFFFFDFFFFFFFFFEFFFFFFFF7FFBE
:103A6000FFFF9FFFF8B5CE46474680B506000D0024
:103A700017009946089B98463368DC692C40641B04
:103A800063425C41BC4233D143460133F4D0FEF77C
:103A900035FC4B46C01A40452FD84346002B2ED04C
:103AA000326813685B07E7D5802DE5D0402DE3D061
:103AB000D3691B0710D4D3691B05DDD580231B01F7
:103AC00013623000FFF776FE84232022F2500C3B75
:103AD0000022F25403200CE0082414623000FFF7A7
:103AE00069FE8423F4500C3B0022F254012000E0D4
:103AF0000020C0BCB946B046F8BD0320F9E703205A
:103B0000F7E7000030B583B0040084230022C250E0
:103B1000FEF7F4FB050023681B681B070FD423681E
:103B20001B685B0729D42023E3678022A35000236E
:103B300023666366083AA354002003B030BD802199
:103B4000224B00930300002289032000FFF78AFF25
:103B50000028E4D0EFF31081012383F3108822685A
:103B6000136880208343136081F310882023E36768
:103B700058330022E2547D38DFE78021134B009355
:103B80002B000022C9032000FFF76CFF0028CAD0D9
:103B9000EFF31080012282F3108821680B680C4D2E
:103BA0002B400B6080F31088EFF3108082F31088B5
:103BB00021688B6893438B6080F3108880231F32C9
:103BC000E250083B0022E2540320B6E7FFFFFF016A
:103BD000DFFEFFFF10B5041E2ED0C36F002B21D0D7
:103BE0002423E3672268136801218B431360636A0F
:103BF000002B1DD12000FFF70DFE012811D02268F7
:103C000053680E490B4053602268936808218B4328
:103C100093602268136807390B4313602000FFF795
:103C200071FF10BD78330022C254FDF731FFD7E792
:103C30002000FFF7A7FEDDE70120F2E7FFF7FFFF17
:103C40000D488546FFF7CCFA0C480D490D4A002374
:103C500002E0D458C4500433C4188C42F9D30A4A41
:103C60000A4C002301E013600432A242FBD300F0AF
:103C70001FF8FCF7C5FDFEE7002000200000002033
:103C800064000020246A000864000020E80400208A
:103C9000FEE703008218934200D170471970013388
:103CA000F9E70000014B18687047C0461400002077
:103CB00070B500260C4C0D4D641BA410A64209D112
:103CC000002602F01FFE0A4C0A4D641BA410A642F7
:103CD00005D170BDB300EB5898470136EEE7B3004D
:103CE000EB5898470136F2E71C6A00081C6A000886
:103CF000206A00081C6A000870B5041C00F042F835
:103D0000211C051C201C01F0A3F9002810D1201C47
:103D100000F030F8FE218905FCF7ACFB002807D045
:103D2000FFF7C0FF21230360024800F027F8051CBD
:103D3000281C70BD5469000870B5041C00F084F99B
:103D4000211C051C201C01F083F9002805D100214D
:103D5000201CFCF77BFB002801D1281C70BDFFF75D
:103D6000A1FF212300210360081C00F00FFC051CAB
:103D7000F3E7C046400040087047C046004870471F
:103D80000000C07FFE22F8B543000100041C5B0860
:103D90009205934211D00AD8FC229205934211D287
:103DA0008C229205934200D97EE0984804E000F00E
:103DB0000DFF011C00F0EAFBF8BD0020002CFBDC2D
:103DC0009348F9E7002800DAC1E0FE20800500F002
:103DD000FDFEFC21890500F0A7FD041C00F034F96C
:103DE0008C49061C050B201C00F09EFD8A4900F042
:103DF000BFF9211C00F098FD884900F0E7FE211C66
:103E000000F092FD864900F0B3F9211C00F08CFD12
:103E1000844900F0DBFE211C00F086FD824900F0A1
:103E2000A7F9211C00F080FD8049071C201C00F030
:103E30007BFD7F4900F0CAFE211C00F075FD7D4925
:103E400000F096F9211C00F06FFD7B4900F0BEFEEA
:103E5000211C00F069FDFE21890500F089F9011C93
:103E6000381C00F093FB311C00F05EFD2D03071C95
:103E7000291C281C00F058FD011C201C00F0A6FE87
:103E8000291C041C301C00F073F9011C201C00F0DC
:103E90007DFB011C381C00F06BF9291C00F068F94F
:103EA000011C00F065F987E700F03EFD5949051C4B
:103EB00000F03AFD584900F05BF9291C00F034FD90
:103EC000564900F083FE291C00F02EFD544900F0F5
:103ED0004FF9291C00F028FD524900F077FE291CFB
:103EE00000F022FD504900F043F9291C00F01CFDB0
:103EF0004E49061C281C00F017FD4D4900F066FED7
:103F0000291C00F011FD4B4900F032F9291C00F08A
:103F10000BFD494900F05AFE291C00F005FDFE2169
:103F2000890500F025F9011C301C00F02FFB211C35
:103F300000F0FAFC011C414800F048FE011C201C66
:103F400000F044FE011C3E4800F040FE34E7FE2134
:103F5000890500F00DF9FC21890500F0E5FC2D49EB
:103F6000041C00F0E1FC2C4900F002F9211C00F0D7
:103F7000DBFC2A4900F02AFE211C00F0D5FC284970
:103F800000F0F6F8211C00F0CFFC264900F01EFEE0
:103F9000211C00F0C9FC244900F0EAF8211C00F0C3
:103FA000C3FC2249051C201C00F0BEFC204900F087
:103FB0000DFE211C00F0B8FC1E4900F0D9F8211CB0
:103FC00000F0B2FC1C4900F001FE211C00F0ACFC2A
:103FD000FE21890500F0CCF8061C201C00F034F806
:103FE000311C041C281C00F0D1FA211C00F09CFCA0
:103FF000124900F0EBFD211C00F0BAF8011C00F0A2
:10400000B7F8011C0F4800F0E1FDD5E6DB0FC93F12
:10401000DB0F494008EF1138047F4F3A4611243D29
:10402000A80A4E3E90B0A63EABAA2A3E2EC69D3DA3
:104030006133303F2D57014039D119406821A233F7
:10404000DA0FC93FDA0F4940F0B5FF21C6464300F9
:10405000020000B5041C5B08C9058B4251D2002B3D
:104060004CD0002856DBC315014208D18021002323
:10407000090452001C0001330A42FAD06342802432
:104080001E005202520A24047F3E1443DB073FD530
:104090008022192100270025761064005204A818F8
:1040A0002300A04202DC8518231ABF1801395C00E6
:1040B00052080029F3D1002B19D01C4C1C4D20684C
:1040C00029682368984600F081FD011C4046FCF7F2
:1040D000C7F900280BD02068296800F049F8246847
:1040E000011C201CFCF7B2F900281AD00237FC236F
:1040F0009B059C467F106744F005C01980BCB846FC
:10410000F0BD011C00F010FC211C00F031F8F5E7B7
:104110006400BDE7011C00F059FD011C00F036FAF7
:10412000ECE7012301379F43E1E7C0465C690008E3
:104130005869000870B500220C4B04000D00FCF714
:1041400069F9002804D12000290002F029FB70BD84
:10415000064B00222000290001F0EAFE02F020FBBD
:1041600080231B069C466044F1E7C0460000E04106
:104170004A02F8B5530ACE4699464B00C90F474646
:10418000884646004502360E1B0E80B5C40F6F0AE6
:104190009209AD09F11A44454BD0002938DD002BB6
:1041A00000D174E0FF2E00D1BEE08023DB041A436F
:1041B0001B2900DCFDE0013D6B0100D4AFE00125CF
:1041C0006D42AD01AF093800FCF768F93B000538D6
:1041D0008340864200DCD3E0B94D311A1D405A07B6
:1041E00000D19EE00F221340042B00D199E004354A
:1041F0006B0100D495E0481CFE2951D1FF2000231B
:10420000C0051843E4072043C0BCB946B046F8BD1A
:10421000002949D0991B002E72D1002D00D133E125
:104220004C1E012900D159E1FF2900D14CE12100A8
:104230006CE0002900DC81E0002B55D1002A70D011
:104240004B1E012900D12BE1FF296DD01B2B50DC27
:10425000190020235B1A10009A40C840531E9A414F
:104260000243AD188023DB041D4200D1ADE0711C78
:10427000FE2EC3D001206A082840924D1540054308
:104280006A0700D08BE01D42B5D1EF0834E0002A68
:1042900047D04B1E012966D0FF2945D0190087E77A
:1042A000C0B2AB015B0AABE7FE239C46701C030067
:1042B0006046184200D092E0002E00D0E7E0002DCA
:1042C00000D119E1002A17D08023AF1ADB041F4266
:1042D00000D142E14446551B00D187E001201D4238
:1042E000DFD10021EF0807E0FF2E1DD01B2900DCE5
:1042F00094E031000535EF087B025B0AC8B27FE726
:10430000FF2B00D1E0E08020C00405431B2900DC26
:1043100088E0551E44461E00690100D54FE7310074
:104320000435EF08FF29E7D1002F00D166E780238D
:10433000DB033B435B02FF205B0A61E7002958D0A7
:10434000991B002E00D089E0002D00D19DE04E1E6B
:10435000012900D1A4E0FF2900D1B6E01B2E00DD29
:10436000B8E0310081E0AA1A530100D4AFE0970110
:10437000BF093800FCF792F83B000538834001265E
:104380001D00811B20200131CD40411A8B40591E58
:104390008B411D432AD000216B0700D1F0E00F2391
:1043A0002B40042B00D022E76B0100D523E7EF0858
:1043B000A2E720235B1A10009A40C840531E9A417E
:1043C0000243AD1A6B0100D5FBE66B0700D1D5E0C7
:1043D0000F2331002B40042B00D008E7A1E7AF1AD0
:1043E0007B014ED4002F00D0EDE6002400200023F6
:1043F00006E7FE23711C0B4221D1002E00D081E084
:10440000002D00D19FE0002A00D1B2E0AB185A0184
:1044100000D4B0E09B0101205B0AF1E68023DB04BD
:104420001A4316E720242800C840611A8D4029004D
:104430004C1EA141014344461E00551AC2E7FF2904
:1044400000D1DBE6AF187F087B0705D00F233D1DA9
:104450003B40042B00D064E7FF084DE7FF2B34D02E
:104460001B2937DC8020C004054328002026C840D3
:10447000711A8D4029004D1EA94101431E008D185F
:10448000F0E64446571B9EE64446150049E7002DDA
:1044900046D1002A66D180230024FF20DB03AFE64B
:1044A000AA18530113D5074F52081740530744D099
:1044B0000F231340042B40D002213D1D31E7C0469D
:1044C000FFFFFFFBFFFFFF7D44464F462CE7012126
:1044D000D70811E705321900D7080DE7571B7B01F4
:1044E00037D5BF01BF093800FBF7D8FF3B000538BF
:1044F00083404446013643E7002A00D175E744462D
:104500004F46F9E6002DE0D08023DB03002A17D0C8
:104510009F4200D20BE7994500D308E74F4606E7D4
:104520008023DB03002A0BD09F4200D2FFE699458F
:1045300000D3FCE644464F46F9E60221FF08DBE6DD
:10454000FF203B435CE6002A00D14FE70021D7085B
:10455000D2E644460121FF08CEE6002F00D07BE7DB
:10456000002443E780234A46DB034446FF201343ED
:1045700046E60021C0E60021DF08BDE63100D0E6B6
:1045800001206A0100D58BE62A00DFE7F0B5464638
:104590004F46D6464502C0B5C30F470098460E1C8D
:1045A0006D0A3F0E5BD0FF2F21D08023ED00DB048E
:1045B0001D43002399469A467F3F74027300640AA4
:1045C0001B0EF60F002B20D0FF2B43D080220020A3
:1045D000E400D20414437F3B4246FF1A4B4672402C
:1045E0000F2B00D99DE071499B00CB589F46002DB1
:1045F0005AD108239946063B74029A467300FF2756
:10460000640A1B0EF60F002BDED1002C3BD10123D8
:1046100042464946724019430E2918D86448890019
:1046200041588F465346022B00D1B8E0032B6ED081
:1046300042462C00012B40D100200024C00520431D
:10464000D2071043E0BCBA46B146A846F0BDFF20F1
:104650000024F3E7002C20D10223FF3FD8E7002DF0
:1046600005D104239946033B00279A46A5E7280075
:10467000FBF714FF7627431F9D4000237F42994696
:104680009A463F1A99E72000FBF708FF431F9C401A
:1046900076235B421B1A00209EE703234A461A43F7
:1046A00091460320FC3397E70C239946093BFF27EB
:1046B0009A4682E703282CD0320038007F30002849
:1046C00047DD630704D00F232340042B00D00434BC
:1046D000230103D53800374B80301C40FE28B6DC60
:1046E000A401640AC0B2A9E780240022FF20E403E9
:1046F000A4E78023DB031D4201D01C420BD08024A1
:10470000E4032C4364024246FF20640A96E74646CF
:104710002C008023DB031C4364023200FF20640A68
:104720008CE76D01600185422DD21B230024013FDF
:104730000126290064006D00002901DB854201D3B8
:104740002D1A3443013B002BF3D16B1E9D412C43AA
:10475000B3E701231B1A1B2B00DD6DE721009E37F9
:10476000D940BC400B00611E8C412343590704D043
:104770000F211940042900D00433590113D49B019F
:1047800000205C0A5AE71A2301242D1AD0E7981E4C
:1047900043425841404232000024C0B24EE74246F4
:1047A000FF2000244AE70120002447E76069000851
:1047B000A0690008FFFFFFF770B542004E024C00F1
:1047C00045026D0A120EC30F760A240EC90FFF2A86
:1047D00010D0FF2C0CD00120A2420AD1B54208D142
:1047E0008B420FD0002A04D12800431E984100E0DC
:1047F000012070BD0120FF2CFBD13543F9D14B4086
:104800001800F6E70020F4E730B5420044024D02FC
:10481000C30F4800640A120E6D0A000EC90FFF2A6A
:1048200018D0FF280AD0002A1ED100280AD1002D56
:1048300029D0002C2DD14800013830BD002D25D1C4
:10484000002A01D1002CF6D08B4219D001205B4206
:104850001843F2E7002C19D1FF28F7D1002D15D10C
:1048600000208B42F2D1E8E70028EFD08B42EDD157
:104870008242EBDC04DBAC42E8D80020AC42DCD264
:1048800058000138D9E7002CD7D0DFE7022040429A
:10489000D3E78B42DAD1EEE730B5420044024D0255
:1048A000C30F4800640A120E6D0A000EC90FFF2ADA
:1048B00017D0FF280AD0002A1BD100280AD1002DCA
:1048C0001DD0002C2DD14800013811E0002D0ED153
:1048D000002A01D1002CF6D08B420CD158000138AF
:1048E00006E0002C03D1FF2805D1002D15D00220B1
:1048F00030BD002806D101205B421843F8E7002CA8
:10490000F6D0F8E78B42F6D18242F4DCE6DBAC422B
:10491000F1D80020AC42EBD2E0E700208B42EAD194
:10492000E6E78B42E7D1F2E7F0B54F464646D6467A
:104930004502C0B546000F1C6D0A360EC40F002E8E
:1049400000D1CDE0FF2E72D08023ED00DB041D43AB
:10495000002399469A467F3E7B025B0A98467B007D
:104960001B0EFF0F002B72D0FF2B00D1A9E07F3B65
:10497000F6184B460A2B00DD85E043468022DB001B
:10498000D2041A434B4690467C400022022B0FDD96
:10499000494601238B40A621C9000B4200D072E09A
:1049A000902189000B4200D0DAE08821194267D1BA
:1049B000280C42462D042D0C4346290012041B0CE2
:1049C000120C51435D4342435843AD180B0C5B1925
:1049D0009A4203D9802252029446604409041A0480
:1049E000090C52189501691E8D411B0C920E1B1863
:1049F00015439B011D431B0100D5CFE030007F30E4
:104A0000002800DCB1E06B070BD00F2332002B40F5
:104A1000042B06D004352B0103D5803210006A4BDD
:104A20001D40FE2864DCAB015B0AC0B21FE0002D14
:104A300000D08FE008239946063B9A467B025B0A2A
:104A400098467B00FF261B0EFF0F002B8CD14346A0
:104A5000002B5CD14A4601331A43914613000A2ABF
:104A600011DC01227C40022B92DC00200023C005D7
:104A70001843E4072043E0BCBA46B146A846F0BD5F
:104A80003C00454692465346022B31D0032B11D0B1
:104A9000012BEAD030008030721C002866DD6B07E5
:104AA000B9D00F232B40042BB4D1B4E70F2A7AD00E
:104AB0003C0045468023DB032B435B02FF205B0A5F
:104AC000D5E74346FF36002B34D14A460233134321
:104AD0000A2BD8DC7C40002A0AD09946022257E7EC
:104AE000002D08D104239946033B00269A4633E75C
:104AF000FF200023BBE72800FBF7D0FC7626431FEE
:104B00009D400023764299469A46361A24E740464D
:104B1000FBF7C4FC4B46361A763E0A2BB3DC434601
:104B20000538834098464B4600227C40022B00DD2E
:104B30002EE73DE703234A461A4313000A2AB5DC51
:104B400001229A40882113007C400322194200D19F
:104B50002EE795E70C239946093BFF269A46FBE68C
:104B600080230024FF20DB0381E7320001231B1A8E
:104B70001B2B00DD79E79E3229009540D9406A1E43
:104B800095410D436B0704D00F232B40042B00D01D
:104B900004356B0113D50120002368E701236A085F
:104BA0001D40154376E78023DB031D4282D0424639
:104BB0001A4200D07EE73C00FF20134357E7AB01C9
:104BC00000205B0A53E7C046FFFFFFF7F8B54746F2
:104BD000CE464B02460080B5C40F4702580A8446B1
:104BE00048007A0A360EBF09000ECD0F9B09FF2838
:104BF0006DD001214D40311AAC423AD0002900DC81
:104C00009CE1002800D19EE0FF2E00D188E08022A8
:104C1000D20413431B2900DCF6E0013F7A0100D4E3
:104C200079E001277F42BF01BB0998464046FBF768
:104C300035FC434605388340864200DCCCE0B44F67
:104C4000311A1F405A0768D00F221340042B64D03A
:104C500004377B0161D5481CFE2900D081E0FF208C
:104C60000023C0051843E4072043C0BCB946B04642
:104C7000F8BD002900DC79E1002876D1002B4CD06A
:104C8000481E012900D147E1FF2949D01B2871DCCA
:104C900001001A002020CA40411A8B40591E8B4146
:104CA0001343FF188023DB041F4200D1B8E0711CBE
:104CB000FE2ED4D0012297483A407F080740174380
:104CC0007A0700D096E01F42C5D1FA0855E03100BE
:104CD000FF398946002B2CD101214D40AC4200D137
:104CE000B4E0494600294CD0002E00D0F9E0FF2165
:104CF000002F00D108E14A1E012900D156E1FF2909
:104D000000D142E11B2A00DC24E15F1E2C000600DA
:104D10007A0100D585E731000437FA08FF292CD144
:104D2000002A9CD08023DB0313435B02FF205B0A35
:104D300097E7AC4200D1A7E0002922D0002ED6D0C0
:104D400062462C00EEE7002BE7D0481E012936D042
:104D5000FF29E5D001005DE701203B007A0100D486
:104D600057E1C0B2BB015B0A7BE7FF2ED8D01B29FD
:104D700000DC9FE031000537FA0853025B0AC8B235
:104D80006FE7FE20711C084254D1002E00D0B1E024
:104D9000002F00D102E1002B00D1F9E08021FA1AA6
:104DA000C9040A4200D13BE10124DF1B2C40002F43
:104DB00049D001200F42D5D10021FA08DDE7FF1AC2
:104DC0007B0100D4DEE0BD01AD092800FBF766FBE6
:104DD0002B000538834001262022811B0131521A05
:104DE0001F009340CF405A1E93411F432BD00021F8
:104DF0007B07B1D00F233B40042B00D028E77B0179
:104E000000D528E7FA08B8E71A002020CA40411A5E
:104E10008B40591E8B411343FF1A7B0100D502E7DB
:104E20007B0700D10DE10F2331003B40042B00D064
:104E30000EE772E7FA1A9046520156D44346002B09
:104E400000D0F3E60024002000230AE749460029A9
:104E50001CD0002E00D002E7FF21002F55D04A1EA3
:104E6000012959D0FF2900D190E01B2A00DD91E0F3
:104E700011003A002025CA40691A8F40791E8F41DF
:104E800017430600FF180DE7002926D1FE20711CEC
:104E9000084213D1002E00D096E0002F00D1B4E0DC
:104EA000002B75D0FB185A0100D4B2E09B015B0ABD
:104EB000FD38D6E68022D2041343EAE6FF2900D16A
:104EC000CDE6FA185208530705D00F23171D1340DB
:104ED000042B00D021E7D2084FE7002EBCD0624659
:104EE00020E72C00FF200023BBE60124DB1B9846B3
:104EF0002C409BE6002F75D1002B00D096E080233C
:104F00000024FF20DB03ACE62C001F0005E7C046B1
:104F1000FFFFFFFBFFFFFF7DFB185A0100D48DE070
:104F20004A4A5B081A40590700D18CE00F210B4018
:104F30000D39042BCFD00221171DEEE6002900D138
:104F40001FE7821B1100002E00D1D1E68021C90489
:104F50000F43D7E639002024D140A21A97407A1E89
:104F600097410F432C000600DF1B56E700298DD028
:104F7000811B002E00D170E71B290BDC8022D2049C
:104F8000174376E70121FA08F7E62C006246C7E6E8
:104F90000021F2E605330100DA08EEE6002B00D12D
:104FA00050E70124002162462C40E6E6DA1B53015B
:104FB00032D5920194092000FBF770FA23000538DE
:104FC00083402C00012607E7002FDFD0002B17D0ED
:104FD0008023DB039A4200D2A4E69C4500D3A1E6DD
:104FE00062469FE6002B0BD08023DB039A4200D25F
:104FF00098E69C4500D395E6012462462C4091E654
:105000008023DB03FF2013432BE60020002B00D17D
:1050100027E60021DA08B0E62C000121D208ACE630
:10502000002A00D10EE70021D208A6E680236246BE
:105030000124DB03FF2013432C4012E60121DA0890
:105040009BE6310069E60221D20896E6FFFFFF7D6C
:1050500043024A02400049005B0A520A090E000E50
:10506000FF2806D00020FF2902D1531E9A411000CC
:105070007047FE38002BFBD1F4E7C04670B500281E
:1050800012D0C317C5185D40C40F2800FBF706FAFD
:105090009E231B1A962B0FDC082838D00838854031
:1050A0006D026D0AD8B202E0002400200025C00580
:1050B0002843E407204370BD992B14DC421F954020
:1050C0002A001549114055071CD00F252A40042AF3
:1050D00018D00431CA08490115D59F235202181A65
:1050E000550AC0B2E3E7020029001B3291404A1E74
:1050F00091410522121AD5402A000A43064911405F
:105100005507E2D1CA085202550AD8B2CFE76D025C
:105110006D0A8E30CBE7C046FFFFFFFBF0B5DE46E1
:10512000454657464E46E0B587B0009201930B03C3
:105130001B0B9B46CA0F4B00040080465B0D02927E
:1051400000D1BFE08F4A934238D05946420FC90080
:105150000A43802109041143C20090468A4A8946C5
:1051600092469A44002300240393009E019F3B0330
:105170001B0B7A0030009B46520DFD0F002A00D118
:105180007FE0804B9A426ED05946730FC9000B43A3
:105190008021090419438B467B49F3008C46514614
:1051A00062448A1A92460021029E6E40F6B20F2C8B
:1051B00000D9F9E0754AA400125997465A460243AD
:1051C000914600D0B6E09A46022390460824039305
:1051D000CBE72E0000210023002288461B05134345
:1051E000F60733434046190007B0F0BCBB46B24651
:1051F000A946A046F0BDCB464346029D039902292D
:1052000000D1FAE1032900D1A1E00129E1D0604AEF
:10521000524490464446002C00DC00E25A0704D079
:105220000F221A40042A00D07FE22E00DA085B46E3
:10523000DB0106D55946574B802419408B46E400C4
:105240005444554B9C4209DC5B465B07134398462C
:105250005B4664055A02120B630DBFE70021002272
:105260008846484BBAE75B46009A13434B4A94463C
:10527000E244002B59D1022214430022022193461A
:1052800092E75B46009A134349D05B46002B00D15E
:10529000A4E15846FBF702F9030002000B3B1D276F
:1052A000009EFB1A11005846DE4008398840330042
:1052B00003439B46009B8B40394952448A46002158
:1052C000924471E75B460343994621D05B46002B2D
:1052D00000D171E15846FBF7E1F80B235B429C4695
:1052E0000200844466461D239B1B2600110058467D
:1052F000DE400839884033000343994623008B4041
:105300009846284B00249B1A9A46002303932CE7C7
:10531000002398469A4601330424039325E701228B
:1053200014430022012193463EE7032303211C433B
:10533000330039E79A460323D9460C24039314E734
:1053400000238022984600260E4B120346E7802257
:10535000594612030A43120398462E00094B120BBA
:105360003CE7802249461203114202D059461142BD
:10537000F0D080224B4612031A431203029E014BC7
:10538000120B2BE7FF07000001FCFFFFDC690008A0
:10539000FF030000FFFFFFFEFE07000001F8FFFF14
:1053A000F30300000DFCFFFFCB4500D2FAE000D173
:1053B000F5E0012252429446002244464846904677
:1053C000E2445A461F0E12021B020293130C994626
:1053D00017433B041B0C49460093FAF7F7FE009A6B
:1053E0000B044243210C050019438A4207D9C9190D
:1053F000013D8F4203D88A4201D9851EC919881AF6
:105400004946FAF7E3FE009A240442430904240CB7
:1054100003000C43A24204D9E419013BA74200D87F
:10542000F7E00299A01A2D040C0C09041D43090C85
:105430002A0C2B04AB460D001B0C5D430591634306
:105440005143049462435B182C0CE318994203D92E
:10545000802149028C466244190C2D041B042D0C3A
:105460008A185D19904200D287E000D182E043465D
:105470005D1BA8459B41801A5B42C01AB14B534447
:1054800098461C00874200D10CE14946FAF79EFE7F
:105490000200009B03905A430B04290C19438A42D3
:1054A0000AD90300C919013B03938F4204D88A42E9
:1054B00002D9831E0393C919881A4946FAF786FE52
:1054C0000A00120494462A0465460099120C4143CE
:1054D00003002A43914207D9D2190138974203D8D1
:1054E000914201D9981ED219039B521A1B040343FF
:1054F0000598190C05008C461904090C4D43894682
:10550000614600956546484304994D43AC464D4677
:105510004D432918009D2D0CA9464944884203D9C2
:10552000802040028146CC44009D080C2D040904D3
:105530002D0C60444D1982420FD30BD0012213432E
:10554000814A92456CDB1A1D9A429B415B42D2080C
:105550009B446CE6002D00D193E0591EBA188C468E
:10556000BA4200D285E0824200D2C7E000D1D5E045
:105570000B00E3E7A84500D379E75B46591E029B81
:105580009C46E0441C0098459B415B42DB19C018D7
:10559000874238D2824278D875D08B4667E7434538
:1055A00000D906E74A46D407500842465208144339
:1055B0004246D207904604E7FAF770FF15239C464F
:1055C00084440200634620321C2B00DC8AE6230060
:1055D0000838834099460023984692E6FAF75EFF22
:1055E00003000200153320321C2B00DC57E6009923
:1055F0000838814000238B465EE600212E00002201
:105600008846524BEAE58742C7D14445C2D98B460A
:105610002DE7A24200D804E7831EE41901E72E001B
:1056200001224146521A382A00DDD3E51F2A3FDC09
:1056300047481C005044594683408140D440581E7E
:10564000834121430B435946D1400A00590709D0F1
:105650000F211940042905D0191D99429B415B4235
:10566000D2180B00110268D50021012300228846C0
:10567000B4E50B00824200D060E7029A954200D068
:105680005CE73500C6E5454587D902235B429C4669
:10569000029BE3449C46E04498459B415B42DB19F6
:1056A000C018E4E6002B36DD012300229B44BEE552
:1056B0001F2140464942091A5846C8400100202A85
:1056C00004D05846234A5244904003435A1E934103
:1056D00007200B43010000221940184209D00F2176
:1056E000194004291FD0181D9842894103004942DE
:1056F0004907DB080B43984600236FE50299023BFC
:1057000049008C4602998C4589414942C919521871
:1057100061460291AEE701235B4281E70299A9420B
:10572000ECD36346A9E70021E3E71A1D9A429B41A7
:105730005B422E00D2089B4479E551075202120BBE
:10574000D7E7C046FF03000002FCFFFFFF07000091
:105750001E0400003E040000F0B55746DE464E46EB
:105760004546E0B50D000400E80F83460903D80F55
:10577000090B82461A488C461F0369005E00490DDA
:105780003F0B760D81421AD0864211D00120B142E2
:105790000FD1BC450DD1A2420BD1D3451ED000295B
:1057A00007D1614611430A00531E9A41100000E0E0
:1057B0000120F0BCBB46B246A946A046F0BD012080
:1057C0008E42F6D1614639430F0017432743F0D18B
:1057D0005B465246981A431E9841EAE70020E8E7E4
:1057E000FF070000F0B557464E464546DE46E0B599
:1057F0000D000E034900490D8A46DF0FE90FBC4634
:1058000083B02F4F04008046019158001903914640
:10581000360B090B400DBA451DD0B8420DD0574686
:10582000002F2AD13443002824D10A4336D0002C3B
:1058300041D163465800013815E0114338D1534631
:10584000002B01D12643F4D0019B634507D1019B76
:105850005800013807E026432AD1504521D00120C5
:10586000019B5F42384303B0F0BCBB46B246A94639
:10587000A046F0BD002CDCD0E6E70028EFD0019B6D
:105880006345ECD18245EADCE1DB8E42E7D8DED12C
:10589000C845E4D80020C845E5D2D8E7002CE2D0BE
:1058A000DDE7114304D1019B6345D8D10020DAE73D
:1058B00002204042D7E7019B6345E6D0CFE7C046D0
:1058C000FF070000F0B557464E464546DE46E0B5B8
:1058D0000D000E034900490D8A46DF0FE90FBC4653
:1058E00083B02E4F04008046019158001903914661
:1058F000360B090B400DBA451ED0B8420DD05746A5
:10590000002F27D13443002833D10A4334D0002C50
:1059100040D163465800013815E0114312D1534677
:10592000002B01D12643F4D0019B63451DD00120FB
:10593000019B5F42384306E0264303D15045F6D130
:1059400011431CD0022003B0F0BCBB46B246A946AE
:10595000A046F0BD0028EAD0019B6345E7D182450F
:10596000E5DC02DB8E42E2D80ED0019B5800013804
:10597000E9E7002CCDD0D7E7002CE4D0D7E7019B96
:1059800000206345DFD0D2E7C845D0D80020C84505
:10599000D9D2EAE7019B6345E4D0C8E7FF070000DE
:1059A000F0B557464E464546DE46E0B51F000B03B0
:1059B0001B0B16009846CA0F4B000400924685B098
:1059C0005B0D00D1C2E1CC4A934200D128E14146AF
:1059D000420FC9000A43802109041143C2009146C5
:1059E000C64A884693469B440023002501933C0306
:1059F0007A00FB0F3000240B520D009300D185E19B
:105A0000BD4B9A4200D160E1BC4B9C46624493443A
:105A10000A2D00DD14E1730FE4001C4380231B04F6
:105A20002343F0005246009900264A409246022D38
:105A300011DD0122AA40A6211400C9000C400A422F
:105A400000D0FDE0902189000A4200D0D4E18821F5
:105A5000114200D0EFE049464A460904140C090CF3
:105A6000020C0F0015000004000C6543474301952C
:105A7000B9462F000D0006005543AC464D4666431F
:105A80002D0CB4446544AE4205D93E0080277F0208
:105A9000BC46664401964F463F043F0C2E0C2D0435
:105AA000ED1902951D0C1B041B0C00951D001F0019
:105AB00065434F43AC46009D69436C433D0CA9468A
:105AC000614449448C4503D980256D02AC46644449
:105AD0003F040D0C3F0C0904C919AC467518039519
