:020000040800F2
:1000000000200020B13A0008BD170008BF17000803
:1000100000000000000000000000000000000000E0
:10002000000000000000000000000000C1170008F0
:100030000000000000000000C3170008C5170008FA
:10004000013B000800000000013B0008013B0008E4
:10005000013B0008CD170008013B0008DD17000830
:1000600000000000013B0008013B0008013B0008C4
:10007000013B0008013B0008013B000800000000B4
:10008000013B0008013B000800000000013B0008A4
:10009000013B0008013B0008013B0008013B000850
:1000A000013B0008013B0008013B0008013B000840
:1000B000013B0008000000000000000000000000FC
:1000C000002243088B4274D303098B425FD3030A97
:1000D0008B4244D3030B8B4228D3030C8B420DD3AA
:1000E000FF22090212BA030C8B4202D31212090238
:1000F00065D0030B8B4219D300E0090AC30B8B4276
:1001000001D3CB03C01A5241830B8B4201D38B0323
:10011000C01A5241430B8B4201D34B03C01A5241C8
:10012000030B8B4201D30B03C01A5241C30A8B420B
:1001300001D3CB02C01A5241830A8B4201D38B02F6
:10014000C01A5241430A8B4201D34B02C01A52419A
:10015000030A8B4201D30B02C01A5241CDD2C3090C
:100160008B4201D3CB01C01A524183098B4201D388
:100170008B01C01A524143098B4201D34B01C01A73
:10018000524103098B4201D30B01C01A5241C308EB
:100190008B4201D3CB00C01A524183088B4201D35A
:1001A0008B00C01A524143088B4201D34B00C01A46
:1001B0005241411A00D20146524110467047FFE7B2
:1001C00001B5002000F0F0F802BDC0460029F7D0CC
:1001D00076E7704703460B437FD4002243088B42E7
:1001E00074D303098B425FD3030A8B4244D3030BBE
:1001F0008B4228D3030C8B420DD3FF22090212BA83
:10020000030C8B4202D31212090265D0030B8B42FE
:1002100019D300E0090AC30B8B4201D3CB03C01AE8
:100220005241830B8B4201D38B03C01A5241430BC3
:100230008B4201D34B03C01A5241030B8B4201D3B3
:100240000B03C01A5241C30A8B4201D3CB02C01A1E
:100250005241830A8B4201D38B02C01A5241430A96
:100260008B4201D34B02C01A5241030A8B4201D385
:100270000B02C01A5241CDD2C3098B4201D3CB012C
:10028000C01A524183098B4201D38B01C01A5241DB
:1002900043098B4201D34B01C01A524103098B42DF
:1002A00001D30B01C01A5241C3088B4201D3CB00CA
:1002B000C01A524183088B4201D38B00C01A5241AD
:1002C00043088B4201D34B00C01A5241411A00D25D
:1002D00001465241104670475DE0CA0F00D04942C6
:1002E000031000D34042534000229C4603098B4236
:1002F0002DD3030A8B4212D3FC22890112BA030ABE
:100300008B420CD3890192118B4208D3890192113F
:100310008B4204D389013AD0921100E08909C309C4
:100320008B4201D3CB01C01A524183098B4201D3C6
:100330008B01C01A524143098B4201D34B01C01AB1
:10034000524103098B4201D30B01C01A5241C30829
:100350008B4201D3CB00C01A524183088B4201D398
:100360008B00C01A5241D9D243088B4201D34B00B3
:10037000C01A5241411A00D20146634652415B10F5
:10038000104601D34042002B00D5494270476346D6
:100390005B1000D3404201B5002000F005F802BD1B
:1003A0000029F8D016E770477047C0468446080019
:1003B0006146FFE71FB504F0A7F9002801D400212A
:1003C000C8421FBD10B504F02FF94042013010BDE6
:1003D00010B504F099F9002801DB002010BD0120C0
:1003E00010BDC04610B504F08FF9002801DD0020D3
:1003F00010BD012010BDC04610B504F03DF9002825
:1004000001DC002010BD012010BDC04610B504F075
:1004100033F9002801DA002010BD012010BDC046CC
:100420008446100062468C461900634600E0C046D0
:100430001FB506F0D3FD002801D40021C8421FBD1E
:1004400010B506F015FD4042013010BD10B506F0A4
:10045000C5FD002801DB002010BD012010BDC046F5
:1004600010B506F0BBFD002801DD002010BD012005
:1004700010BDC04610B506F041FD002801DC00208B
:1004800010BD012010BDC04610B506F037FD002894
:1004900001DA002010BD012010BDC0461C2101233F
:1004A0001B04984201D3000C10391B0A984201D357
:1004B000000A08391B09984201D30009043902A235
:1004C000105C40187047C04604030202010101019C
:1004D00000000000000000000448054B10B58342F6
:1004E00003D0044B002B00D0984710BD64000020BF
:1004F000640000200000000006480749091A8B101C
:10050000C90FC91810B5491003D0044B002B00D0F7
:10051000984710BD64000020640000200000000027
:1005200010B5074C2378002B09D1FFF7D5FF054BF9
:10053000002B02D0044800E000BF0123237010BD4F
:100540006400002000000000B8700008054B10B5E2
:10055000002B03D00449054800E000BFFFF7CCFFA3
:1005600010BDC0460000000068000020B870000800
:10057000F0B589B003AC14220021200003F0C1FAC9
:100580002A4B5A698021C9030A435A615A690A40B1
:100590000092009A5A69802189020A435A615A6975
:1005A0000A400192019A5A698021C9020A435A619C
:1005B0005B690B400293029B8027BF011C4D002208
:1005C0003900280002F0BFFC0323039388235B0358
:1005D00004930026059690202100C00502F0E8FB58
:1005E000039701270497059606962100280002F03C
:1005F000DFFB20230393C4239B030493059721006F
:10060000280002F0D5FB00220021052002F0FCFCAE
:10061000052002F0FDFC00220021072002F0F4FC7E
:10062000072002F0F5FC09B0F0BDC0460010024002
:100630000004004810B5012802D0022803D010BDE4
:1006400000F09AFDFBE700F091FDF8E772B6FEE7D7
:1006500010B51248124B0360124B436000238360B5
:100660000122C260036143618361C361036201F0DF
:10067000C1FF00280CD10948002102F043FB0028EB
:1006800008D10648002102F069FB002804D110BD02
:10069000FFF7DCFFFFF7DAFFFFF7D8FF6401002068
:1006A000005400402B1D200000B591B01C220021F9
:1006B00009A803F026FA2022002101A803F021FA5C
:1006C0002048214B03600023436083601F4AC260BF
:1006D00003614361836102F0D5FD002829D11948E7
:1006E00002F0FCFD002826D109A96023099300230C
:1006F0004B608B60CB600B614B618B6111480022BA
:1007000002F05AFE002818D101A9002301934B6082
:100710008B60CB600B61802292014A61CB610948FA
:1007200002F04AFF00280AD1064801F0BFF811B0D4
:1007300000BDFFF78BFFFFF789FFFFF787FFFFF78C
:1007400085FFC0461C01002000440140FFFF00005F
:1007500010B50B480B4B036096231B02436000232C
:100760008360C36003610C2242618361C3610362E1
:10077000436203F067F9002800D110BDFFF766FF60
:10078000940000200038014010B594B008AC30222D
:100790000021200003F0B5F91022002104A803F085
:1007A000B0F910220021684603F0ABF90223089348
:1007B000013B0B930F330C93200001F0D5F8002878
:1007C00017D104A807230493002343608360C36008
:1007D000002101F047FB00280DD16846212300933A
:1007E00000230293039301F0EDFB002805D114B020
:1007F00010BDFFF72BFFFFF729FFFFF727FF0000D2
:1008000010B501F097FCFFF7BFFFFFF7B1FEFFF750
:100810001FFFFFF749FFFFF79BFF642001F0ACFCCF
:1008200000F0EAFA00F048FE00F07AFE00F0CAFCA0
:1008300000F098F900F052FF012000F08FFE13E065
:100840001A4B1B68E31A092B1BD8194B1B68E31AB8
:10085000092B1BD8174B1B68E31A132B1BD8164BFD
:100860001B68E31A132B1BD801F080FC0400134B08
:100870001B68C31A132BE3D900F0C8FB0F4B1C6095
:10088000DEE700F081FE094B1C60DEE700F0B8FCFB
:10089000074B1C60DEE700F097F9064B1C60DEE7B3
:1008A00000F05AFF044B1C60DEE7C0468C000020BD
:1008B000880000208400002080000020900000209C
:1008C00070B505000C000068096803F065FF061CA0
:1008D0006868616803F060FF011C301C03F080FB56
:1008E000061CA868A16803F057FF011C301C03F028
:1008F00077FB70BD10B5084C2368084A990050502A
:10090000581C0A21FFF74CFD2160002902D1044B3D
:1009100001221A7010BDC046C8010020CC01002081
:10092000C5010020F8B51E4B1B78002B02D11D4BD2
:100930001E6800E00A26012E30DD0025002407E0B5
:10094000194BAA00D158201C03F04AFB041C0135A6
:10095000B542F5DB300004F0C9FA011C201C03F09D
:100960004DFD071C002500240EE00F4BAA00D058B7
:10097000391C04F063F8011C03F00EFF011C201C5D
:1009800003F02EFB041C0135B542EEDB701E04F0B3
:10099000ADFA011C201C03F031FDF8BD0020FCE77E
:1009A000C5010020C8010020CC01002010B5FFF7D0
:1009B000B9FF041C0021FFF71FFD002812D00F49CA
:1009C000201C03F00DFB011C0C4803F017FD0C4923
:1009D00003F0E2FE041C0B49FFF7FAFC002802D0EA
:1009E000084C06E0064C0649201CFFF705FD0028D0
:1009F00001D1201C10BD024CFBE7C0460000204185
:100A0000CDCCCC3D0AD7233CF0B5C64600B504009A
:100A100003689846191C181C03F0BEFE051C676885
:100A2000391C381C03F0B8FE011C281C03F0D8FA4E
:100A3000051CA668311C301C03F0AEFE011C281CEE
:100A400003F0CEFA03F0B0F8051C0021FFF7D4FC48
:100A500000280ED0291C404603F0D0FC2060291C41
:100A6000381C03F0CBFC6060291C301C03F0C6FC72
:100A7000A06080BCB846F0BDF0B5C64600B5FFF733
:100A800095FF071C134B1B78002B03D0114B002242
:100A90001A70114F002415E0391CFE20800503F068
:100AA000CDFF0E4EA500A95903F076FE80460C4BF3
:100AB000E858391C03F070FE011C404603F090FA20
:100AC00070510134022CE7DD0448FFF79DFF80BC24
:100AD000B846F0BDC4010020CDCCCC3D00020020C2
:100AE0000C02002030B585B001AD280000F056FBA7
:100AF000019B184C2360029B6360039BA360200052
:100B0000FFF782FF14482100FFF7DAFE041CFE21E4
:100B10008905FFF771FC00280FD0FE24A405201CD6
:100B200003F022F8041C0D4B1868211CFFF76EFC23
:100B300000280AD1201C05B030BD0949201CFFF750
:100B400047FC0028EBD0064CE9E7201CFFF7D2FE5B
:100B5000F0E7C0460C020020000200200400002044
:100B6000000080BF10B584B0104B114A1A6001AC70
:100B7000200000F013FB019B0E480360029B4360C2
:100B8000039B8360FFF740FF002304E00A4A9900BB
:100B9000002088500133092BF8DD084A0023136038
:100BA000074A1370074A137004B010BD04000020F8
:100BB000C2B8B23E00020020CC010020C8010020D3
:100BC000C5010020C4010020F8B501F0CFFA0400EF
:100BD000FFF788FF364B1860364B1968FFF70CFC9F
:100BE000002812D0344B1C60344B1B78002B0ED1E4
:100BF00005E0334A99008858324A88500133022B65
:100C0000F7DD2E4B01221A7001E02F4B1C602E4B9A
:100C10001B68294A1268934208D99B1AFA2292004B
:100C2000934203D9294B1B78002B16D0224B1B680B
:100C3000254A126893420BD99B1AFA2292009342DA
:100C400006D9224B1B78002B02D0204B00221A70B1
:100C50001E4B1B78002B06D1F8BDFFF70DFF1B4B79
:100C600001221A70E2E7FFF7A1FE041CFFF75AFE0B
:100C700002F09AFF06F02CF8154A164B04F086F99C
:100C800006F06EF8061C211CFE20800503F0D6FE3F
:100C9000084F396803F080FD051C311C201C03F04F
:100CA0007BFD011C281C03F09BF93860D4E7C0468B
:100CB000FC01002004000020F8010020C4010020F5
:100CC0000C020020B8010020F401002000000020E8
:100CD0008744E74A1857D63F10B500F05BFB00F099
:100CE00037FC014B187810BD0000002010B5012022
:100CF00000F09CFB00F0F0FB642000F025FC014BB1
:100D0000187810BD0000002010B584B001AC2000A0
:100D100000F044FA019B05480360029B4360039B7B
:100D20008360FFF771FE04B010BDC04600020020D2
:100D300010B584B00200064C01235B4202930233DB
:100D4000019300913821200001F00CFF04B010BD88
:100D50006401002010B584B0064C01235B4202936D
:100D600001920091023302003821200001F0FAFEC6
:100D700004B010BD6401002010B586B00200172336
:100D80006B441970064C01214942029102310191D4
:100D9000009301233731200001F018FE06B010BD8A
:100DA0006401002000B583B06B46D91D2A20FFF7EF
:100DB000BFFF002801D003B000BD6B46D9790122E6
:100DC0009143D9712A30FFF7D7FFF4E700B583B01C
:100DD0006B46D91D2A20FFF7ABFF002801D003B0D6
:100DE00000BD6B46D97901221143C9B2D9712A30AD
:100DF000FFF7C2FFF3E7000000B583B06B46D91DD3
:100E00000D20FFF795FF002805D16B4607331B78AF
:100E10001A2B02D0012003B000BDFFF7C3FF00284A
:100E2000F9D15C212A30FFF7A7FF0028F3D11C215C
:100E30002B30FFF7A1FF0028EDD17A212C30FFF7EE
:100E40009BFF0028E7D13C212D30FFF795FF0028BC
:100E5000E1D13C212E30FFF78FFF0028DBD10021AC
:100E60000E30FFF789FF0028D5D100210F30FFF7A2
:100E700083FF0028CFD1F8211530FFF77DFF002830
:100E8000C9D112211730FFF777FF0028C3D1012104
:100E90001830FFF771FF0028BDD1FF212930FFF77F
:100EA0006BFF0028B7D10E211D30FFF765FF02212F
:100EB0001F20FFF761FF01212020FFF75DFFFFF7F3
:100EC00085FF0028A7D1054A00231370044A137038
:100ED000044A1360044A13609DE7C04621020020C3
:100EE000200200201C02002018020020F0B5CE468F
:100EF000474680B585B0051E78D00F2169442A2069
:100F0000FFF716FF0E2169440020FFF711FF041EB2
:100F10006DD10E236B441B781B0700D46DE00D21AF
:100F200069440E20FFF704FF041E60D10D236B44BB
:100F30001A7803231340012B50D0022B52D0002BE0
:100F40005DD18B23DB059846062201A90120FFF71E
:100F500001FF041E4BD101AB19785A7809020A43EC
:100F600012B290109978DF7809020F433FB2BF1098
:100F700019795E7909020E4336B2B610002A01DAF9
:100F8000204B1843BB0401D51E4B1F43B30401D5AE
:100F90001C4B1E4303F0AAFF414603F02FFA814683
:100FA000380003F0A3FF414603F028FA071C300085
:100FB00003F09CFF414603F021FA061C1249484603
:100FC00003F0EAFB28601049381C03F0E5FB686079
:100FD0000D49301C03F0E0FBA86008E08A23DB0524
:100FE0009846B1E78923DB059846ADE70124200048
:100FF00005B0C0BCB946B046F0BD0224F7E70124F5
:10100000F5E7C04600C0FFFF0AE81C4170B584B098
:1010100001A8FFF76BFF002801D004B070BD2A4B78
:1010200001AC220061CA61C30198011C03F0B4FB4A
:10103000051C0298011C03F0AFFB011C281C02F0E8
:10104000CFFF051C0398011C03F0A6FB011C281C04
:1010500002F0C6FF02F0A8FD1C4903F0EFFC4400BB
:10106000640801F083F805001949201CFFF7C4F952
:10107000002814D0174B1B68002B01D1154B1D60A5
:10108000144B1B68EB1A144A934202D9134B0122EA
:101090001A70134B00221A60124B1A70BDE7104BE6
:1010A0001B68002B01D10E4B1D600D4B1B68ED1A08
:1010B0000D4B9D4202D90B4B01221A70054B0022A9
:1010C0001A60064B1A70A8E7240200200AE81C41A7
:1010D000DD0C7B3F1C0200200F27000021020020B6
:1010E0001802002020020020DF93040000B583B026
:1010F0006B46D91D0C20FFF71BFE002818D16B464C
:1011000007331B785B0715D46B4607331B789B06A8
:1011100017D46B4607331B78DB0617D46B460733AF
:101120001B781B0717D46B4607331B78DB0717D4D4
:1011300003B000BD69461630FFF7FAFD0028E3D082
:10114000F6E769461E20FFF7F3FDE2E76946102047
:10115000FFF7EEFDE2E769462220FFF7E9FDE2E74F
:10116000062269460120FFF7F5FDE1E7014B012268
:101170001A70704731020020014B01221A7070472B
:1011800030020020014B1878C0B2704721020020C5
:10119000014B1878C0B270472002002030B5024BD6
:1011A000020032CB32C230BD2402002010B5202113
:1011B000034801F0C1FE43425841C0B210BDC046D1
:1011C0000004004810B5FFF7F1FF074B1870074AFD
:1011D00000231360064A1360064A1370064A137010
:1011E000064A137010BDC046400200203C02002099
:1011F0003802002034020020330200203202002096
:1012000070B500F0B3FF0600354D2C78E4B2FFF75F
:10121000CDFF28702B78A34239D1002C3FD0304B22
:101220001B78002B48D02E4B1B78002B12D02D4B57
:101230001B78002B0ED12C4B1B68F31A2B4A9342C0
:1012400008D9284B01221A70294B03321A70294BF6
:1012500000221A70224B1B78002B1FD1254B1B78C4
:10126000002B1BD0244A1268B61AFA22520096426A
:1012700014D3022B28D0032B2AD0012B2CD11C4BAA
:10128000F43AFF3A1A701B4B00221A7006E000F085
:101290006DFF154B1B68C01A3128BED870BD104BAE
:1012A0001B78002BBFD000F061FF0F4B1860114A74
:1012B000137801331370B6E700F058FF0E4B186037
:1012C000084B00221A70AEE7094B02221A70DAE7C7
:1012D000074B03221A70D6E7054B03221A70D2E798
:1012E00040020020330200203C020020B70B000027
:1012F000320200203402002038020020024B18780D
:10130000C0B200221A7070473202002030B587B098
:101310000D0014000F226A441070184801235B422C
:1013200000930233B42101F0D3F9002801D007B0B3
:1013300030BD124801235B420093023317226A44F6
:10134000B42101F08DFA0028F1D1EB435BB21722F2
:101350006A4411782C400B401C43147005AA0F23DB
:101360006B441B7813705470044801235B42009354
:101370000333B42101F0ACF9D9E7C0466401002081
:1013800010B5802101228901014801F0DCFD10BD6A
:101390000004004810B5802100228901014801F0B5
:1013A000D2FD10BD0004004810B5012805D0002270
:1013B00080211A20FFF7AAFF10BD8022F8E7000065
:1013C00000B585B003AA1723137050700448183B6A
:1013D00000930333B42101F07BF905B000BDC04692
:1013E0006401002010B5020001211D20FFF78EFFCF
:1013F00010BD000010B505F03DFC094A094B04F092
:10140000FDFC02000B000020074904F0D9F902F0AE
:10141000C9FD7F2202407F212020FFF777FF10BD0A
:101420008AB97BEB89CF193F0000F03F00B585B04A
:1014300003AA0423137050700448053B0093033340
:10144000B42101F045F905B000BDC046640100209B
:1014500000B585B003AA0123137050700448023B05
:1014600000930333B42101F033F905B000BDC04649
:101470006401002010B58021012289010D4801F08E
:1014800062FD0020FFF7E4FF002800D010BD01300E
:10149000FFF78AFF0028F9D10130FFF7A3FF0028EA
:1014A000F4D1AA30FFF7A6FF0028EFD17E30FFF776
:1014B00087FFEBE70004004810B5002402E0642039
:1014C00000F05AFE002C05D1FFF7D4FF0028F6D11A
:1014D0000124F4E710BD000000B585B003AA8623FF
:1014E0005B00138004480E3BFF3B00930333B421A1
:1014F00001F0EEF805B000BD6401002010B56428CD
:1015000000D964200304181A6421FEF7D9FD034BA7
:101510001B680004000C586310BDC0461C0100206D
:1015200010B50748002101F0CDFF064B00221A70CC
:101530005A705A601A725A729A720132DA7210BD77
:101540001C0100204402002010B5FFF7D7FF10BD9A
:1015500010B50020FFF7D2FF10BD000010B5094BF9
:10156000187001225A7000221A725A72032804D08D
:1015700000F0FCFD034B586010BD9A720132DA7224
:10158000F6E7C0464402002070B5434B5B78002B61
:1015900003D0414B1B78002B00D170BD00F0E6FD5D
:1015A00004003D4B1B78022B27D0032B4BD0012B83
:1015B000F3D1394B5B688342EFD8374B5B7A002B12
:1015C00008D13220FFF79AFFC834334B5C60012208
:1015D0005A72E2E70020FFF791FFC8342E4A5460A8
:1015E00000235372137A0133DBB21372022BD4D966
:1015F000130000221A705A70CFE7274B5B688342B2
:10160000CBD8254B5B7A002B09D15020FFF776FF12
:101610009134FF34204B5C6001225A72BDE70020F8
:10162000FFF76CFF9134FF341B4A54600023537260
:10163000137A0133DBB21372012BAED913000022EF
:101640001A705A70A9E7144B5B688342A5D8124DF3
:10165000A87AFFF753FF0A346C60AB7A0B21695606
:10166000EA7A9B18DBB2AB72632B07D9002905DD40
:10167000094B64229A729B32DA728EE7002B00D0FB
:101680008BE7002900DB88E70020FFF737FF024BDC
:1016900000221A705A7080E74402002010B5FFF74C
:1016A00025FD90200221C00501F046FC012812D042
:1016B000FFF770FE084C0123237000F06FFD01213D
:1016C000002001F0B5FC00F071FDFFF759FEFFF7B7
:1016D000F3FE0023237010BD50020020014B0022B6
:1016E0001A7070475102002010B5FFF7F5FA002874
:1016F00002D1024B01221A7010BDC04651020020D7
:1017000010B5FFF7F3FA002802D0024B00221A703E
:1017100010BDC0465102002010B5FFF7F5FA024B8C
:1017200000221A7010BDC0465102002010B5FFF70C
:1017300029FD002802D1024B00221A7010BDC046BC
:101740005102002010B5FFF7A9FF024B00221A70CA
:1017500010BDC0465102002010B5FFF7CFFD042890
:1017600015D0FFF70FFD002802D0124B03221A708C
:10177000FFF70EFD002802D00E4B04221A700D4B0D
:101780001A78042A09D893000B4AD3589F46094B6C
:1017900002221A70E5E7FFF7A7FF10BDFFF7B0FFC1
:1017A000FBE7FFF7B9FFF8E7FFF7C0FFF5E7FFF743
:1017B000C9FFF2E751020020D0700008FEE7FEE703
:1017C0007047704710B500F0C5FC10BD10B5012082
:1017D00001F0C0FB022001F0BDFB10BD10B52020C0
:1017E00001F0B8FB10BD000082B00A4B99690122DC
:1017F0001143996199690A400092009ADA6980213F
:1018000049050A43DA61DB690B400193019B02B091
:101810007047C0460010024010B588B00400142282
:10182000002103A802F06DF92268124B9A4201D000
:1018300008B010BD104C63698022D202134363616B
:10184000636913400193019B03A9C0230393AE3B3B
:101850004B600F3BCB60023B0B61084801F0A8FADC
:10186000E369802292031343E361E3691340029327
:10187000029BDDE7005400400010024000040048D5
:1018800082B00268074B9A4201D002B07047064B03
:101890009A69802189020A439A619B690B400193EE
:1018A000019BF2E7004401400010024010B586B0F1
:1018B00004001422002101A802F023F922680D4B34
:1018C0009A4201D006B010BD0B4B5A698021C90263
:1018D0000A435A615B690B400093009B01A9802376
:1018E0005B000193FE3B4B600B61044801F060FA22
:1018F000E8E7C046004401400010024000040048F0
:1019000010B588B004001422002103A802F0F9F8F1
:101910002268134B9A4201D008B010BD114B9A694E
:101920008021C9010A439A619A690A400192019A89
:101930005A69802189020A435A615B690B4002930C
:10194000029B03A9C023DB00039302234B600133F6
:10195000CB60023B0B619020C00501F029FADBE768
:10196000003801400010024070B582B0041E00D162
:101970002EE20368DB0726D5AE4B5A680C231340D2
:10198000042B18D0AB4B5A680C231340082B0ED0F5
:101990006368012B3CD0002B51D1A64B1A68A64995
:1019A0000A401A601A68A5490A401A6036E0A14B3D
:1019B0005B68DB03ECD59F4B1B689B0303D5636817
:1019C000002B00D107E223689B0772D5994B5B6817
:1019D0000C221A425DD0974B5A680C231340082BF7
:1019E00053D0E368002B00D185E0924A13680121AF
:1019F0000B43136000F0BAFB05008E4B1B689B077E
:101A000070D400F0B3FB401B0228F6D90320E0E1BC
:101A1000884A116880235B020B4313606368002BC4
:101A200025D000F0A3FB0500824B1B689B03CAD4A2
:101A300000F09CFB401B6428F6D90320C9E1052B6C
:101A400009D07C4B1A687C490A401A601A687B49A5
:101A50000A401A60E2E7774B19688022D2020A43F3
:101A60001A601968802252020A431A60D6E700F011
:101A70007DFB05006F4B1B689B03A4D500F076FB34
:101A8000401B6428F6D90320A3E16A4B5B68DB03A3
:101A9000A7D4684B1B689B0703D5E368012B00D0D4
:101AA0009BE164490B68F82293432269D2001343F7
:101AB0000B6023681B0744D5E369002B2ED05D4AD9
:101AC000536A01210B43536200F050FB0500594B50
:101AD0005B6A9B0735D400F049FB401B0228F6D90E
:101AE000032076E153490B68F82293432269D20020
:101AF00013430B60DDE74F4A136801218B431360EA
:101B000000F034FB05004B4B1B689B07D1D500F060
:101B10002DFB401B0228F6D903205AE1454A536A9F
:101B200001218B43536200F021FB0500414B5B6AAE
:101B30009B0706D500F01AFB401B0228F6D90320AC
:101B400047E123685B0700D480E03A4BDB69DB00A8
:101B50001DD4384BDA69802149050A43DA61DB6913
:101B60000B400193019B0125354B1B68DB0510D50C
:101B7000A368012B21D0002B36D12E4B1A6A0121EC
:101B80008A431A621A6A03318A431A621AE00025EC
:101B9000EAE72B4A116880235B000B43136000F0D7
:101BA000E5FA0600264B1B68DB05E1D400F0DEFAFF
:101BB000801B6428F6D903200BE11E4A136A012119
:101BC0000B431362A368002B24D000F0CFFA060069
:101BD000184B1B6A9B0737D400F0C8FA801B194BBF
:101BE0009842F5D90320F4E0052B09D0114B1A6A6D
:101BF00001218A431A621A6A03318A431A62E1E7B1
:101C00000C4B1A6A04210A431A621A6A03390A43FE
:101C10001A62D7E700F0AAFA0600064B1B6A9B0778
:101C200012D500F0A3FA801B064B9842F5D9032089
:101C3000CFE0C04600100240FFFFFEFFFFFFFBFFAA
:101C40000070004088130000012D33D02368DB06AC
:101C500010D56369012B33D0053351D1654A536BDD
:101C600004218B435363536BF4318B43A169C90047
:101C70000B435363236A002B00D1B0E05D4A5168E7
:101C80000C220A40082A00D18AE0022B4FD0594A80
:101C9000136859490B40136000F068FA0400554B73
:101CA0001B689B017AD500F061FA001B0228F6D967
:101CB00003208EE04F4AD36950490B40D361C5E7FA
:101CC0004C4B5A6B04210A435A635A6B03390A433B
:101CD0005A6300F04BFA0500464B5B6B9B0706D43A
:101CE00000F044FA401B0228F6D9032071E0414974
:101CF0004B6BF8229343A269D20013434B63B9E7BD
:101D00003C4B5A6B04210A435A635A6B03398A438A
:101D10005A6300F02BFA0500364B5B6B9B07A9D585
:101D200000F024FA401B0228F6D9032051E0314A82
:101D3000136831490B40136000F018FA05002D4B71
:101D40001B689B0106D500F011FA401B0228F6D94A
:101D500003203EE0274BDA6A0F218A43E16A0A43F7
:101D6000DA625A6826490A40A16A606A01430A4356
:101D70005A601968802252040A431A6000F0F6F98A
:101D800004001C4B1B689B0106D400F0EFF9001BFC
:101D90000228F6D903201CE000201AE0002018E0F9
:101DA000012B1ED0134B5A68D86A80235B02134064
:101DB000616A8B4217D10F230340E16A8B4214D131
:101DC000F0239B031A40A36A9A4210D1002000E03E
:101DD000012002B070BD0120FBE70120F9E70020DF
:101DE000F7E70120F5E70120F3E70120F1E7012003
:101DF000EFE7C04600100240FFFFFFFEFFFFFFEFCE
:101E0000FFFFC2FF10B5124B5A680C231340042B7E
:101E10001AD0082B1AD1910C073319400D48445C95
:101E20000B49C96A0B400C49C95CD20304D50B4865
:101E3000FEF746F9604308E06201121B93019B1A0A
:101E4000DB001B19180200E0044810BD0448FCE741
:101E500000100240F4700008E47000080024F40050
:101E600000127A0070B504000D00002800D17EE059
:101E7000434B1A68012313408B420AD240490B6836
:101E8000012293432B430B600B681A40AA4200D0F7
:101E90006FE023689A070ED55B0705D5394A51686C
:101EA000E023DB000B435360364A5368F0218B4339
:101EB000A1680B4353602368DB072DD56368012BB2
:101EC0001ED0022B22D02F4A1268920753D52D49DB
:101ED0004A680320824313434B6000F047F9060031
:101EE000284B5B680C221A4063689B009A4213D00F
:101EF00000F03CF9801B244B9842F1D9032035E0D7
:101F0000204A12689203E2D401202FE01D4A126891
:101F10009201DCD4012029E0194B1A6801231340F7
:101F2000AB4209D916490B68012293432B430B603E
:101F30000B681A40AA4220D123685B0706D5114AD4
:101F4000536812490B40E1680B435360FFF75AFF97
:101F50000C4B5A6812090F2313400D4AD35CD8402A
:101F60000C4B1860032000F0BDF8002070BD01206C
:101F7000FCE70120FAE70120F8E70120F6E7C04678
:101F8000002002400010024088130000FFF8FFFF0D
:101F90000C71000810000020014B18687047C04603
:101FA0001000002010B5FFF7F7FF044B5A68120A23
:101FB00007231340024AD35CD84010BD00100240F2
:101FC0000471000870B582B004000368DB0339D5E2
:101FD0003E4BDB69DB004CD43C4BDA698021490580
:101FE0000A43DA61DB690B400193019B0125384B01
:101FF0001B68DB053FD5354B1A6AC0239B001100D7
:1020000019401A4215D06368C022920013408B42D7
:102010000FD02E4B1A6A2F4911401E6A80204002B1
:1020200030431862186A2C4E304018621962D20789
:1020300035D4264A136A27490B4061680B43136263
:10204000012D3BD02368DB0706D5204A136B032103
:102050008B43A1680B43136323689B0633D51B4A4C
:10206000136B10218B43E1680B431363002002B014
:1020700070BD0025BBE7164A116880235B000B4347
:10208000136000F073F80600114B1B68DB05B2D437
:1020900000F06CF8801B6428F6D90320E7E700F015
:1020A00065F80600094B1B6A9B07C2D400F05EF876
:1020B000801B0A4B9842F5D90320D8E7D369084919
:1020C0000B40D361BEE70020D1E7C04600100240BC
:1020D00000700040FFFCFFFFFFFFFEFF88130000C1
:1020E000FFFFFFEF10B504000F4B1978FA208000B6
:1020F000FDF7E6FF01000D4B1868FDF7E1FF00F06A
:1021000093FF00280DD1032C01D901200AE00130F2
:1021100000222100404200F077FF054B1C600020A8
:1021200000E0012010BDC046080000201000002083
:102130000C00002010B5064A136810210B431360F1
:102140000320FFF7CFFFFFF74FFB002010BDC04675
:1021500000200240034A1168034B1B785B18136090
:102160007047C0465402002008000020014B186848
:102170007047C0465402002070B50400FFF7F6FF18
:102180000500631C02D0044B1B78E418FFF7EEFF38
:10219000401BA042FAD370BD08000020024A136819
:1021A00002218B431360704710E000E0024A13687D
:1021B00002210B431360704710E000E0026893694E
:1021C0009B0701D50023936203689A69D20703D461
:1021D0009A6901210A439A617047000010B5890588
:1021E000890D120411431943029B19434900490800
:1021F000046862685B0D8020C0000340034803430D
:102200009A4313000B43636010BDC046FF63FF0396
:10221000F0B5C64600B504000D00170001688B69D3
:10222000102216001E401A4200D175E01023CB6127
:10223000002398460026206883699B0631D4002E2F
:102240002FD16B1CF7D0FFF791FFC01BA84201D81C
:10225000002DF0D121684B688022D2011340422228
:10226000A25CD2B28869000403D5002B01D1202AD8
:102270000ED123689B699B06DDD4FFF777FFC01B57
:102280001928F6D9202342461A4390460126D2E760
:102290004A688023DB0113434B60FFF767FF0700A9
:1022A000E7E7002E01D12023C361042643463343D0
:1022B0001E00012522689369D90504D501210E432A
:1022C000FF31D16101255A0506D50822164322683F
:1022D0008021C900D16101259B051FD502231E4322
:1022E000236880229200DA6101252000FFF766FF53
:1022F000226853680B490B405360636C334363643B
:1023000041232022E25400232232A354023AA35450
:10231000280080BCB846F0BD0025CBE7002DF7D0E3
:10232000E3E7C04600E800FE70B504000D001600AB
:1023300023689B699B0720D4320029002000FFF707
:1023400067FF00281BD16B1CF2D0FFF70FFF801B2B
:10235000A84201D8002DEBD123689B699B07E7D4E5
:10236000636C2022134363644123E254002322322E
:10237000A354023AA354012000E0002070BD0120C4
:10238000FCE7F0B5D6464F4680B583B007000D0098
:10239000160099460A9B9A463B689C692C40641B30
:1023A00063425C410196B44228D152464946380006
:1023B000FFF72EFF002827D14B460133ECD0FFF763
:1023C000D5FE5346C01A484502D84B46002BE3D1F0
:1023D0003B689B692B405B1B5A425341019A9342D5
:1023E000DAD17B6C202213437B644123FA5400230F
:1023F0002232BB54023ABB54012000E0002003B05B
:10240000C0BCBA46B146F0BD0120F8E770B582B055
:10241000040015001E008023F2B2194800905B04EE
:102420002000FFF7DBFE079A06992000FFF77CFFEC
:1024300000281ED1012E0ED12368EDB29D62079BAC
:102440000093069B002280212000FFF79AFF0028BE
:1024500013D102B070BD23682A0A9A62079A0699BE
:102460002000FFF761FF002805D12368EDB29D62CF
:10247000E5E70120EDE70120EBE70120E9E7C046B1
:102480000020008070B582B0040015001E00DAB292
:10249000184B00930023FFF7A1FE079A069920002E
:1024A000FFF742FF00281ED1012E0ED12368EDB2A6
:1024B0009D62079B0093069B002240212000FFF7AE
:1024C00060FF002813D102B070BD23682A0A9A6207
:1024D000079A06992000FFF727FF002805D12368F7
:1024E000EDB29D62E5E70120EDE70120EBE7012079
:1024F000E9E7C0460020008070B504000D0016001A
:1025000003E023689B699B0612D523689B699B06A1
:102510001BD4320029002000FFF77AFE002816D1D4
:10252000FFF724FE801BA842EBD8002DEDD1E8E791
:10253000636C2022134363644123E254002322325C
:10254000A354023AA354012000E0002070BD0120F2
:10255000FCE70000F8B504000E001700002518E0A5
:1025600000236364FFF702FEC01BB04201D8002EB7
:102570000FD1002D0DD123689B695B0709D4636CD3
:102580002022134363644123E254013B0022E254BE
:10259000013523689B695B0728D4002D26D13A00BA
:1025A00031002000FFF734FE002800D0012522680A
:1025B00093699B06D6D5002DD4D193699369DB0628
:1025C000CED51023D3610C3B636423682022DA61EB
:1025D00021684B68064803404B604123E2540023C6
:1025E0002232A354023AA3540135BBE72800F8BDB8
:1025F00000E800FE10B5041E60D04123C35C002B30
:1026000048D041232422E2542268136801218B43DD
:102610001360636822682A490B401361226893683B
:1026200028490B409360E368012B39D0A1682268E8
:1026300084231B020B439360E368022B37D022688C
:10264000536821490B405360226851681F4B0B436C
:1026500053602268D3681B490B40D36023696269C9
:102660001343A269120221681343CB60E369216A14
:1026700022680B4313602268136801210B43136027
:102680000023636441221F31A15423630132A35408
:10269000002010BD40330022C254FFF7BDF8B0E760
:1026A000A168226880231B020B439360C4E7226861
:1026B000516880231B010B435360C5E70120E8E705
:1026C000FFFFFFF0FF7FFFFFFFF7FFFF008000022B
:1026D000F0B585B004000E00029203930A9D4123D9
:1026E000C35C202B00D0AAE02033C35C012B00D1B7
:1026F000A8E040230122C254FFF738FD07008021E3
:1027000000901923012209022000FFF73AFE002859
:1027100000D099E041232122E2540133113AE254DE
:1027200000236364029A6262039A62856363638D25
:10273000FF2B1ED9FF23238580235B04228D002AD3
:102740001CD02268029909789162626A0132626241
:10275000628D013A92B26285228D013A92B222854F
:102760000132D2B23C49009131002000FFF736FD22
:1027700018E0638D238580239B04DFE7D2B23649BE
:10278000009131002000FFF729FD0BE0628D92B22D
:1027900022858023D2B2002100919B0431002000C9
:1027A000FFF71CFD638D002B32D03A00290020007A
:1027B000FFF7BAFD002849D1626A236812789A624D
:1027C000636A01336362638D013B9BB26385238D32
:1027D000013B9BB22385628D002AE3D0002BE1D11F
:1027E00000972B00002280212000FFF7CAFD00285F
:1027F0002ED1638DFF2BC9D9FF2323857F3B002278
:1028000000925B04FF3231002000FFF7E7FCC9E7CC
:102810003A0029002000FFF76FFE00281AD1236834
:102820002022DA6121684B680C4D2B404B6041231C
:10283000E25400232232A354023AA35400E00220BF
:1028400005B0F0BD0220FBE70120F9E70120F7E722
:102850000120F5E70120F3E70020008000E800FEFA
:10286000F0B585B004000F00029203930A9D412346
:10287000C35C202B00D097E02033C35C012B00D138
:1028800095E040230122C254FFF770FC060080212E
:1028900000901923012209022000FFF772FD002891
:1028A00000D086E041232222E2540133123AE2545E
:1028B00000236364029A6262039A62856363638D94
:1028C000FF2B0BD9012323857F333E4A00925B0403
:1028D000012239002000FFF781FC18E0628D92B2DE
:1028E00022858023D2B2374900919B043900200011
:1028F000FFF774FC0BE0628D92B222858023D2B286
:10290000002100919B0439002000FFF767FC638DD4
:10291000002B32D0320029002000FFF71BFE0028D8
:1029200049D123685A6A636A1A70636A0133636221
:10293000238D013B9BB22385628D013A92B2628561
:10294000628D002AE3D0002BE1D100962B000022FB
:1029500080212000FFF715FD00282ED1638DFF2B6D
:10296000C9D9FF2323857F3B002200925B04FF32FD
:1029700039002000FFF732FCC9E7320029002000AF
:10298000FFF7BAFD00281AD123682022DA612168F6
:102990004B680D4D2B404B604123E2540023223203
:1029A000A354023AA35400E0022005B0F0BD022077
:1029B000FBE70120F9E70120F7E70120F5E7012017
:1029C000F3E7C0460024008000E800FEF0B587B0C1
:1029D00004000391049205930CAB20CB1F88412384
:1029E000C35C202B00D0AFE0002D18D0002F16D0F4
:1029F0004023C35C012B00D1A9E040230122C25433
:102A0000FFF7B4FB06008021009019230122090280
:102A10002000FFF7B6FC002806D0012095E08023B7
:102A20009B006364012090E041232122E2540133A2
:102A30001F32E25400236364656267856363019615
:102A40000E9B0093059B049A03992000FFF7DEFC80
:102A500000280ED1638DFF2B10D9FF2323857F3BE8
:102A6000002200925B04FF3203992000FFF7B6FBBF
:102A700020E040230022E254012066E0628D92B201
:102A800022858023D2B2002100919B04039920006B
:102A9000FFF7A4FB0EE0628D92B222858023D2B2B2
:102AA000002100919B0403992000FFF797FB638DA1
:102AB000002B32D032000E992000FFF735FC0028A1
:102AC00047D1626A236812789A62636A013363624B
:102AD000638D013B9BB26385238D013B9BB22385B4
:102AE000628D002AE3D0002BE1D100960E9B0022DC
:102AF00080212000FFF745FC00282CD1638DFF2B9F
:102B0000C9D9FF2323857F3B002200925B04FF325B
:102B100003992000FFF762FBC9E732000E992000FD
:102B2000FFF7EAFC002818D123682022DA61216827
:102B30004B680B4D2B404B604123E2540023223263
:102B4000A354023AA35400E0022007B0F0BD0220D3
:102B5000FBE70120F9E70120F7E70120F5E7C04690
:102B600000E800FEF0B587B00400039104920593DD
:102B70000CAB20CB1F884123C35C202B00D0B1E0DD
:102B8000002D18D0002F16D04023C35C012B00D19C
:102B9000ABE040230122C254FFF7E8FA060080218F
:102BA00000901923012209022000FFF7EAFB002808
:102BB00006D0012097E080239B006364012092E00F
:102BC00041232222E25401331E32E2540023636483
:102BD00065626785636301960E9B0093059B049A6B
:102BE00003992000FFF74EFC00280ED1638DFF2BC8
:102BF00010D9012323857F33404A00925B040122D0
:102C000003992000FFF7EAFA20E040230022E25473
:102C1000012068E0628D92B222858023D2B23749CA
:102C200000919B0403992000FFF7D8FA0EE0628D13
:102C300092B222858023D2B2002100919B04039995
:102C40002000FFF7CBFA638D002B34D000960E9B4B
:102C5000002204212000FFF794FB002847D12368BD
:102C60005A6A636A1A70636A01336362238D013B97
:102C70009BB22385628D013A92B26285628D002AF1
:102C8000E1D0002BDFD100960E9B00228021200096
:102C9000FFF777FB00282CD1638DFF2BC7D90123C9
:102CA00023857F33002200925B04013203992000C8
:102CB000FFF794FAC7E732000E992000FFF71CFCDB
:102CC000002818D123682022DA6121684B680C4D56
:102CD0002B404B604123E25400232232A354023A9A
:102CE000A35400E0022007B0F0BD0220FBE7012062
:102CF000F9E70120F7E70120F5E7C046002400804E
:102D000000E800FEF0B54123C35C202B20D1203326
:102D1000C35C012B1ED040240122025541252423EF
:102D200043550668336893433360066833680A4F37
:102D30003B403360066833680B43336001680B68BF
:102D400013430B6020234355002303550020F0BD9F
:102D50000220FCE70220FAE7FFEFFFFFF0B5412376
:102D6000C35C202B1ED12033C35C012B1CD040241C
:102D700001220255412524234355066833689343B5
:102D8000336006683368094F3B40090219433160DC
:102D900001680B6813430B60202343550023035540
:102DA0000020F0BD0220FCE70220FAE7FFF0FFFF61
:102DB000F0B583B0002356E086685F000324BC4072
:102DC000A643CC68BC4034438460446894434E6856
:102DD0003609012232409A402243426053E0DE0825
:102DE0000836B600375805321A4092000F24944036
:102DF000A7430C69944022003A43325056E0032620
:102E000000E00026A64034003C4302329200444ECB
:102E10009451444A9768EA433E00AE434C68E4024A
:102E200001D53E002E433F4CA660E7683E001640A9
:102E30004C68A40201D53E002E433A4CE660676818
:102E40003E0016404C68A40301D53E002E43354C8D
:102E50006660266832404C68E40301D52A0032439C
:102E6000304C226001330C682200DA4056D0012237
:102E70009A40250015401442F4D04E680324344093
:102E8000013C012C98D94C6803222240032A08D027
:102E9000C4685E000322B24094438A68B240224371
:102EA000C2604C6803222240022A98D004685E0067
:102EB00003221700B740BC434F683A40B240224358
:102EC00002604C68C02292021442CBD0164CA66914
:102ED00001221643A661A46922400192019A9A0830
:102EE000941CA4000E4EA75903241C40A4000F26D6
:102EF000A640B7439026F605B04282D00B4EB042B2
:102F000008D00B4EB04207D00A4EB04200D176E74F
:102F1000052677E7012675E7022673E703B0F0BDC3
:102F2000000001400004014000100240000400487D
:102F300000080048000C004803690B4201D0012042
:102F400070470020FCE7002A01D081617047816250
:102F5000FCE7000010B5054B5B69184200D110BDBD
:102F6000024B5861FDF766FBF9E7C04600040140DB
:102F700070B5002811DB8308134DC0339B005C59EA
:102F800003221040C000FC3216008640B443890181
:102F90000A40824022435A5170BD0F230340083B30
:102FA0009B0806339B00094A944663445C680322ED
:102FB0001040C000FC3215008540AC4389010A4036
:102FC000824022435A60E7E700E100E000ED00E0C4
:102FD000013880235B0498420FD2094A50600948A7
:102FE000036A1B021B0AC02109060B43036200236C
:102FF000936007331360002070470120FCE7C04650
:1030000010E000E000ED00E010B5FFF7B1FF10BDEB
:10301000002805DB1F22024001239340014A136070
:103020007047C04600E100E010B5FFF7D1FF10BDCA
:10303000064A1369042083431361012903D040BF6A
:1030400020BF20BF704730BFFCE7C04600ED00E066
:103050007047000030B5056A036A0122934303629A
:10306000426883697324A3430C681C4302239D4375
:103070008B682B43154DA84208D0154DA84205D0AA
:10308000144DA84202D0144DA84206D10825AB43E6
:103090001D00CB682B430425AB430C4DA84208D040
:1030A0000B4DA84205D00B4DA84202D00A4DA842B4
:1030B00005D10A4D2A404D6915438A692A43426069
:1030C00084614A684263036230BDC046002C0140FF
:1030D000004001400044014000480140FFFCFFFF68
:1030E00030B5046A036A184A134003624268C36930
:1030F0007325AB430D681D43144B1C408B681B02AA
:103100002343134CA04209D0124CA0420DD0124CC4
:10311000A0420AD0114CA0420FD106E0104C1C4036
:10312000CB681B0223430F4C23400F4C22404C69B9
:10313000240114438A69120122434260C5614A682E
:10314000C263036230BDC046FFFEFFFFFFFDFFFF0D
:10315000002C014000400140004401400048014073
:10316000FFF7FFFFFFFBFFFFFFCFFFFF30B5046A54
:10317000036A134A134003624368C269114D2A402F
:103180000D682D021543104A14408A681203224329
:103190000E4CA04208D00E4CA04205D00D4CA042CF
:1031A00002D00D4CA04204D10C4C1C404B699B0139
:1031B00023434360C5614B680364026230BDC0466F
:1031C000FFEFFFFFFF8CFFFFFFDFFFFF002C014041
:1031D000004001400044014000480140FFBFFFFFA4
:1031E000704700000368204A904202D01F4A904274
:1031F00003D1702293434A6813431B4A90420ED076
:103200001A4A90420BD01A4A904208D0194A90426A
:1032100005D0194A904202D0184A904203D1184A68
:103220001A40CB681343802293434A6913430360D7
:103230008B68C3620B6883620B4B984208D00D4BBE
:10324000984205D00C4B984202D00C4B984201D1C9
:103250000B690363012343610269134203D00369CD
:103260000122934303617047002C01400004004099
:10327000002000400040014000440140004801405F
:10328000FFFCFFFF70B5041E26D03D23C35C002B5E
:103290001CD03D2502236355210001C9FFF7A2FF81
:1032A00001234622A354083AA3540132A354013205
:1032B000A3540132A3540132A3540132A354013266
:1032C000A3540132A3546355002070BD3C33002247
:1032D000C254FEF7D5FADCE70120F6E770B5041E0C
:1032E00026D03D23C35C002B1CD03D250223635513
:1032F000210001C9FFF776FF01234622A354083AB3
:10330000A3540132A3540132A3540132A354013215
:10331000A3540132A3540132A3540132A354635580
:10332000002070BD3C330022C254FFF759FFDCE798
:103330000120F6E770B5026A036A1024A343036212
:1033400044688369164D2B400D682D021D432023D0
:103350009A438B681B011343124A904209D0124AC8
:1033600090420ED0114A90420BD0114A904210D197
:1033700007E0802293431E00CB681B013343403A91
:1033800093430C4A14404A69920022438C69A4007A
:103390001443446085614A688263036270BDC0461D
:1033A000FF8CFFFF002C0140004001400044014021
:1033B00000480140FFF3FFFF70B504000D003C23FF
:1033C000C35C012B00D16AE03C230121C154082ACF
:1033D00050D01CD8002A35D0042A16D10068290004
:1033E000FFF7A8FF2268916980231B010B439361BB
:1033F000226893692B490B40936121688B692A6984
:10340000120213438B61002030E001202EE00C2AD1
:1034100016D100682900FFF7A9FE2268D169802330
:103420001B010B43D3612268D3691E490B40D36152
:103430002168CB692A6912021343CB61002015E091
:10344000012013E000682900FFF704FE2268936959
:1034500008210B4393612268936904398B4393617C
:103460002268936929690B43936100203C23002261
:10347000E25470BD00682900FFF732FE2268D3696C
:1034800008210B43D3612268D36904398B43D3618C
:103490002268D36929690B43D3610020E6E7022043
:1034A000E7E7C046FFFBFFFF10B51F2319400124CB
:1034B0008C40036AA3430362036A8A401343036296
:1034C00010BD000010B50400002932D13E23C35CBA
:1034D000013B5A1E9341DBB2002B5ED1002941D142
:1034E0003E330222E25420680122FFF7DDFF236809
:1034F0002C4A934208D02C4A934205D02B4A93423F
:1035000002D02B4A934204D1596C802212020A4302
:103510005A642368234A934234D0264A934231D0D6
:10352000214A93422ED01A6801210A431A600020D2
:1035300034E0042908D008290DD04123C35C013BA5
:103540005A1E9341DBB2C7E73F23C35C013B5A1EBF
:103550009341DBB2C0E74023C35C013B5A1E934159
:10356000DBB2B9E7042905D0082907D0412302229C
:10357000E254B8E73F230222E254B4E74023022298
:10358000E254B0E7996807220A40062A07D01A6871
:1035900001210A431A60002000E0012010BD002034
:1035A000FCE7C046002C01400040014000440140BF
:1035B000004801400004004010B53C23C35C012BCF
:1035C00021D03C2201238354CB68104C23408C68CB
:1035D00023430F4C23404C6823430E4C23400C687C
:1035E00023430D4C23400C6923430C4C23404C696E
:1035F00023430B4C2340C9690B4301684B640023F0
:103600008354002010BD0220FCE7C046FFFCFFFFF2
:10361000FFFBFFFFFFF7FFFFFFEFFFFFFFDFFFFFF6
:10362000FFBFFFFF10B5EFF3108C012282F310886B
:1036300001680B68124C23400B608CF31088EFF389
:10364000108C82F3108801688B6893438B608CF335
:103650001088036E012B06D080232022C250002345
:103660000366836610BDEFF3108183F31088026850
:1036700013683234FF34A343136081F31088EBE7FF
:10368000DFFEFFFF10B5040083680269134342693F
:103690001343C269134301680A684E48024013434A
:1036A0000B60226853684C490B40E1680B43536040
:1036B000A369226A1A4321688B6848480340134370
:1036C0008B602368464A934211D0464A93421FD0EA
:1036D0001023E06980221202904223D0042B6AD08A
:1036E0004ED8002B53D0022B48D13F4853E03F4BDC
:1036F0001A6B03231340022B0CD005D8002B0BD0E0
:10370000012B0BD10333E4E7032B09D1013BE0E7A5
:103710000023DEE70823DCE70023DAE71023D8E7FD
:103720001023D6E7042B26D007D8002B09D0022B74
:1037300001D12D4809E0012047E0082B05D00120E8
:1037400043E0FEF72FFC002838D0400061684B08AA
:10375000C018FCF7B5FC0200103A254B9A422FD84E
:1037600082B20F239A434008083B03401343226868
:10377000D360002029E0FEF745FBE4E7012024E0C8
:10378000082B02D18020000205E001201DE0FEF799
:1037900009FC002816D061684B081818FCF790FC4B
:1037A0000200103A124B9A420ED823680004000C13
:1037B000D860002009E0FEF725FBEAE7002004E0DE
:1037C000012002E0002000E001200023A366E36660
:1037D00010BDC046F369FFFFFFCFFFFFFFF4FFFFFF
:1037E000003801400044004000127A0000100240FE
:1037F000EFFF0000436A1B0706D5026853682C4997
:103800000B40416B0B435360436ADB0706D50268EC
:10381000536828490B40816A0B435360436A9B07F6
:1038200006D50268536824490B40C16A0B435360B4
:10383000436A5B0706D50268536820490B40016B59
:103840000B435360436ADB0606D5026893681C4944
:103850000B40816B0B439360436A9B0606D502685D
:10386000936818490B40C16B0B439360436A5B0636
:103870000BD50268536814490B40016C0B4353602D
:10388000026C80235B039A420AD0436A1B0606D56A
:10389000026853680D490B40816C0B4353607047BD
:1038A000026853680A490B40416C0B435360ECE7D4
:1038B000FF7FFFFFFFFFFDFFFFFFFEFFFFFFFBFF9F
:1038C000FFEFFFFFFFDFFFFFFFFFEFFFFFFFF7FF50
:1038D000FFFF9FFFF8B5CE46474680B506000D00B6
:1038E00017009946089B98463368DC692C40641B96
:1038F00063425C41BC4233D143460133F4D0FEF70E
:1039000035FC4B46C01A40452FD84346002B2ED0DD
:10391000326813685B07E7D5802DE5D0402DE3D0F2
:10392000D3691B0710D4D3691B05DDD580231B0188
:1039300013623000FFF776FE84232022F2500C3B06
:103940000022F25403200CE0082414623000FFF738
:1039500069FE8423F4500C3B0022F254012000E065
:103960000020C0BCB946B046F8BD0320F9E70320EB
:10397000F7E7000030B583B0040084230022C25072
:10398000FEF7F4FB050023681B681B070FD42368B0
:103990001B685B0729D42023E3678022A350002300
:1039A00023666366083AA354002003B030BD80212B
:1039B000224B00930300002289032000FFF78AFFB7
:1039C0000028E4D0EFF31081012383F310882268EC
:1039D000136880208343136081F310882023E367FA
:1039E00058330022E2547D38DFE78021134B0093E7
:1039F0002B000022C9032000FFF76CFF0028CAD06B
:103A0000EFF31080012282F3108821680B680C4DBF
:103A10002B400B6080F31088EFF3108082F3108846
:103A200021688B6893438B6080F3108880231F325A
:103A3000E250083B0022E2540320B6E7FFFFFF01FB
:103A4000DFFEFFFF10B5041E2ED0C36F002B21D068
:103A50002423E3672268136801218B431360636AA0
:103A6000002B1DD12000FFF70DFE012811D0226888
:103A700053680E490B4053602268936808218B43BA
:103A800093602268136807390B4313602000FFF727
:103A900071FF10BD78330022C254FDF731FFD7E724
:103AA0002000FFF7A7FEDDE70120F2E7FFF7FFFFA9
:103AB0000D488546FFF7CCFA0C480D490D4A002306
:103AC00002E0D458C4500433C4188C42F9D30A4AD3
:103AD0000A4C002301E013600432A242FBD300F041
:103AE0001FF8FCF78DFEFEE70020002000000020FC
:103AF00064000020EC7100086400002090030020A6
:103B0000FEE703008218934200D170471970013319
:103B1000F9E70000014B18687047C0461400002008
:103B200070B500260C4C0D4D641BA410A64209D1A3
:103B3000002603F0C1FA0A4C0A4D641BA410A642E9
:103B400005D170BDB300EB5898470136EEE7B300DE
:103B5000EB5898470136F2E7E4710008E471000879
:103B6000E8710008E471000870B5041C00F042F828
:103B7000211C051C201C01F0A3F9002810D1201CD9
:103B800000F030F8FE218905FCF736FC002807D04C
:103B9000FFF7C0FF21230360024800F027F8051C4F
:103BA000281C70BD1C71000870B5041C00F084F95D
:103BB000211C051C201C01F083F9002805D10021DF
:103BC000201CFCF705FC002801D1281C70BDFFF764
:103BD000A1FF212300210360081C00F00FFC051C3D
:103BE000F3E7C046400040087047C04600487047B1
:103BF0000000C07FFE22F8B543000100041C5B08F2
:103C00009205934211D00AD8FC229205934211D218
:103C10008C229205934200D97EE0984804E000F09F
:103C20000DFF011C00F0EAFBF8BD0020002CFBDCBE
:103C30009348F9E7002800DAC1E0FE20800500F093
:103C4000FDFEFC21890500F0A7FD041C00F034F9FD
:103C50008C49061C050B201C00F09EFD8A4900F0D3
:103C6000BFF9211C00F098FD884900F0E7FE211CF7
:103C700000F092FD864900F0B3F9211C00F08CFDA4
:103C8000844900F0DBFE211C00F086FD824900F033
:103C9000A7F9211C00F080FD8049071C201C00F0C2
:103CA0007BFD7F4900F0CAFE211C00F075FD7D49B7
:103CB00000F096F9211C00F06FFD7B4900F0BEFE7C
:103CC000211C00F069FDFE21890500F089F9011C25
:103CD000381C00F093FB311C00F05EFD2D03071C27
:103CE000291C281C00F058FD011C201C00F0A6FE19
:103CF000291C041C301C00F073F9011C201C00F06E
:103D00007DFB011C381C00F06BF9291C00F068F9E0
:103D1000011C00F065F987E700F03EFD5949051CDC
:103D200000F03AFD584900F05BF9291C00F034FD21
:103D3000564900F083FE291C00F02EFD544900F086
:103D40004FF9291C00F028FD524900F077FE291C8C
:103D500000F022FD504900F043F9291C00F01CFD41
:103D60004E49061C281C00F017FD4D4900F066FE68
:103D7000291C00F011FD4B4900F032F9291C00F01C
:103D80000BFD494900F05AFE291C00F005FDFE21FB
:103D9000890500F025F9011C301C00F02FFB211CC7
:103DA00000F0FAFC011C414800F048FE011C201CF8
:103DB00000F044FE011C3E4800F040FE34E7FE21C6
:103DC000890500F00DF9FC21890500F0E5FC2D497D
:103DD000041C00F0E1FC2C4900F002F9211C00F069
:103DE000DBFC2A4900F02AFE211C00F0D5FC284902
:103DF00000F0F6F8211C00F0CFFC264900F01EFE72
:103E0000211C00F0C9FC244900F0EAF8211C00F054
:103E1000C3FC2249051C201C00F0BEFC204900F018
:103E20000DFE211C00F0B8FC1E4900F0D9F8211C41
:103E300000F0B2FC1C4900F001FE211C00F0ACFCBB
:103E4000FE21890500F0CCF8061C201C00F034F897
:103E5000311C041C281C00F0D1FA211C00F09CFC31
:103E6000124900F0EBFD211C00F0BAF8011C00F033
:103E7000B7F8011C0F4800F0E1FDD5E6DB0FC93FA4
:103E8000DB0F494008EF1138047F4F3A4611243DBB
:103E9000A80A4E3E90B0A63EABAA2A3E2EC69D3D35
:103EA0006133303F2D57014039D119406821A23389
:103EB000DA0FC93FDA0F4940F0B5FF21C64643008B
:103EC000020000B5041C5B08C9058B4251D2002BCF
:103ED0004CD0002856DBC315014208D180210023B5
:103EE000090452001C0001330A42FAD063428024C4
:103EF0001E005202520A24047F3E1443DB073FD5C2
:103F00008022192100270025761064005204A81889
:103F10002300A04202DC8518231ABF1801395C0077
:103F200052080029F3D1002B19D01C4C1C4D2068DD
:103F300029682368984600F081FD011C4046FCF783
:103F400051FA00280BD02068296800F049F824684D
:103F5000011C201CFCF73CFA00281AD00237FC2375
:103F60009B059C467F106744F005C01980BCB8468D
:103F7000F0BD011C00F010FC211C00F031F8F5E749
:103F80006400BDE7011C00F059FD011C00F036FA89
:103F9000ECE7012301379F43E1E7C04624710008A5
:103FA0002071000870B500220C4B04000D00FCF7D6
:103FB0006BFA002804D12000290002F01FFE70BD1A
:103FC000064B00222000290002F0E0F902F016FE64
:103FD00080231B069C466044F1E7C0460000E04198
:103FE0004A02F8B5530ACE4699464B00C90F4746D8
:103FF000884646004502360E1B0E80B5C40F6F0A78
:104000009209AD09F11A44454BD0002938DD002B47
:1040100000D174E0FF2E00D1BEE08023DB041A4300
:104020001B2900DCFDE0013D6B0100D4AFE0012560
:104030006D42AD01AF093800FCF730FA3B0005389E
:104040008340864200DCD3E0B94D311A1D405A0747
:1040500000D19EE00F221340042B00D199E00435DB
:104060006B0100D495E0481CFE2951D1FF200023AC
:10407000C0051843E4072043C0BCB946B046F8BDAC
:10408000002949D0991B002E72D1002D00D133E1B7
:104090004C1E012900D159E1FF2900D14CE121003A
:1040A0006CE0002900DC81E0002B55D1002A70D0A3
:1040B0004B1E012900D12BE1FF296DD01B2B50DCB9
:1040C000190020235B1A10009A40C840531E9A41E1
:1040D0000243AD188023DB041D4200D1ADE0711C0A
:1040E000FE2EC3D001206A082840924D154005439A
:1040F0006A0700D08BE01D42B5D1EF0834E0002AFA
:1041000047D04B1E012966D0FF2945D0190087E70B
:10411000C0B2AB015B0AABE7FE239C46701C0300F8
:104120006046184200D092E0002E00D0E7E0002D5B
:1041300000D119E1002A17D08023AF1ADB041F42F7
:1041400000D142E14446551B00D187E001201D42C9
:10415000DFD10021EF0807E0FF2E1DD01B2900DC76
:1041600094E031000535EF087B025B0AC8B27FE7B7
:10417000FF2B00D1E0E08020C00405431B2900DCB8
:1041800088E0551E44461E00690100D54FE7310006
:104190000435EF08FF29E7D1002F00D166E780231F
:1041A000DB033B435B02FF205B0A61E7002958D039
:1041B000991B002E00D089E0002D00D19DE04E1EFD
:1041C000012900D1A4E0FF2900D1B6E01B2E00DDBB
:1041D000B8E0310081E0AA1A530100D4AFE09701A2
:1041E000BF093800FCF75AF93B0005388340012627
:1041F0001D00811B20200131CD40411A8B40591EEA
:104200008B411D432AD000216B0700D1F0E00F2322
:104210002B40042B00D022E76B0100D523E7EF08E9
:10422000A2E720235B1A10009A40C840531E9A410F
:104230000243AD1A6B0100D5FBE66B0700D1D5E058
:104240000F2331002B40042B00D008E7A1E7AF1A61
:104250007B014ED4002F00D0EDE600240020002387
:1042600006E7FE23711C0B4221D1002E00D081E015
:10427000002D00D19FE0002A00D1B2E0AB185A0116
:1042800000D4B0E09B0101205B0AF1E68023DB044F
:104290001A4316E720242800C840611A8D402900DF
:1042A0004C1EA141014344461E00551AC2E7FF2996
:1042B00000D1DBE6AF187F087B0705D00F233D1D3B
:1042C0003B40042B00D064E7FF084DE7FF2B34D0C0
:1042D0001B2937DC8020C004054328002026C84065
:1042E000711A8D4029004D1EA94101431E008D18F1
:1042F000F0E64446571B9EE64446150049E7002D6C
:1043000046D1002A66D180230024FF20DB03AFE6DC
:10431000AA18530113D5074F52081740530744D02A
:104320000F231340042B40D002213D1D31E7C0462E
:10433000FFFFFFFBFFFFFF7D44464F462CE70121B7
:10434000D70811E705321900D7080DE7571B7B0185
:1043500037D5BF01BF093800FCF7A0F83B0005388E
:1043600083404446013643E7002A00D175E74446BE
:104370004F46F9E6002DE0D08023DB03002A17D05A
:104380009F4200D20BE7994500D308E74F4606E766
:104390008023DB03002A0BD09F4200D2FFE6994521
:1043A00000D3FCE644464F46F9E60221FF08DBE66F
:1043B000FF203B435CE6002A00D14FE70021D708ED
:1043C000D2E644460121FF08CEE6002F00D07BE76D
:1043D000002443E780234A46DB034446FF2013437F
:1043E00046E60021C0E60021DF08BDE63100D0E648
:1043F00001206A0100D58BE62A00DFE7F0B54646CA
:104400004F46D6464502C0B5C30F470098460E1C1E
:104410006D0A3F0E5BD0FF2F21D08023ED00DB041F
:104420001D43002399469A467F3F74027300640A35
:104430001B0EF60F002B20D0FF2B43D08022002034
:10444000E400D20414437F3B4246FF1A4B467240BD
:104450000F2B00D99DE071499B00CB589F46002D42
:104460005AD108239946063B74029A467300FF27E7
:10447000640A1B0EF60F002BDED1002C3BD101236A
:1044800042464946724019430E2918D864488900AB
:1044900041588F465346022B00D1B8E0032B6ED013
:1044A00042462C00012B40D100200024C0052043AF
:1044B000D2071043E0BCBA46B146A846F0BDFF2083
:1044C0000024F3E7002C20D10223FF3FD8E7002D82
:1044D00005D104239946033B00279A46A5E7280007
:1044E000FBF7DCFF7627431F9D4000237F42994660
:1044F0009A463F1A99E72000FBF7D0FF431F9C40E4
:1045000076235B421B1A00209EE703234A461A4388
:1045100091460320FC3397E70C239946093BFF277C
:104520009A4682E703282CD0320038007F300028DA
:1045300047DD630704D00F232340042B00D004344D
:10454000230103D53800374B80301C40FE28B6DCF1
:10455000A401640AC0B2A9E780240022FF20E4037A
:10456000A4E78023DB031D4201D01C420BD0802432
:10457000E4032C4364024246FF20640A96E7464661
:104580002C008023DB031C4364023200FF20640AFA
:104590008CE76D01600185422DD21B230024013F71
:1045A0000126290064006D00002901DB854201D34A
:1045B0002D1A3443013B002BF3D16B1E9D412C433C
:1045C000B3E701231B1A1B2B00DD6DE721009E378B
:1045D000D940BC400B00611E8C412343590704D0D5
:1045E0000F211940042900D00433590113D49B0131
:1045F00000205C0A5AE71A2301242D1AD0E7981EDE
:1046000043425841404232000024C0B24EE7424685
:10461000FF2000244AE70120002447E72871000812
:1046200068710008FFFFFFF770B542004E024C00B2
:1046300045026D0A120EC30F760A240EC90FFF2A17
:1046400010D0FF2C0CD00120A2420AD1B54208D1D3
:104650008B420FD0002A04D12800431E984100E06D
:10466000012070BD0120FF2CFBD13543F9D14B4017
:104670001800F6E70020F4E730B5420044024D028E
:10468000C30F4800640A120E6D0A000EC90FFF2AFC
:1046900018D0FF280AD0002A1ED100280AD1002DE8
:1046A00029D0002C2DD14800013830BD002D25D156
:1046B000002A01D1002CF6D08B4219D001205B4298
:1046C0001843F2E7002C19D1FF28F7D1002D15D19E
:1046D00000208B42F2D1E8E70028EFD08B42EDD1E9
:1046E0008242EBDC04DBAC42E8D80020AC42DCD2F6
:1046F00058000138D9E7002CD7D0DFE7022040422C
:10470000D3E78B42DAD1EEE730B5420044024D02E6
:10471000C30F4800640A120E6D0A000EC90FFF2A6B
:1047200017D0FF280AD0002A1BD100280AD1002D5B
:104730001DD0002C2DD14800013811E0002D0ED1E4
:10474000002A01D1002CF6D08B420CD15800013840
:1047500006E0002C03D1FF2805D1002D15D0022042
:1047600030BD002806D101205B421843F8E7002C39
:10477000F6D0F8E78B42F6D18242F4DCE6DBAC42BD
:10478000F1D80020AC42EBD2E0E700208B42EAD126
:10479000E6E78B42E7D1F2E7F0B54F464646D6460C
:1047A0004502C0B546000F1C6D0A360EC40F002E20
:1047B00000D1CDE0FF2E72D08023ED00DB041D433D
:1047C000002399469A467F3E7B025B0A98467B000F
:1047D0001B0EFF0F002B72D0FF2B00D1A9E07F3BF7
:1047E000F6184B460A2B00DD85E043468022DB00AD
:1047F000D2041A434B4690467C400022022B0FDD28
:10480000494601238B40A621C9000B4200D072E02B
:10481000902189000B4200D0DAE08821194267D14B
:10482000280C42462D042D0C4346290012041B0C73
:10483000120C51435D4342435843AD180B0C5B19B6
:104840009A4203D9802252029446604409041A0411
:10485000090C52189501691E8D411B0C920E1B18F4
:1048600015439B011D431B0100D5CFE030007F3075
:10487000002800DCB1E06B070BD00F2332002B4087
:10488000042B06D004352B0103D5803210006A4B6F
:104890001D40FE2864DCAB015B0AC0B21FE0002DA6
:1048A00000D08FE008239946063B9A467B025B0ABC
:1048B00098467B00FF261B0EFF0F002B8CD1434632
:1048C000002B5CD14A4601331A43914613000A2A51
:1048D00011DC01227C40022B92DC00200023C00569
:1048E0001843E4072043E0BCBA46B146A846F0BDF1
:1048F0003C00454692465346022B31D0032B11D043
:10490000012BEAD030008030721C002866DD6B0776
:10491000B9D00F232B40042BB4D1B4E70F2A7AD09F
:104920003C0045468023DB032B435B02FF205B0AF0
:10493000D5E74346FF36002B34D14A4602331343B2
:104940000A2BD8DC7C40002A0AD09946022257E77D
:10495000002D08D104239946033B00269A4633E7ED
:10496000FF200023BBE72800FBF798FD7626431FB6
:104970009D400023764299469A46361A24E74046DF
:10498000FBF78CFD4B46361A763E0A2BB3DC4346CA
:104990000538834098464B4600227C40022B00DDC0
:1049A0002EE73DE703234A461A4313000A2AB5DCE3
:1049B00001229A40882113007C400322194200D131
:1049C0002EE795E70C239946093BFF269A46FBE61E
:1049D00080230024FF20DB0381E7320001231B1A20
:1049E0001B2B00DD79E79E3229009540D9406A1ED5
:1049F00095410D436B0704D00F232B40042B00D0AF
:104A000004356B0113D50120002368E701236A08F0
:104A10001D40154376E78023DB031D4282D04246CA
:104A20001A4200D07EE73C00FF20134357E7AB015A
:104A300000205B0A53E7C046FFFFFFF7F8B5474683
:104A4000CE464B02460080B5C40F4702580A844642
:104A500048007A0A360EBF09000ECD0F9B09FF28C9
:104A60006DD001214D40311AAC423AD0002900DC12
:104A70009CE1002800D19EE0FF2E00D188E080223A
:104A8000D20413431B2900DCF6E0013F7A0100D475
:104A900079E001277F42BF01BB0998464046FBF7FA
:104AA000FDFC434605388340864200DCCCE0B44F31
:104AB000311A1F405A0768D00F221340042B64D0CC
:104AC00004377B0161D5481CFE2900D081E0FF201E
:104AD0000023C0051843E4072043C0BCB946B046D4
:104AE000F8BD002900DC79E1002876D1002B4CD0FC
:104AF000481E012900D147E1FF2949D01B2871DC5C
:104B000001001A002020CA40411A8B40591E8B41D7
:104B10001343FF188023DB041F4200D1B8E0711C4F
:104B2000FE2ED4D0012297483A407F080740174311
:104B30007A0700D096E01F42C5D1FA0855E031004F
:104B4000FF398946002B2CD101214D40AC4200D1C8
:104B5000B4E0494600294CD0002E00D0F9E0FF21F6
:104B6000002F00D108E14A1E012900D156E1FF299A
:104B700000D142E11B2A00DC24E15F1E2C0006006C
:104B80007A0100D585E731000437FA08FF292CD1D6
:104B9000002A9CD08023DB0313435B02FF205B0AC7
:104BA00097E7AC4200D1A7E0002922D0002ED6D052
:104BB00062462C00EEE7002BE7D0481E012936D0D4
:104BC000FF29E5D001005DE701203B007A0100D418
:104BD00057E1C0B2BB015B0A7BE7FF2ED8D01B298F
:104BE00000DC9FE031000537FA0853025B0AC8B2C7
:104BF0006FE7FE20711C084254D1002E00D0B1E0B6
:104C0000002F00D102E1002B00D1F9E08021FA1A37
:104C1000C9040A4200D13BE10124DF1B2C40002FD4
:104C200049D001200F42D5D10021FA08DDE7FF1A53
:104C30007B0100D4DEE0BD01AD092800FBF72EFCAE
:104C40002B000538834001262022811B0131521A96
:104C50001F009340CF405A1E93411F432BD0002189
:104C60007B07B1D00F233B40042B00D028E77B010A
:104C700000D528E7FA08B8E71A002020CA40411AF0
:104C80008B40591E8B411343FF1A7B0100D502E76D
:104C90007B0700D10DE10F2331003B40042B00D0F6
:104CA0000EE772E7FA1A9046520156D44346002B9B
:104CB00000D0F3E60024002000230AE7494600293B
:104CC0001CD0002E00D002E7FF21002F55D04A1E35
:104CD000012959D0FF2900D190E01B2A00DD91E085
:104CE00011003A002025CA40691A8F40791E8F4171
:104CF00017430600FF180DE7002926D1FE20711C7E
:104D0000084213D1002E00D096E0002F00D1B4E06D
:104D1000002B75D0FB185A0100D4B2E09B015B0A4E
:104D2000FD38D6E68022D2041343EAE6FF2900D1FB
:104D3000CDE6FA185208530705D00F23171D13406C
:104D4000042B00D021E7D2084FE7002EBCD06246EA
:104D500020E72C00FF200023BBE60124DB1B984644
:104D60002C409BE6002F75D1002B00D096E08023CD
:104D70000024FF20DB03ACE62C001F0005E7C04643
:104D8000FFFFFFFBFFFFFF7DFB185A0100D48DE002
:104D90004A4A5B081A40590700D18CE00F210B40AA
:104DA0000D39042BCFD00221171DEEE6002900D1CA
:104DB0001FE7821B1100002E00D1D1E68021C9041B
:104DC0000F43D7E639002024D140A21A97407A1E1B
:104DD00097410F432C000600DF1B56E700298DD0BA
:104DE000811B002E00D170E71B290BDC8022D2042E
:104DF000174376E70121FA08F7E62C006246C7E67A
:104E00000021F2E605330100DA08EEE6002B00D1BE
:104E100050E70124002162462C40E6E6DA1B5301EC
:104E200032D5920194092000FBF738FB23000538A6
:104E300083402C00012607E7002FDFD0002B17D07E
:104E40008023DB039A4200D2A4E69C4500D3A1E66E
:104E500062469FE6002B0BD08023DB039A4200D2F0
:104E600098E69C4500D395E6012462462C4091E6E5
:104E70008023DB03FF2013432BE60020002B00D10F
:104E800027E60021DA08B0E62C000121D208ACE6C2
:104E9000002A00D10EE70021D208A6E68023624650
:104EA0000124DB03FF2013432C4012E60121DA0822
:104EB0009BE6310069E60221D20896E6FFFFFF7DFE
:104EC00043024A02400049005B0A520A090E000EE2
:104ED000FF2806D00020FF2902D1531E9A4110005E
:104EE0007047FE38002BFBD1F4E7C04670B50028B0
:104EF00012D0C317C5185D40C40F2800FBF7CEFAC7
:104F00009E231B1A962B0FDC082838D008388540C2
:104F10006D026D0AD8B202E0002400200025C00511
:104F20002843E407204370BD992B14DC421F9540B1
:104F30002A001549114055071CD00F252A40042A84
:104F400018D00431CA08490115D59F235202181AF6
:104F5000550AC0B2E3E7020029001B3291404A1E05
:104F600091410522121AD5402A000A4306491140F0
:104F70005507E2D1CA085202550AD8B2CFE76D02EE
:104F80006D0A8E30CBE7C046FFFFFFFBF0B54F4602
:104F90004646D646C0B50D0382B0009201934E003E
:104FA000C300CC0F690A450F9C46009A019B0D4334
:104FB0005F001903D80F009B490A5B0F1943009B40
:104FC000760D7F0DDA00F31B844258D0002B13DDE1
:104FD000002F00D088E00800104300D159E1581E8E
:104FE000012B00D1C2E2B14FBB4200D141E13828D0
:104FF00000DD6AE2030064E1002B00D1B1E0BB1BDD
:10500000002E00D0E1E164462C4300D176E25C1E24
:10501000012B00D1E8E2A54EB34200D1B7E2382C13
:1050200000DC6BE3541EA242924152428D1AA0460C
:105030001E0004002A0268D443461F1D47459B41B9
:105040005B42ED182B0200D49DE3984A013696424C
:1050500000D1EBE0964A73052A405B0D5107FF082B
:1050600052020F43120B1B051343E407234338007E
:10507000190002B0E0BCBA46B146A846F0BD002B0C
:1050800000DCD7E0002F00D09AE00800104300D1E8
:10509000FFE0581E012B00D148E2844FBB4200D1F3
:1050A000E7E0382800DCB8E280221204154200D183
:1050B00049E31E000023150098467C4B01369E42B2
:1050C00000D1B3E07A4B01211D4043465A081940F4
:1050D000EF070A4317436D087B07B3D00F233B400C
:1050E000042BAFD0B846A7E77048864200D1C0E095
:1050F000382B00DCE2E001235B4263449C458041A5
:1051000040422D1A98462B0296D501235B429846C1
:10511000684D2800FBF7C2F90300083B20214046F8
:10512000CA1AD040020040469D4098402A4380461B
:10513000B34200DA72E1981B43460130091A454632
:105140008B40C5405E1EB34117008F402B431F4369
:10515000C2403B00150000261343BDD100270022AA
:1051600081E7554F731C3B4200D01BE163460F00A3
:105170002B431743002E00D0C4E1002B00D145E2A1
:10518000002F00D107E163469B1A9846C445B641FB
:105190006B1A76429B1B80263604334200D1CBE249
:1051A0006346D31A9A4292411F00491B52428A1AFF
:1051B0009C46174300D0EDE204000023002252E792
:1051C0003A48864255D0382B00DD48E18020000463
:1051D00001431F2B00DDE3E12027F81A8246080077
:1051E0005746B840814610004F46D8400743380024
:1051F0005746BA40D940571EBA416D181043604413
:105200008046E045804140422D182B0200D554E7EE
:1052100043465B0700D1B9E20F2342461340042BFB
:1052200000D009E733004246D20834E033000022C0
:10523000002718E7002B00D18FE0BB1B002E00D009
:1052400033E16046284300D140E2581E012B00D1D3
:105250000AE2164EB34200D185E2382800DC87E22C
:1052600080252D04294200D19CE21E00002398468F
:1052700023E763466E07D8080643ED0837002F433F
:1052800011D0802212032A4312033700074B120B5E
:10529000E9E66246D2086E071643044AED089342D7
:1052A000ECD03700D6E0014B0022DCE6FF0700001F
:1052B000FFFF7FFFFFFF7F00FE070000802000044C
:1052C00001431F2B00DDB1E02027F81A82460800B9
:1052D0005746B840814610004F46D8400743380033
:1052E0005746BA40D940571EBA416D1A104363461B
:1052F0001B1A9C458041984640422D1A2B0287D5A7
:105300006D026D0A002D00D003E74046FBF7C6F89A
:10531000030018331F2B00DC00E7424608388240A8
:105320009E4200DD91E09B1B581C1F2800DCF8E129
:1053300017001F3BDF40202805D040231B1A9A404E
:10534000531E9A411743002F3CD000267B0700D004
:10535000C4E63500B846330065E7CB48731C03420A
:1053600000D085E063462B43002E00D092E10F0071
:105370001743002B00D1D8E1002F0CD062446245C6
:1053800080416D1840422D182B0200D5F2E1170024
:1053900094462F4316D063466F07D808074300236F
:1053A000ED0857E063469B1A9846C445BF416B1A07
:1053B0007F42DB1B1F0200D5AEE047461D001F43A6
:1053C000A0D10024002300224DE6B04CA74200D11A
:1053D000DDE0382B00DD85E08024240425431F2BED
:1053E00000DDECE02026F41AA1462C004E46B44025
:1053F0006646DE403443A04666464C46A640DD4045
:10540000741EA6414446491B3443131B9A429241E1
:105410005242984604003E008D1A6FE7F61A0300C8
:105420009B4D15405B0700D0F6E6FBE618000F0029
:105430002038C740202B03D04020C31A99400A438C
:10544000531E9A411000384351E79149F31A0A401C
:105450005707D5082A035B05120B5B0D03E6802373
:105460001B041D4200D1BBE01D000023984624E62A
:105470008648834200D1DAE6624462458041691879
:1054800040420918C8075208104380464D08520789
:1054900005D00F221E000240042A00D0CCE542466F
:1054A0006F07D20817430D09D4E77848874200D127
:1054B000D5E0382B00DCB2E080252D04294200D154
:1054C0004CE100233E009846F7E501225242624437
:1054D0009445804140422D1A90461E002A0200D574
:1054E00013E6A9E5531E9A42924152428D1A9846FC
:1054F00004003E002B0200D507E69DE504000D00E8
:10550000D208C8E6002B00D0E3E0002F3FD1802274
:1055100000245E4B1203A6E56346D31A9A429241D9
:105520004D1B524298460400AD1AEBE66244160049
:10553000664580416A1840421218130200D49DE06B
:10554000534973080A40D107194357085B0700D134
:10555000FEE00F230B40042B00D1F9E00B1D984611
:105560008845AD416D420223ED195CE663469B1A06
:105570009C4580416D1A40422D1A98462B020DD44D
:1055800043466F07DB081F43ED08012362E74E0720
:10559000D20804001643CD0870E604000126AFE6E9
:1055A00018000F002038C740202B03D04020C31A1A
:1055B00099400A43531E9A41100038431FE61C00CD
:1055C0002E00203CE640202B05D04024E31A9D40CD
:1055D00063462B439C466446631E9C41344314E758
:1055E00001236344984627E56346D31A9A429241C1
:1055F0004D1B5242AD1A98462B02CED443466F073C
:10560000DB081F4304000123ED0823E7002F00D12E
:10561000D7E604000D009446BDE60300D9E58020DE
:10562000000405431F2B6BDC2020C01A8046280095
:105630004646B0406646DE400643B14660464646B2
:10564000B040DD40461EB0414E46491930438046C9
:1056500090449045924152423E005518D5E54E0780
:10566000D2081643CD0809E663469E189642924139
:10567000691852428A18130200D561E75707F608E5
:1056800001233743D508E5E6FE070000FF070000C9
:10569000FFFF7FFF002BE2D06346DE086B071E434F
:1056A0000B00ED08134300D1E8E580231B031D42E6
:1056B00006D0C808184203D10500D60849070E4392
:1056C000730FF600F6085B071E43D7E50D00D208FE
:1056D000E1E56346DE086B071E43ED08002F00D1AD
:1056E000CCE580231B031D42EAD0CF081F42E7D13F
:1056F000D608490704003D000E43E1E723006EE6AB
:1057000018002E002038C640202B05D04020C31A98
:105710009D4063462B439C466046431E9841304360
:1057200095E720210023091A0EE50023002F00D160
:10573000BAE50D00904676E547461F4300D140E6A6
:105740001D00C44627E60122624490461E0073E411
:10575000C9087F0702230F4315097BE6531C9846AF
:105760000D003E0068E4D6084B071E43CD0885E5D2
:10577000030057E7114BD2082B405F0717435A022B
:10578000120B01236FE43300B8464CE54346DA08B8
:10579000330080E532420AD0084B04001A406746C5
:1057A00001235BE4013290460D001E0044E4DB0857
:1057B00057071F4304000023D5084BE6FFFF7FFF78
:1057C000F0B5DE46454657464E46E0B587B00092F6
:1057D00001930B031B0B9B46CA0F4B000400804632
:1057E0005B0D029200D1BFE08F4A934238D05946F8
:1057F000420FC9000A43802109041143C2009046A8
:105800008A4A894692469A44002300240393009EC4
:10581000019F3B031B0B7A0030009B46520DFD0F8E
:10582000002A00D17FE0804B9A426ED05946730F18
:10583000C9000B438021090419438B467B49F300BF
:105840008C46514662448A1A92460021029E6E405E
:10585000F6B20F2C00D9F9E0754AA4001259974608
:105860005A460243914600D0B6E09A46022390463B
:1058700008240393CBE72E00002100230022884652
:105880001B051343F60733434046190007B0F0BC2D
:10589000BB46B246A946A046F0BDCB464346029D54
:1058A0000399022900D1FAE1032900D1A1E00129DD
:1058B000E1D0604A524490464446002C00DC00E2AD
:1058C0005A0704D00F221A40042A00D07FE22E008B
:1058D000DA085B46DB0106D55946574B8024194050
:1058E0008B46E4005444554B9C4209DC5B465B0705
:1058F000134398465B4664055A02120B630DBFE7DB
:10590000002100228846484BBAE75B46009A1343C1
:105910004B4A9446E244002B59D102221443002200
:105920000221934692E75B46009A134349D05B46B7
:10593000002B00D1A4E15846FAF7B0FD03000200A5
:105940000B3B1D27009EFB1A11005846DE4008390C
:105950008840330003439B46009B8B4039495244A7
:105960008A460021924471E75B460343994621D061
:105970005B46002B00D171E15846FAF78FFD0B23EF
:105980005B429C460200844466461D239B1B260006
:1059900011005846DE4008398840330003439946D9
:1059A00023008B409846284B00249B1A9A460023DC
:1059B00003932CE7002398469A460133042403936B
:1059C00025E7012214430022012193463EE70323E9
:1059D00003211C43330039E79A460323D9460C249C
:1059E000039314E700238022984600260E4B1203EF
:1059F00046E78022594612030A43120398462E00B6
:105A0000094B120B3CE7802249461203114202D097
:105A100059461142F0D080224B4612031A4312031A
:105A2000029E014B120B2BE7FF07000001FCFFFF5A
:105A3000A4710008FF030000FFFFFFFEFE07000047
:105A400001F8FFFFF30300000DFCFFFFCB4500D280
:105A5000FAE000D1F5E00122524294460022444689
:105A600048469046E2445A461F0E12021B02029319
:105A7000130C994617433B041B0C49460093FAF755
:105A8000A5FB009A0B044243210C050019438A42EE
:105A900007D9C919013D8F4203D88A4201D9851E11
:105AA000C919881A4946FAF791FB009A240442431F
:105AB0000904240C03000C43A24204D9E419013B5D
:105AC000A74200D8F7E00299A01A2D040C0C090493
:105AD0001D43090C2A0C2B04AB460D001B0C5D4327
